{
  "transactions": [
    {
      "hash": "0xaee66a96cc35b48962f8dc74fa1a65dd500985545e78e64141d02bcd38d893bc",
      "transactionType": "CALL",
      "contractName": null,
      "contractAddress": "0x2794a0b7187bfcd81d2b6d05e8a6e6cae3f97ffa",
      "function": "approve(address,uint256)",
      "arguments": [
        "0x000000000022D473030F116dDEE9F6B43aC78BA3",
        "115792089237316195423570985008687907853269984665640564039457584007913129639935"
      ],
      "transaction": {
        "from": "0x8822f2965090ddc102f7de354dfd6e642c090269",
        "to": "0x2794a0b7187bfcd81d2b6d05e8a6e6cae3f97ffa",
        "gas": "0x962f",
        "value": "0x0",
        "input": "0x095ea7b3000000000000000000000000000000000022d473030f116ddee9f6b43ac78ba3ffffffffffffffffffffffffffffffffffffffffffffffffffffffffffffffff",
        "nonce": "0x7d",
        "chainId": "0xaa36a7"
      },
      "additionalContracts": [],
      "isFixedGasLimit": false
    },
    {
      "hash": "0xa879b26d9e533bf230e7e42660af1f394bc37209ae6cfd220254e7cc3df2e21c",
      "transactionType": "CALL",
      "contractName": null,
      "contractAddress": "0x000000000022d473030f116ddee9f6b43ac78ba3",
      "function": "approve(address,address,uint160,uint48)",
      "arguments": [
        "0x2794a0b7187BFCd81D2b6d05E8a6e6cAE3F97fFa",
        "0x429ba70129df741B2Ca2a85BC3A2a3328e5c09b4",
        "1461501637330902918203684832716283019655932542975",
        "281474976710655"
      ],
      "transaction": {
        "from": "0x8822f2965090ddc102f7de354dfd6e642c090269",
        "to": "0x000000000022d473030f116ddee9f6b43ac78ba3",
        "gas": "0x96a0",
        "value": "0x0",
        "input": "0x87517c450000000000000000000000002794a0b7187bfcd81d2b6d05e8a6e6cae3f97ffa000000000000000000000000429ba70129df741b2ca2a85bc3a2a3328e5c09b4000000000000000000000000ffffffffffffffffffffffffffffffffffffffff0000000000000000000000000000000000000000000000000000ffffffffffff",
        "nonce": "0x7e",
        "chainId": "0xaa36a7"
      },
      "additionalContracts": [],
      "isFixedGasLimit": false
    },
    {
      "hash": "0xf0c99ca247e6875cc7af3d10118a3d4e440f31a1b46121491996e08e0e55e6d2",
      "transactionType": "CALL",
      "contractName": null,
      "contractAddress": "0xea20820719c5ae04bce9a098e209f4d8c60daf06",
      "function": "approve(address,uint256)",
      "arguments": [
        "0x000000000022D473030F116dDEE9F6B43aC78BA3",
        "115792089237316195423570985008687907853269984665640564039457584007913129639935"
      ],
      "transaction": {
        "from": "0x8822f2965090ddc102f7de354dfd6e642c090269",
        "to": "0xea20820719c5ae04bce9a098e209f4d8c60daf06",
        "gas": "0x962f",
        "value": "0x0",
        "input": "0x095ea7b3000000000000000000000000000000000022d473030f116ddee9f6b43ac78ba3ffffffffffffffffffffffffffffffffffffffffffffffffffffffffffffffff",
        "nonce": "0x7f",
        "chainId": "0xaa36a7"
      },
      "additionalContracts": [],
      "isFixedGasLimit": false
    },
    {
      "hash": "0x4aac7c5e30545683597683b96e8adffb0d2f60124bebf9c08b0eb4105ff5a83f",
      "transactionType": "CALL",
      "contractName": null,
      "contractAddress": "0x000000000022d473030f116ddee9f6b43ac78ba3",
      "function": "approve(address,address,uint160,uint48)",
      "arguments": [
        "0xEa20820719c5Ae04Bce9A098E209f4d8C60DAF06",
        "0x429ba70129df741B2Ca2a85BC3A2a3328e5c09b4",
        "1461501637330902918203684832716283019655932542975",
        "281474976710655"
      ],
      "transaction": {
        "from": "0x8822f2965090ddc102f7de354dfd6e642c090269",
        "to": "0x000000000022d473030f116ddee9f6b43ac78ba3",
        "gas": "0x96a0",
        "value": "0x0",
        "input": "0x87517c45000000000000000000000000ea20820719c5ae04bce9a098e209f4d8c60daf06000000000000000000000000429ba70129df741b2ca2a85bc3a2a3328e5c09b4000000000000000000000000ffffffffffffffffffffffffffffffffffffffff0000000000000000000000000000000000000000000000000000ffffffffffff",
        "nonce": "0x80",
        "chainId": "0xaa36a7"
      },
      "additionalContracts": [],
      "isFixedGasLimit": false
    },
    {
      "hash": "0xe92629ff0e0a0a09899a250cdd4af124fc45675a4535fd13e185086a6825a51e",
      "transactionType": "CALL",
      "contractName": null,
      "contractAddress": "0x429ba70129df741b2ca2a85bc3a2a3328e5c09b4",
      "function": "modifyLiquidities(bytes,uint256)",
      "arguments": [
        "0x000000000000000000000000000000000000000000000000000000000000004000000000000000000000000000000000000000000000000000000000000000800000000000000000000000000000000000000000000000000000000000000002020d00000000000000000000000000000000000000000000000000000000000000000000000000000000000000000000000000000000000000000000000000020000000000000000000000000000000000000000000000000000000000000040000000000000000000000000000000000000000000000000000000000000020000000000000000000000000000000000000000000000000000000000000001a00000000000000000000000002794a0b7187bfcd81d2b6d05e8a6e6cae3f97ffa000000000000000000000000ea20820719c5ae04bce9a098e209f4d8c60daf060000000000000000000000000000000000000000000000000000000000000bb8000000000000000000000000000000000000000000000000000000000000003c000000000000000000000000e78bd1b3b9a9ed4af954ac39a820cc903c87cac0fffffffffffffffffffffffffffffffffffffffffffffffffffffffffffffda80000000000000000000000000000000000000000000000000000000000000258000000000000000000000000000000000000000000000001d596f2cc56cdb1630000000000000000000000000000000000000000000000000de0b6b3a76400010000000000000000000000000000000000000000000000000de0b6b3a76400010000000000000000000000008822f2965090ddc102f7de354dfd6e642c0902690000000000000000000000000000000000000000000000000000000000000180000000000000000000000000000000000000000000000000000000000000000000000000000000000000000000000000000000000000000000000000000000400000000000000000000000002794a0b7187bfcd81d2b6d05e8a6e6cae3f97ffa000000000000000000000000ea20820719c5ae04bce9a098e209f4d8c60daf06",
        "1763380620"
      ],
      "transaction": {
        "from": "0x8822f2965090ddc102f7de354dfd6e642c090269",
        "to": "0x429ba70129df741b2ca2a85bc3a2a3328e5c09b4",
        "gas": "0x52412",
        "value": "0x0",
        "input": "0xdd46508f000000000000000000000000000000000000000000000000000000000000004000000000000000000000000000000000000000000000000000000000691b0d8c0000000000000000000000000000000000000000000000000000000000000300000000000000000000000000000000000000000000000000000000000000004000000000000000000000000000000000000000000000000000000000000000800000000000000000000000000000000000000000000000000000000000000002020d00000000000000000000000000000000000000000000000000000000000000000000000000000000000000000000000000000000000000000000000000020000000000000000000000000000000000000000000000000000000000000040000000000000000000000000000000000000000000000000000000000000020000000000000000000000000000000000000000000000000000000000000001a00000000000000000000000002794a0b7187bfcd81d2b6d05e8a6e6cae3f97ffa000000000000000000000000ea20820719c5ae04bce9a098e209f4d8c60daf060000000000000000000000000000000000000000000000000000000000000bb8000000000000000000000000000000000000000000000000000000000000003c000000000000000000000000e78bd1b3b9a9ed4af954ac39a820cc903c87cac0fffffffffffffffffffffffffffffffffffffffffffffffffffffffffffffda80000000000000000000000000000000000000000000000000000000000000258000000000000000000000000000000000000000000000001d596f2cc56cdb1630000000000000000000000000000000000000000000000000de0b6b3a76400010000000000000000000000000000000000000000000000000de0b6b3a76400010000000000000000000000008822f2965090ddc102f7de354dfd6e642c0902690000000000000000000000000000000000000000000000000000000000000180000000000000000000000000000000000000000000000000000000000000000000000000000000000000000000000000000000000000000000000000000000400000000000000000000000002794a0b7187bfcd81d2b6d05e8a6e6cae3f97ffa000000000000000000000000ea20820719c5ae04bce9a098e209f4d8c60daf06",
        "nonce": "0x81",
        "chainId": "0xaa36a7"
      },
      "additionalContracts": [],
      "isFixedGasLimit": false
    }
  ],
  "receipts": [
    {
      "status": "0x1",
      "cumulativeGasUsed": "0x94be2b",
      "logs": [
        {
          "address": "0x2794a0b7187bfcd81d2b6d05e8a6e6cae3f97ffa",
          "topics": [
            "0x8c5be1e5ebec7d5bd14f71427d1e84f3dd0314c0f7b2291e5b200ac8c7c3b925",
            "0x0000000000000000000000008822f2965090ddc102f7de354dfd6e642c090269",
            "0x000000000000000000000000000000000022d473030f116ddee9f6b43ac78ba3"
          ],
          "data": "0xffffffffffffffffffffffffffffffffffffffffffffffffffffffffffffffff",
          "blockHash": "0x235669b40beda784d111846c1898f9132dce75e9713e6657b31c22afefc5f7f8",
          "blockNumber": "0x93388e",
          "blockTimestamp": "0x691b0d68",
          "transactionHash": "0xaee66a96cc35b48962f8dc74fa1a65dd500985545e78e64141d02bcd38d893bc",
          "transactionIndex": "0x49",
          "logIndex": "0x81",
          "removed": false
        }
      ],
      "logsBloom": "0x00200000000000000000000000000000000000000000000000000000000000000000000000000000000000000000000000000000800000000000000000200000000000000000000000004000000000000000000000000800000000000000000000000000000000000000000000000000000000000000000000000000000000000000008000000000000000000000000008000000000000000000000000000000020000000000000000000000000000000800000000000000000000000000000400000000000000000000000000000000000000000000000000000000000000000010000000000800000000000000000000000000000000000000000000000000",
      "type": "0x2",
      "transactionHash": "0xaee66a96cc35b48962f8dc74fa1a65dd500985545e78e64141d02bcd38d893bc",
      "transactionIndex": "0x49",
      "blockHash": "0x235669b40beda784d111846c1898f9132dce75e9713e6657b31c22afefc5f7f8",
      "blockNumber": "0x93388e",
      "gasUsed": "0x66b1",
      "effectiveGasPrice": "0xf4249",
      "from": "0x8822f2965090ddc102f7de354dfd6e642c090269",
      "to": "0x2794a0b7187bfcd81d2b6d05e8a6e6cae3f97ffa",
      "contractAddress": null
    },
    {
      "status": "0x1",
      "cumulativeGasUsed": "0x952b39",
      "logs": [
        {
          "address": "0x000000000022d473030f116ddee9f6b43ac78ba3",
          "topics": [
            "0xda9fa7c1b00402c17d0161b249b1ab8bbec047c5a52207b9c112deffd817036b",
            "0x0000000000000000000000008822f2965090ddc102f7de354dfd6e642c090269",
            "0x0000000000000000000000002794a0b7187bfcd81d2b6d05e8a6e6cae3f97ffa",
            "0x000000000000000000000000429ba70129df741b2ca2a85bc3a2a3328e5c09b4"
          ],
          "data": "0x000000000000000000000000ffffffffffffffffffffffffffffffffffffffff0000000000000000000000000000000000000000000000000000ffffffffffff",
          "blockHash": "0x235669b40beda784d111846c1898f9132dce75e9713e6657b31c22afefc5f7f8",
          "blockNumber": "0x93388e",
          "blockTimestamp": "0x691b0d68",
          "transactionHash": "0xa879b26d9e533bf230e7e42660af1f394bc37209ae6cfd220254e7cc3df2e21c",
          "transactionIndex": "0x4a",
          "logIndex": "0x82",
          "removed": false
        }
      ],
      "logsBloom": "0x00210000000000000000000100000000000000000000000000000000000000000000800000000040080000000000000000000000000000000000000000080000000000000000000000000000000000000000001000000000000000000000000000000000000000000000000000000000000000000000000000000800000000000020008000000000000000000000000000000000000000000000000000000000000000000000000000000000000000000800000000000000000000080000000000000000000000000000000000000000000000000000000040000000000000000000000000000000000000000000000000000000000000000000000000000400",
      "type": "0x2",
      "transactionHash": "0xa879b26d9e533bf230e7e42660af1f394bc37209ae6cfd220254e7cc3df2e21c",
      "transactionIndex": "0x4a",
      "blockHash": "0x235669b40beda784d111846c1898f9132dce75e9713e6657b31c22afefc5f7f8",
      "blockNumber": "0x93388e",
      "gasUsed": "0x6d0e",
      "effectiveGasPrice": "0xf4249",
      "from": "0x8822f2965090ddc102f7de354dfd6e642c090269",
      "to": "0x000000000022d473030f116ddee9f6b43ac78ba3",
      "contractAddress": null
    },
    {
      "status": "0x1",
      "cumulativeGasUsed": "0x9591ea",
      "logs": [
        {
          "address": "0xea20820719c5ae04bce9a098e209f4d8c60daf06",
          "topics": [
            "0x8c5be1e5ebec7d5bd14f71427d1e84f3dd0314c0f7b2291e5b200ac8c7c3b925",
            "0x0000000000000000000000008822f2965090ddc102f7de354dfd6e642c090269",
            "0x000000000000000000000000000000000022d473030f116ddee9f6b43ac78ba3"
          ],
          "data": "0xffffffffffffffffffffffffffffffffffffffffffffffffffffffffffffffff",
          "blockHash": "0x235669b40beda784d111846c1898f9132dce75e9713e6657b31c22afefc5f7f8",
          "blockNumber": "0x93388e",
          "blockTimestamp": "0x691b0d68",
          "transactionHash": "0xf0c99ca247e6875cc7af3d10118a3d4e440f31a1b46121491996e08e0e55e6d2",
          "transactionIndex": "0x4b",
          "logIndex": "0x83",
          "removed": false
        }
      ],
      "logsBloom": "0x00200000000000000000000000000000000000000000000000000000000000000000000000000000000000000000000000000000800000000000000000200000000000000000000000004000000000000000000000000800000000000000000000000000000000000000000000000000000000000000000000000000000000000000008000000000000200000000000800008000000000000000000000000000020000000000000000000000000000000800000000000000000000000000000000000000000000000000000000000000000000000000000000000000000000000010000000000000000000000000000000000000000000000000000000000000",
      "type": "0x2",
      "transactionHash": "0xf0c99ca247e6875cc7af3d10118a3d4e440f31a1b46121491996e08e0e55e6d2",
      "transactionIndex": "0x4b",
      "blockHash": "0x235669b40beda784d111846c1898f9132dce75e9713e6657b31c22afefc5f7f8",
      "blockNumber": "0x93388e",
      "gasUsed": "0x66b1",
      "effectiveGasPrice": "0xf4249",
      "from": "0x8822f2965090ddc102f7de354dfd6e642c090269",
      "to": "0xea20820719c5ae04bce9a098e209f4d8c60daf06",
      "contractAddress": null
    },
    {
      "status": "0x1",
      "cumulativeGasUsed": "0x95fef8",
      "logs": [
        {
          "address": "0x000000000022d473030f116ddee9f6b43ac78ba3",
          "topics": [
            "0xda9fa7c1b00402c17d0161b249b1ab8bbec047c5a52207b9c112deffd817036b",
            "0x0000000000000000000000008822f2965090ddc102f7de354dfd6e642c090269",
            "0x000000000000000000000000ea20820719c5ae04bce9a098e209f4d8c60daf06",
            "0x000000000000000000000000429ba70129df741b2ca2a85bc3a2a3328e5c09b4"
          ],
          "data": "0x000000000000000000000000ffffffffffffffffffffffffffffffffffffffff0000000000000000000000000000000000000000000000000000ffffffffffff",
          "blockHash": "0x235669b40beda784d111846c1898f9132dce75e9713e6657b31c22afefc5f7f8",
          "blockNumber": "0x93388e",
          "blockTimestamp": "0x691b0d68",
          "transactionHash": "0x4aac7c5e30545683597683b96e8adffb0d2f60124bebf9c08b0eb4105ff5a83f",
          "transactionIndex": "0x4c",
          "logIndex": "0x84",
          "removed": false
        }
      ],
      "logsBloom": "0x00210000000000000000000000000000000000000000000000000000000000000000000000000040080000000000000000000000000000000000000000080000000000000000000000000000000000000000000000000000000000000000000000000000000000008000000000000000000000000000000000000800000000000020008000000000000000000000000000000000000000000000000000000000000000000000000000000000000000000800000000000200000000080000000000000000000000000000000000000000000000000000000040000000000000000000000000000000000000000000000000040000000000000000000000000400",
      "type": "0x2",
      "transactionHash": "0x4aac7c5e30545683597683b96e8adffb0d2f60124bebf9c08b0eb4105ff5a83f",
      "transactionIndex": "0x4c",
      "blockHash": "0x235669b40beda784d111846c1898f9132dce75e9713e6657b31c22afefc5f7f8",
      "blockNumber": "0x93388e",
      "gasUsed": "0x6d0e",
      "effectiveGasPrice": "0xf4249",
      "from": "0x8822f2965090ddc102f7de354dfd6e642c090269",
      "to": "0x000000000022d473030f116ddee9f6b43ac78ba3",
      "contractAddress": null
    },
    {
      "status": "0x1",
      "cumulativeGasUsed": "0x9982d9",
      "logs": [
        {
          "address": "0x429ba70129df741b2ca2a85bc3a2a3328e5c09b4",
          "topics": [
            "0xddf252ad1be2c89b69c2b068fc378daa952ba7f163c4a11628f55a4df523b3ef",
            "0x0000000000000000000000000000000000000000000000000000000000000000",
            "0x0000000000000000000000008822f2965090ddc102f7de354dfd6e642c090269",
            "0x0000000000000000000000000000000000000000000000000000000000004fdb"
          ],
          "data": "0x",
          "blockHash": "0x235669b40beda784d111846c1898f9132dce75e9713e6657b31c22afefc5f7f8",
          "blockNumber": "0x93388e",
          "blockTimestamp": "0x691b0d68",
          "transactionHash": "0xe92629ff0e0a0a09899a250cdd4af124fc45675a4535fd13e185086a6825a51e",
          "transactionIndex": "0x4d",
          "logIndex": "0x85",
          "removed": false
        },
        {
          "address": "0xe03a1074c86cfedd5c142c4f04f1a1536e203543",
          "topics": [
            "0xf208f4912782fd25c7f114ca3723a2d5dd6f3bcc3ac8db5af63baa85f711d5ec",
            "0x914cd994a92b25f093b3b27a93d8d87b73cb738cd4647a609622d9fabaa76524",
            "0x000000000000000000000000429ba70129df741b2ca2a85bc3a2a3328e5c09b4"
          ],
          "data": "0xfffffffffffffffffffffffffffffffffffffffffffffffffffffffffffffda80000000000000000000000000000000000000000000000000000000000000258000000000000000000000000000000000000000000000001d596f2cc56cdb1630000000000000000000000000000000000000000000000000000000000004fdb",
          "blockHash": "0x235669b40beda784d111846c1898f9132dce75e9713e6657b31c22afefc5f7f8",
          "blockNumber": "0x93388e",
          "blockTimestamp": "0x691b0d68",
          "transactionHash": "0xe92629ff0e0a0a09899a250cdd4af124fc45675a4535fd13e185086a6825a51e",
          "transactionIndex": "0x4d",
          "logIndex": "0x86",
          "removed": false
        },
        {
          "address": "0x2794a0b7187bfcd81d2b6d05e8a6e6cae3f97ffa",
          "topics": [
            "0xddf252ad1be2c89b69c2b068fc378daa952ba7f163c4a11628f55a4df523b3ef",
            "0x0000000000000000000000008822f2965090ddc102f7de354dfd6e642c090269",
            "0x000000000000000000000000e03a1074c86cfedd5c142c4f04f1a1536e203543"
          ],
          "data": "0x0000000000000000000000000000000000000000000000000de0b6b3a7640000",
          "blockHash": "0x235669b40beda784d111846c1898f9132dce75e9713e6657b31c22afefc5f7f8",
          "blockNumber": "0x93388e",
          "blockTimestamp": "0x691b0d68",
          "transactionHash": "0xe92629ff0e0a0a09899a250cdd4af124fc45675a4535fd13e185086a6825a51e",
          "transactionIndex": "0x4d",
          "logIndex": "0x87",
          "removed": false
        },
        {
          "address": "0xea20820719c5ae04bce9a098e209f4d8c60daf06",
          "topics": [
            "0xddf252ad1be2c89b69c2b068fc378daa952ba7f163c4a11628f55a4df523b3ef",
            "0x0000000000000000000000008822f2965090ddc102f7de354dfd6e642c090269",
            "0x000000000000000000000000e03a1074c86cfedd5c142c4f04f1a1536e203543"
          ],
          "data": "0x0000000000000000000000000000000000000000000000000de0b6b3a7640000",
          "blockHash": "0x235669b40beda784d111846c1898f9132dce75e9713e6657b31c22afefc5f7f8",
          "blockNumber": "0x93388e",
          "blockTimestamp": "0x691b0d68",
          "transactionHash": "0xe92629ff0e0a0a09899a250cdd4af124fc45675a4535fd13e185086a6825a51e",
          "transactionIndex": "0x4d",
          "logIndex": "0x88",
          "removed": false
        }
      ],
      "logsBloom": "0x00200000000400000000001000000000000000000000000000000000080000000000000000000040080000000000000000000100000000000000100000000000000000000000000200000008000800000000000000000000000000000000000000000000020000000000000080000800000000000000100020000810000000000000008001000000000210000000000808008000000000000000000000000000000004000000000000000000000000000800000000400000000000000000000400000002000000000000000000000000000000000000000000001000000020001000000000000800000000000000000004000000000002000000000000000000",
      "type": "0x2",
      "transactionHash": "0xe92629ff0e0a0a09899a250cdd4af124fc45675a4535fd13e185086a6825a51e",
      "transactionIndex": "0x4d",
      "blockHash": "0x235669b40beda784d111846c1898f9132dce75e9713e6657b31c22afefc5f7f8",
      "blockNumber": "0x93388e",
      "gasUsed": "0x383e1",
      "effectiveGasPrice": "0xf4249",
      "from": "0x8822f2965090ddc102f7de354dfd6e642c090269",
      "to": "0x429ba70129df741b2ca2a85bc3a2a3328e5c09b4",
      "contractAddress": null
    }
  ],
  "libraries": [],
  "pending": [],
  "returns": {},
  "timestamp": 1763380586686,
  "chain": 11155111,
  "commit": "5f4773e"
}