{
  "transactions": [
    {
      "hash": "0x60920339cf3e47f13524f947949903cb1f71529a9064f713eddf772a19964724",
      "transactionType": "CALL",
      "contractName": null,
      "contractAddress": "0x2794a0b7187bfcd81d2b6d05e8a6e6cae3f97ffa",
      "function": "approve(address,uint256)",
      "arguments": [
        "0x000000000022D473030F116dDEE9F6B43aC78BA3",
        "115792089237316195423570985008687907853269984665640564039457584007913129639935"
      ],
      "transaction": {
        "from": "0x8822f2965090ddc102f7de354dfd6e642c090269",
        "to": "0x2794a0b7187bfcd81d2b6d05e8a6e6cae3f97ffa",
        "gas": "0x962f",
        "value": "0x0",
        "input": "0x095ea7b3000000000000000000000000000000000022d473030f116ddee9f6b43ac78ba3ffffffffffffffffffffffffffffffffffffffffffffffffffffffffffffffff",
        "nonce": "0x131",
        "chainId": "0xaa36a7"
      },
      "additionalContracts": [],
      "isFixedGasLimit": false
    },
    {
      "hash": "0x8694e23242f7079d6d96716c41936b262f4aad8f662dcc8b584a82b91f977643",
      "transactionType": "CALL",
      "contractName": null,
      "contractAddress": "0x000000000022d473030f116ddee9f6b43ac78ba3",
      "function": "approve(address,address,uint160,uint48)",
      "arguments": [
        "0x2794a0b7187BFCd81D2b6d05E8a6e6cAE3F97fFa",
        "0x429ba70129df741B2Ca2a85BC3A2a3328e5c09b4",
        "1461501637330902918203684832716283019655932542975",
        "281474976710655"
      ],
      "transaction": {
        "from": "0x8822f2965090ddc102f7de354dfd6e642c090269",
        "to": "0x000000000022d473030f116ddee9f6b43ac78ba3",
        "gas": "0x96a0",
        "value": "0x0",
        "input": "0x87517c450000000000000000000000002794a0b7187bfcd81d2b6d05e8a6e6cae3f97ffa000000000000000000000000429ba70129df741b2ca2a85bc3a2a3328e5c09b4000000000000000000000000ffffffffffffffffffffffffffffffffffffffff0000000000000000000000000000000000000000000000000000ffffffffffff",
        "nonce": "0x132",
        "chainId": "0xaa36a7"
      },
      "additionalContracts": [],
      "isFixedGasLimit": false
    },
    {
      "hash": "0x38db279461fa950775199312d392e0384573e8ccd6a0e5acec7a64e0c8154313",
      "transactionType": "CALL",
      "contractName": null,
      "contractAddress": "0xea20820719c5ae04bce9a098e209f4d8c60daf06",
      "function": "approve(address,uint256)",
      "arguments": [
        "0x000000000022D473030F116dDEE9F6B43aC78BA3",
        "115792089237316195423570985008687907853269984665640564039457584007913129639935"
      ],
      "transaction": {
        "from": "0x8822f2965090ddc102f7de354dfd6e642c090269",
        "to": "0xea20820719c5ae04bce9a098e209f4d8c60daf06",
        "gas": "0x962f",
        "value": "0x0",
        "input": "0x095ea7b3000000000000000000000000000000000022d473030f116ddee9f6b43ac78ba3ffffffffffffffffffffffffffffffffffffffffffffffffffffffffffffffff",
        "nonce": "0x133",
        "chainId": "0xaa36a7"
      },
      "additionalContracts": [],
      "isFixedGasLimit": false
    },
    {
      "hash": "0xaa06f8a8b2cca42417cb06535a9cf976defd36b2b4bb273bf58d881b4c5e3472",
      "transactionType": "CALL",
      "contractName": null,
      "contractAddress": "0x000000000022d473030f116ddee9f6b43ac78ba3",
      "function": "approve(address,address,uint160,uint48)",
      "arguments": [
        "0xEa20820719c5Ae04Bce9A098E209f4d8C60DAF06",
        "0x429ba70129df741B2Ca2a85BC3A2a3328e5c09b4",
        "1461501637330902918203684832716283019655932542975",
        "281474976710655"
      ],
      "transaction": {
        "from": "0x8822f2965090ddc102f7de354dfd6e642c090269",
        "to": "0x000000000022d473030f116ddee9f6b43ac78ba3",
        "gas": "0x96a0",
        "value": "0x0",
        "input": "0x87517c45000000000000000000000000ea20820719c5ae04bce9a098e209f4d8c60daf06000000000000000000000000429ba70129df741b2ca2a85bc3a2a3328e5c09b4000000000000000000000000ffffffffffffffffffffffffffffffffffffffff0000000000000000000000000000000000000000000000000000ffffffffffff",
        "nonce": "0x134",
        "chainId": "0xaa36a7"
      },
      "additionalContracts": [],
      "isFixedGasLimit": false
    },
    {
      "hash": "0x37e4308de23c2cf7bf73cdaa1d5785a96ff83b1dd174dc32f589c22bfd19f325",
      "transactionType": "CALL",
      "contractName": null,
      "contractAddress": "0x429ba70129df741b2ca2a85bc3a2a3328e5c09b4",
      "function": "modifyLiquidities(bytes,uint256)",
      "arguments": [
        "0x000000000000000000000000000000000000000000000000000000000000004000000000000000000000000000000000000000000000000000000000000000800000000000000000000000000000000000000000000000000000000000000002020d00000000000000000000000000000000000000000000000000000000000000000000000000000000000000000000000000000000000000000000000000020000000000000000000000000000000000000000000000000000000000000040000000000000000000000000000000000000000000000000000000000000020000000000000000000000000000000000000000000000000000000000000001a00000000000000000000000002794a0b7187bfcd81d2b6d05e8a6e6cae3f97ffa000000000000000000000000ea20820719c5ae04bce9a098e209f4d8c60daf060000000000000000000000000000000000000000000000000000000000000bb8000000000000000000000000000000000000000000000000000000000000003c000000000000000000000000d6f8ddc186434d891b8653ff2083436067114ac0fffffffffffffffffffffffffffffffffffffffffffffffffffffffffffffda80000000000000000000000000000000000000000000000000000000000000258000000000000000000000000000000000000000000000001d596f2cc56cdb1630000000000000000000000000000000000000000000000000de0b6b3a76400010000000000000000000000000000000000000000000000000de0b6b3a76400010000000000000000000000008822f2965090ddc102f7de354dfd6e642c0902690000000000000000000000000000000000000000000000000000000000000180000000000000000000000000000000000000000000000000000000000000000000000000000000000000000000000000000000000000000000000000000000400000000000000000000000002794a0b7187bfcd81d2b6d05e8a6e6cae3f97ffa000000000000000000000000ea20820719c5ae04bce9a098e209f4d8c60daf06",
        "1766016168"
      ],
      "transaction": {
        "from": "0x8822f2965090ddc102f7de354dfd6e642c090269",
        "to": "0x429ba70129df741b2ca2a85bc3a2a3328e5c09b4",
        "gas": "0x52412",
        "value": "0x0",
        "input": "0xdd46508f000000000000000000000000000000000000000000000000000000000000004000000000000000000000000000000000000000000000000000000000694344a80000000000000000000000000000000000000000000000000000000000000300000000000000000000000000000000000000000000000000000000000000004000000000000000000000000000000000000000000000000000000000000000800000000000000000000000000000000000000000000000000000000000000002020d00000000000000000000000000000000000000000000000000000000000000000000000000000000000000000000000000000000000000000000000000020000000000000000000000000000000000000000000000000000000000000040000000000000000000000000000000000000000000000000000000000000020000000000000000000000000000000000000000000000000000000000000001a00000000000000000000000002794a0b7187bfcd81d2b6d05e8a6e6cae3f97ffa000000000000000000000000ea20820719c5ae04bce9a098e209f4d8c60daf060000000000000000000000000000000000000000000000000000000000000bb8000000000000000000000000000000000000000000000000000000000000003c000000000000000000000000d6f8ddc186434d891b8653ff2083436067114ac0fffffffffffffffffffffffffffffffffffffffffffffffffffffffffffffda80000000000000000000000000000000000000000000000000000000000000258000000000000000000000000000000000000000000000001d596f2cc56cdb1630000000000000000000000000000000000000000000000000de0b6b3a76400010000000000000000000000000000000000000000000000000de0b6b3a76400010000000000000000000000008822f2965090ddc102f7de354dfd6e642c0902690000000000000000000000000000000000000000000000000000000000000180000000000000000000000000000000000000000000000000000000000000000000000000000000000000000000000000000000000000000000000000000000400000000000000000000000002794a0b7187bfcd81d2b6d05e8a6e6cae3f97ffa000000000000000000000000ea20820719c5ae04bce9a098e209f4d8c60daf06",
        "nonce": "0x135",
        "chainId": "0xaa36a7"
      },
      "additionalContracts": [],
      "isFixedGasLimit": false
    }
  ],
  "receipts": [
    {
      "status": "0x1",
      "cumulativeGasUsed": "0x55ea93",
      "logs": [
        {
          "address": "0x2794a0b7187bfcd81d2b6d05e8a6e6cae3f97ffa",
          "topics": [
            "0x8c5be1e5ebec7d5bd14f71427d1e84f3dd0314c0f7b2291e5b200ac8c7c3b925",
            "0x0000000000000000000000008822f2965090ddc102f7de354dfd6e642c090269",
            "0x000000000000000000000000000000000022d473030f116ddee9f6b43ac78ba3"
          ],
          "data": "0xffffffffffffffffffffffffffffffffffffffffffffffffffffffffffffffff",
          "blockHash": "0xfaf98788a401f3db1acba6b4ba1029ea83305721a38e907d85ea19613e487ec7",
          "blockNumber": "0x967f53",
          "blockTimestamp": "0x69434484",
          "transactionHash": "0x60920339cf3e47f13524f947949903cb1f71529a9064f713eddf772a19964724",
          "transactionIndex": "0x2d",
          "logIndex": "0x32",
          "removed": false
        }
      ],
      "logsBloom": "0x00200000000000000000000000000000000000000000000000000000000000000000000000000000000000000000000000000000800000000000000000200000000000000000000000004000000000000000000000000800000000000000000000000000000000000000000000000000000000000000000000000000000000000000008000000000000000000000000008000000000000000000000000000000020000000000000000000000000000000800000000000000000000000000000400000000000000000000000000000000000000000000000000000000000000000010000000000800000000000000000000000000000000000000000000000000",
      "type": "0x2",
      "transactionHash": "0x60920339cf3e47f13524f947949903cb1f71529a9064f713eddf772a19964724",
      "transactionIndex": "0x2d",
      "blockHash": "0xfaf98788a401f3db1acba6b4ba1029ea83305721a38e907d85ea19613e487ec7",
      "blockNumber": "0x967f53",
      "gasUsed": "0x66b1",
      "effectiveGasPrice": "0x14f3285ad",
      "from": "0x8822f2965090ddc102f7de354dfd6e642c090269",
      "to": "0x2794a0b7187bfcd81d2b6d05e8a6e6cae3f97ffa",
      "contractAddress": null
    },
    {
      "status": "0x1",
      "cumulativeGasUsed": "0x5657a1",
      "logs": [
        {
          "address": "0x000000000022d473030f116ddee9f6b43ac78ba3",
          "topics": [
            "0xda9fa7c1b00402c17d0161b249b1ab8bbec047c5a52207b9c112deffd817036b",
            "0x0000000000000000000000008822f2965090ddc102f7de354dfd6e642c090269",
            "0x0000000000000000000000002794a0b7187bfcd81d2b6d05e8a6e6cae3f97ffa",
            "0x000000000000000000000000429ba70129df741b2ca2a85bc3a2a3328e5c09b4"
          ],
          "data": "0x000000000000000000000000ffffffffffffffffffffffffffffffffffffffff0000000000000000000000000000000000000000000000000000ffffffffffff",
          "blockHash": "0xfaf98788a401f3db1acba6b4ba1029ea83305721a38e907d85ea19613e487ec7",
          "blockNumber": "0x967f53",
          "blockTimestamp": "0x69434484",
          "transactionHash": "0x8694e23242f7079d6d96716c41936b262f4aad8f662dcc8b584a82b91f977643",
          "transactionIndex": "0x2e",
          "logIndex": "0x33",
          "removed": false
        }
      ],
      "logsBloom": "0x00210000000000000000000100000000000000000000000000000000000000000000800000000040080000000000000000000000000000000000000000080000000000000000000000000000000000000000001000000000000000000000000000000000000000000000000000000000000000000000000000000800000000000020008000000000000000000000000000000000000000000000000000000000000000000000000000000000000000000800000000000000000000080000000000000000000000000000000000000000000000000000000040000000000000000000000000000000000000000000000000000000000000000000000000000400",
      "type": "0x2",
      "transactionHash": "0x8694e23242f7079d6d96716c41936b262f4aad8f662dcc8b584a82b91f977643",
      "transactionIndex": "0x2e",
      "blockHash": "0xfaf98788a401f3db1acba6b4ba1029ea83305721a38e907d85ea19613e487ec7",
      "blockNumber": "0x967f53",
      "gasUsed": "0x6d0e",
      "effectiveGasPrice": "0x14f3285ad",
      "from": "0x8822f2965090ddc102f7de354dfd6e642c090269",
      "to": "0x000000000022d473030f116ddee9f6b43ac78ba3",
      "contractAddress": null
    },
    {
      "status": "0x1",
      "cumulativeGasUsed": "0x384f985",
      "logs": [
        {
          "address": "0xea20820719c5ae04bce9a098e209f4d8c60daf06",
          "topics": [
            "0x8c5be1e5ebec7d5bd14f71427d1e84f3dd0314c0f7b2291e5b200ac8c7c3b925",
            "0x0000000000000000000000008822f2965090ddc102f7de354dfd6e642c090269",
            "0x000000000000000000000000000000000022d473030f116ddee9f6b43ac78ba3"
          ],
          "data": "0xffffffffffffffffffffffffffffffffffffffffffffffffffffffffffffffff",
          "blockHash": "0x1058457a33150ebb65f9761a6a79ce490f77a2272a9aaf68d2754cd1e250a919",
          "blockNumber": "0x967f54",
          "blockTimestamp": "0x69434490",
          "transactionHash": "0x38db279461fa950775199312d392e0384573e8ccd6a0e5acec7a64e0c8154313",
          "transactionIndex": "0x5e",
          "logIndex": "0x782",
          "removed": false
        }
      ],
      "logsBloom": "0x00200000000000000000000000000000000000000000000000000000000000000000000000000000000000000000000000000000800000000000000000200000000000000000000000004000000000000000000000000800000000000000000000000000000000000000000000000000000000000000000000000000000000000000008000000000000200000000000800008000000000000000000000000000020000000000000000000000000000000800000000000000000000000000000000000000000000000000000000000000000000000000000000000000000000000010000000000000000000000000000000000000000000000000000000000000",
      "type": "0x2",
      "transactionHash": "0x38db279461fa950775199312d392e0384573e8ccd6a0e5acec7a64e0c8154313",
      "transactionIndex": "0x5e",
      "blockHash": "0x1058457a33150ebb65f9761a6a79ce490f77a2272a9aaf68d2754cd1e250a919",
      "blockNumber": "0x967f54",
      "gasUsed": "0x66b1",
      "effectiveGasPrice": "0x134334009",
      "from": "0x8822f2965090ddc102f7de354dfd6e642c090269",
      "to": "0xea20820719c5ae04bce9a098e209f4d8c60daf06",
      "contractAddress": null
    },
    {
      "status": "0x1",
      "cumulativeGasUsed": "0x3856693",
      "logs": [
        {
          "address": "0x000000000022d473030f116ddee9f6b43ac78ba3",
          "topics": [
            "0xda9fa7c1b00402c17d0161b249b1ab8bbec047c5a52207b9c112deffd817036b",
            "0x0000000000000000000000008822f2965090ddc102f7de354dfd6e642c090269",
            "0x000000000000000000000000ea20820719c5ae04bce9a098e209f4d8c60daf06",
            "0x000000000000000000000000429ba70129df741b2ca2a85bc3a2a3328e5c09b4"
          ],
          "data": "0x000000000000000000000000ffffffffffffffffffffffffffffffffffffffff0000000000000000000000000000000000000000000000000000ffffffffffff",
          "blockHash": "0x1058457a33150ebb65f9761a6a79ce490f77a2272a9aaf68d2754cd1e250a919",
          "blockNumber": "0x967f54",
          "blockTimestamp": "0x69434490",
          "transactionHash": "0xaa06f8a8b2cca42417cb06535a9cf976defd36b2b4bb273bf58d881b4c5e3472",
          "transactionIndex": "0x5f",
          "logIndex": "0x783",
          "removed": false
        }
      ],
      "logsBloom": "0x00210000000000000000000000000000000000000000000000000000000000000000000000000040080000000000000000000000000000000000000000080000000000000000000000000000000000000000000000000000000000000000000000000000000000008000000000000000000000000000000000000800000000000020008000000000000000000000000000000000000000000000000000000000000000000000000000000000000000000800000000000200000000080000000000000000000000000000000000000000000000000000000040000000000000000000000000000000000000000000000000040000000000000000000000000400",
      "type": "0x2",
      "transactionHash": "0xaa06f8a8b2cca42417cb06535a9cf976defd36b2b4bb273bf58d881b4c5e3472",
      "transactionIndex": "0x5f",
      "blockHash": "0x1058457a33150ebb65f9761a6a79ce490f77a2272a9aaf68d2754cd1e250a919",
      "blockNumber": "0x967f54",
      "gasUsed": "0x6d0e",
      "effectiveGasPrice": "0x134334009",
      "from": "0x8822f2965090ddc102f7de354dfd6e642c090269",
      "to": "0x000000000022d473030f116ddee9f6b43ac78ba3",
      "contractAddress": null
    },
    {
      "status": "0x1",
      "cumulativeGasUsed": "0x388ea74",
      "logs": [
        {
          "address": "0x429ba70129df741b2ca2a85bc3a2a3328e5c09b4",
          "topics": [
            "0xddf252ad1be2c89b69c2b068fc378daa952ba7f163c4a11628f55a4df523b3ef",
            "0x0000000000000000000000000000000000000000000000000000000000000000",
            "0x0000000000000000000000008822f2965090ddc102f7de354dfd6e642c090269",
            "0x00000000000000000000000000000000000000000000000000000000000054c4"
          ],
          "data": "0x",
          "blockHash": "0x1058457a33150ebb65f9761a6a79ce490f77a2272a9aaf68d2754cd1e250a919",
          "blockNumber": "0x967f54",
          "blockTimestamp": "0x69434490",
          "transactionHash": "0x37e4308de23c2cf7bf73cdaa1d5785a96ff83b1dd174dc32f589c22bfd19f325",
          "transactionIndex": "0x60",
          "logIndex": "0x784",
          "removed": false
        },
        {
          "address": "0xe03a1074c86cfedd5c142c4f04f1a1536e203543",
          "topics": [
            "0xf208f4912782fd25c7f114ca3723a2d5dd6f3bcc3ac8db5af63baa85f711d5ec",
            "0xb77cad2cd4b9af29c9083ab966f6c6ac1a3f5a497845a0e2567d88c6b9f48d17",
            "0x000000000000000000000000429ba70129df741b2ca2a85bc3a2a3328e5c09b4"
          ],
          "data": "0xfffffffffffffffffffffffffffffffffffffffffffffffffffffffffffffda80000000000000000000000000000000000000000000000000000000000000258000000000000000000000000000000000000000000000001d596f2cc56cdb16300000000000000000000000000000000000000000000000000000000000054c4",
          "blockHash": "0x1058457a33150ebb65f9761a6a79ce490f77a2272a9aaf68d2754cd1e250a919",
          "blockNumber": "0x967f54",
          "blockTimestamp": "0x69434490",
          "transactionHash": "0x37e4308de23c2cf7bf73cdaa1d5785a96ff83b1dd174dc32f589c22bfd19f325",
          "transactionIndex": "0x60",
          "logIndex": "0x785",
          "removed": false
        },
        {
          "address": "0x2794a0b7187bfcd81d2b6d05e8a6e6cae3f97ffa",
          "topics": [
            "0xddf252ad1be2c89b69c2b068fc378daa952ba7f163c4a11628f55a4df523b3ef",
            "0x0000000000000000000000008822f2965090ddc102f7de354dfd6e642c090269",
            "0x000000000000000000000000e03a1074c86cfedd5c142c4f04f1a1536e203543"
          ],
          "data": "0x0000000000000000000000000000000000000000000000000de0b6b3a7640000",
          "blockHash": "0x1058457a33150ebb65f9761a6a79ce490f77a2272a9aaf68d2754cd1e250a919",
          "blockNumber": "0x967f54",
          "blockTimestamp": "0x69434490",
          "transactionHash": "0x37e4308de23c2cf7bf73cdaa1d5785a96ff83b1dd174dc32f589c22bfd19f325",
          "transactionIndex": "0x60",
          "logIndex": "0x786",
          "removed": false
        },
        {
          "address": "0xea20820719c5ae04bce9a098e209f4d8c60daf06",
          "topics": [
            "0xddf252ad1be2c89b69c2b068fc378daa952ba7f163c4a11628f55a4df523b3ef",
            "0x0000000000000000000000008822f2965090ddc102f7de354dfd6e642c090269",
            "0x000000000000000000000000e03a1074c86cfedd5c142c4f04f1a1536e203543"
          ],
          "data": "0x0000000000000000000000000000000000000000000000000de0b6b3a7640000",
          "blockHash": "0x1058457a33150ebb65f9761a6a79ce490f77a2272a9aaf68d2754cd1e250a919",
          "blockNumber": "0x967f54",
          "blockTimestamp": "0x69434490",
          "transactionHash": "0x37e4308de23c2cf7bf73cdaa1d5785a96ff83b1dd174dc32f589c22bfd19f325",
          "transactionIndex": "0x60",
          "logIndex": "0x787",
          "removed": false
        }
      ],
      "logsBloom": "0x00200000000000000000001040000000000000000000000000000000080000000000000000000040080000000000000000080100000000000000000000000000000000000000000000000008000000000000000000000000000000000000000000010000020000000000000080000800000800000000100000000810000000000001008001000000000210000000000808008000000000000000000000000000000004000000000000000000400000000800000000400000000000000000000400000002000000000000000000000000000000000000000000001000000020001000000000000800000000000000000004000000000000000000000000000000",
      "type": "0x2",
      "transactionHash": "0x37e4308de23c2cf7bf73cdaa1d5785a96ff83b1dd174dc32f589c22bfd19f325",
      "transactionIndex": "0x60",
      "blockHash": "0x1058457a33150ebb65f9761a6a79ce490f77a2272a9aaf68d2754cd1e250a919",
      "blockNumber": "0x967f54",
      "gasUsed": "0x383e1",
      "effectiveGasPrice": "0x134334009",
      "from": "0x8822f2965090ddc102f7de354dfd6e642c090269",
      "to": "0x429ba70129df741b2ca2a85bc3a2a3328e5c09b4",
      "contractAddress": null
    }
  ],
  "libraries": [],
  "pending": [],
  "returns": {},
  "timestamp": 1766016144751,
  "chain": 11155111,
  "commit": "5f4773e"
}