{
  "transactions": [
    {
      "hash": "0x149519958cba414a574d089b7e58d81a0d46c1e3971c0fccc1813f13c7eec11c",
      "transactionType": "CALL",
      "contractName": null,
      "contractAddress": "0x2794a0b7187bfcd81d2b6d05e8a6e6cae3f97ffa",
      "function": "approve(address,uint256)",
      "arguments": [
        "0x000000000022D473030F116dDEE9F6B43aC78BA3",
        "115792089237316195423570985008687907853269984665640564039457584007913129639935"
      ],
      "transaction": {
        "from": "0x8822f2965090ddc102f7de354dfd6e642c090269",
        "to": "0x2794a0b7187bfcd81d2b6d05e8a6e6cae3f97ffa",
        "gas": "0x962f",
        "value": "0x0",
        "input": "0x095ea7b3000000000000000000000000000000000022d473030f116ddee9f6b43ac78ba3ffffffffffffffffffffffffffffffffffffffffffffffffffffffffffffffff",
        "nonce": "0x158",
        "chainId": "0xaa36a7"
      },
      "additionalContracts": [],
      "isFixedGasLimit": false
    },
    {
      "hash": "0x787424f14f261450e73002ce002d8074163a3b69624e52008a2c364718302715",
      "transactionType": "CALL",
      "contractName": null,
      "contractAddress": "0x000000000022d473030f116ddee9f6b43ac78ba3",
      "function": "approve(address,address,uint160,uint48)",
      "arguments": [
        "0x2794a0b7187BFCd81D2b6d05E8a6e6cAE3F97fFa",
        "0x429ba70129df741B2Ca2a85BC3A2a3328e5c09b4",
        "1461501637330902918203684832716283019655932542975",
        "281474976710655"
      ],
      "transaction": {
        "from": "0x8822f2965090ddc102f7de354dfd6e642c090269",
        "to": "0x000000000022d473030f116ddee9f6b43ac78ba3",
        "gas": "0x96a0",
        "value": "0x0",
        "input": "0x87517c450000000000000000000000002794a0b7187bfcd81d2b6d05e8a6e6cae3f97ffa000000000000000000000000429ba70129df741b2ca2a85bc3a2a3328e5c09b4000000000000000000000000ffffffffffffffffffffffffffffffffffffffff0000000000000000000000000000000000000000000000000000ffffffffffff",
        "nonce": "0x159",
        "chainId": "0xaa36a7"
      },
      "additionalContracts": [],
      "isFixedGasLimit": false
    },
    {
      "hash": "0x16fdc969fab2d451002673ffa7f95de296ffbe08432fe28cdffe0f61a46704eb",
      "transactionType": "CALL",
      "contractName": null,
      "contractAddress": "0xea20820719c5ae04bce9a098e209f4d8c60daf06",
      "function": "approve(address,uint256)",
      "arguments": [
        "0x000000000022D473030F116dDEE9F6B43aC78BA3",
        "115792089237316195423570985008687907853269984665640564039457584007913129639935"
      ],
      "transaction": {
        "from": "0x8822f2965090ddc102f7de354dfd6e642c090269",
        "to": "0xea20820719c5ae04bce9a098e209f4d8c60daf06",
        "gas": "0x962f",
        "value": "0x0",
        "input": "0x095ea7b3000000000000000000000000000000000022d473030f116ddee9f6b43ac78ba3ffffffffffffffffffffffffffffffffffffffffffffffffffffffffffffffff",
        "nonce": "0x15a",
        "chainId": "0xaa36a7"
      },
      "additionalContracts": [],
      "isFixedGasLimit": false
    },
    {
      "hash": "0x9c15f56988b9efd6c362b999f620712c41ea0257a4654a9cffb8c91e2dbf09d1",
      "transactionType": "CALL",
      "contractName": null,
      "contractAddress": "0x000000000022d473030f116ddee9f6b43ac78ba3",
      "function": "approve(address,address,uint160,uint48)",
      "arguments": [
        "0xEa20820719c5Ae04Bce9A098E209f4d8C60DAF06",
        "0x429ba70129df741B2Ca2a85BC3A2a3328e5c09b4",
        "1461501637330902918203684832716283019655932542975",
        "281474976710655"
      ],
      "transaction": {
        "from": "0x8822f2965090ddc102f7de354dfd6e642c090269",
        "to": "0x000000000022d473030f116ddee9f6b43ac78ba3",
        "gas": "0x96a0",
        "value": "0x0",
        "input": "0x87517c45000000000000000000000000ea20820719c5ae04bce9a098e209f4d8c60daf06000000000000000000000000429ba70129df741b2ca2a85bc3a2a3328e5c09b4000000000000000000000000ffffffffffffffffffffffffffffffffffffffff0000000000000000000000000000000000000000000000000000ffffffffffff",
        "nonce": "0x15b",
        "chainId": "0xaa36a7"
      },
      "additionalContracts": [],
      "isFixedGasLimit": false
    },
    {
      "hash": "0x2e11a3a2ecd3549fbde71e6d2df66709457bc52ce6bfad0b2a2cff24d2f1d838",
      "transactionType": "CALL",
      "contractName": null,
      "contractAddress": "0x429ba70129df741b2ca2a85bc3a2a3328e5c09b4",
      "function": "modifyLiquidities(bytes,uint256)",
      "arguments": [
        "0x000000000000000000000000000000000000000000000000000000000000004000000000000000000000000000000000000000000000000000000000000000800000000000000000000000000000000000000000000000000000000000000002020d00000000000000000000000000000000000000000000000000000000000000000000000000000000000000000000000000000000000000000000000000020000000000000000000000000000000000000000000000000000000000000040000000000000000000000000000000000000000000000000000000000000020000000000000000000000000000000000000000000000000000000000000001a00000000000000000000000002794a0b7187bfcd81d2b6d05e8a6e6cae3f97ffa000000000000000000000000ea20820719c5ae04bce9a098e209f4d8c60daf060000000000000000000000000000000000000000000000000000000000000bb8000000000000000000000000000000000000000000000000000000000000003c00000000000000000000000017eeca526800bacef061d22105dc2e14f05b0ac0fffffffffffffffffffffffffffffffffffffffffffffffffffffffffffffda80000000000000000000000000000000000000000000000000000000000000258000000000000000000000000000000000000000000000001d596f2cc56cdb1630000000000000000000000000000000000000000000000000de0b6b3a76400010000000000000000000000000000000000000000000000000de0b6b3a76400010000000000000000000000008822f2965090ddc102f7de354dfd6e642c0902690000000000000000000000000000000000000000000000000000000000000180000000000000000000000000000000000000000000000000000000000000000000000000000000000000000000000000000000000000000000000000000000400000000000000000000000002794a0b7187bfcd81d2b6d05e8a6e6cae3f97ffa000000000000000000000000ea20820719c5ae04bce9a098e209f4d8c60daf06",
        "1769108424"
      ],
      "transaction": {
        "from": "0x8822f2965090ddc102f7de354dfd6e642c090269",
        "to": "0x429ba70129df741b2ca2a85bc3a2a3328e5c09b4",
        "gas": "0x4dae4",
        "value": "0x0",
        "input": "0xdd46508f000000000000000000000000000000000000000000000000000000000000004000000000000000000000000000000000000000000000000000000000697273c80000000000000000000000000000000000000000000000000000000000000300000000000000000000000000000000000000000000000000000000000000004000000000000000000000000000000000000000000000000000000000000000800000000000000000000000000000000000000000000000000000000000000002020d00000000000000000000000000000000000000000000000000000000000000000000000000000000000000000000000000000000000000000000000000020000000000000000000000000000000000000000000000000000000000000040000000000000000000000000000000000000000000000000000000000000020000000000000000000000000000000000000000000000000000000000000001a00000000000000000000000002794a0b7187bfcd81d2b6d05e8a6e6cae3f97ffa000000000000000000000000ea20820719c5ae04bce9a098e209f4d8c60daf060000000000000000000000000000000000000000000000000000000000000bb8000000000000000000000000000000000000000000000000000000000000003c00000000000000000000000017eeca526800bacef061d22105dc2e14f05b0ac0fffffffffffffffffffffffffffffffffffffffffffffffffffffffffffffda80000000000000000000000000000000000000000000000000000000000000258000000000000000000000000000000000000000000000001d596f2cc56cdb1630000000000000000000000000000000000000000000000000de0b6b3a76400010000000000000000000000000000000000000000000000000de0b6b3a76400010000000000000000000000008822f2965090ddc102f7de354dfd6e642c0902690000000000000000000000000000000000000000000000000000000000000180000000000000000000000000000000000000000000000000000000000000000000000000000000000000000000000000000000000000000000000000000000400000000000000000000000002794a0b7187bfcd81d2b6d05e8a6e6cae3f97ffa000000000000000000000000ea20820719c5ae04bce9a098e209f4d8c60daf06",
        "nonce": "0x15c",
        "chainId": "0xaa36a7"
      },
      "additionalContracts": [],
      "isFixedGasLimit": false
    }
  ],
  "receipts": [
    {
      "status": "0x1",
      "cumulativeGasUsed": "0x2f059c",
      "logs": [
        {
          "address": "0x2794a0b7187bfcd81d2b6d05e8a6e6cae3f97ffa",
          "topics": [
            "0x8c5be1e5ebec7d5bd14f71427d1e84f3dd0314c0f7b2291e5b200ac8c7c3b925",
            "0x0000000000000000000000008822f2965090ddc102f7de354dfd6e642c090269",
            "0x000000000000000000000000000000000022d473030f116ddee9f6b43ac78ba3"
          ],
          "data": "0xffffffffffffffffffffffffffffffffffffffffffffffffffffffffffffffff",
          "blockHash": "0xfed865fdf8331fbd00daf9721842ef2a449d99048a11700848fd847ecdaf8d63",
          "blockNumber": "0x9a1ff1",
          "blockTimestamp": "0x697273b0",
          "transactionHash": "0x149519958cba414a574d089b7e58d81a0d46c1e3971c0fccc1813f13c7eec11c",
          "transactionIndex": "0x23",
          "logIndex": "0x24",
          "removed": false
        }
      ],
      "logsBloom": "0x00200000000000000000000000000000000000000000000000000000000000000000000000000000000000000000000000000000800000000000000000200000000000000000000000004000000000000000000000000800000000000000000000000000000000000000000000000000000000000000000000000000000000000000008000000000000000000000000008000000000000000000000000000000020000000000000000000000000000000800000000000000000000000000000400000000000000000000000000000000000000000000000000000000000000000010000000000800000000000000000000000000000000000000000000000000",
      "type": "0x2",
      "transactionHash": "0x149519958cba414a574d089b7e58d81a0d46c1e3971c0fccc1813f13c7eec11c",
      "transactionIndex": "0x23",
      "blockHash": "0xfed865fdf8331fbd00daf9721842ef2a449d99048a11700848fd847ecdaf8d63",
      "blockNumber": "0x9a1ff1",
      "gasUsed": "0x66b1",
      "effectiveGasPrice": "0x3bfe8db4",
      "from": "0x8822f2965090ddc102f7de354dfd6e642c090269",
      "to": "0x2794a0b7187bfcd81d2b6d05e8a6e6cae3f97ffa",
      "contractAddress": null
    },
    {
      "status": "0x1",
      "cumulativeGasUsed": "0x2f72aa",
      "logs": [
        {
          "address": "0x000000000022d473030f116ddee9f6b43ac78ba3",
          "topics": [
            "0xda9fa7c1b00402c17d0161b249b1ab8bbec047c5a52207b9c112deffd817036b",
            "0x0000000000000000000000008822f2965090ddc102f7de354dfd6e642c090269",
            "0x0000000000000000000000002794a0b7187bfcd81d2b6d05e8a6e6cae3f97ffa",
            "0x000000000000000000000000429ba70129df741b2ca2a85bc3a2a3328e5c09b4"
          ],
          "data": "0x000000000000000000000000ffffffffffffffffffffffffffffffffffffffff0000000000000000000000000000000000000000000000000000ffffffffffff",
          "blockHash": "0xfed865fdf8331fbd00daf9721842ef2a449d99048a11700848fd847ecdaf8d63",
          "blockNumber": "0x9a1ff1",
          "blockTimestamp": "0x697273b0",
          "transactionHash": "0x787424f14f261450e73002ce002d8074163a3b69624e52008a2c364718302715",
          "transactionIndex": "0x24",
          "logIndex": "0x25",
          "removed": false
        }
      ],
      "logsBloom": "0x00210000000000000000000100000000000000000000000000000000000000000000800000000040080000000000000000000000000000000000000000080000000000000000000000000000000000000000001000000000000000000000000000000000000000000000000000000000000000000000000000000800000000000020008000000000000000000000000000000000000000000000000000000000000000000000000000000000000000000800000000000000000000080000000000000000000000000000000000000000000000000000000040000000000000000000000000000000000000000000000000000000000000000000000000000400",
      "type": "0x2",
      "transactionHash": "0x787424f14f261450e73002ce002d8074163a3b69624e52008a2c364718302715",
      "transactionIndex": "0x24",
      "blockHash": "0xfed865fdf8331fbd00daf9721842ef2a449d99048a11700848fd847ecdaf8d63",
      "blockNumber": "0x9a1ff1",
      "gasUsed": "0x6d0e",
      "effectiveGasPrice": "0x3bfe8db4",
      "from": "0x8822f2965090ddc102f7de354dfd6e642c090269",
      "to": "0x000000000022d473030f116ddee9f6b43ac78ba3",
      "contractAddress": null
    },
    {
      "status": "0x1",
      "cumulativeGasUsed": "0x2fd95b",
      "logs": [
        {
          "address": "0xea20820719c5ae04bce9a098e209f4d8c60daf06",
          "topics": [
            "0x8c5be1e5ebec7d5bd14f71427d1e84f3dd0314c0f7b2291e5b200ac8c7c3b925",
            "0x0000000000000000000000008822f2965090ddc102f7de354dfd6e642c090269",
            "0x000000000000000000000000000000000022d473030f116ddee9f6b43ac78ba3"
          ],
          "data": "0xffffffffffffffffffffffffffffffffffffffffffffffffffffffffffffffff",
          "blockHash": "0xfed865fdf8331fbd00daf9721842ef2a449d99048a11700848fd847ecdaf8d63",
          "blockNumber": "0x9a1ff1",
          "blockTimestamp": "0x697273b0",
          "transactionHash": "0x16fdc969fab2d451002673ffa7f95de296ffbe08432fe28cdffe0f61a46704eb",
          "transactionIndex": "0x25",
          "logIndex": "0x26",
          "removed": false
        }
      ],
      "logsBloom": "0x00200000000000000000000000000000000000000000000000000000000000000000000000000000000000000000000000000000800000000000000000200000000000000000000000004000000000000000000000000800000000000000000000000000000000000000000000000000000000000000000000000000000000000000008000000000000200000000000800008000000000000000000000000000020000000000000000000000000000000800000000000000000000000000000000000000000000000000000000000000000000000000000000000000000000000010000000000000000000000000000000000000000000000000000000000000",
      "type": "0x2",
      "transactionHash": "0x16fdc969fab2d451002673ffa7f95de296ffbe08432fe28cdffe0f61a46704eb",
      "transactionIndex": "0x25",
      "blockHash": "0xfed865fdf8331fbd00daf9721842ef2a449d99048a11700848fd847ecdaf8d63",
      "blockNumber": "0x9a1ff1",
      "gasUsed": "0x66b1",
      "effectiveGasPrice": "0x3bfe8db4",
      "from": "0x8822f2965090ddc102f7de354dfd6e642c090269",
      "to": "0xea20820719c5ae04bce9a098e209f4d8c60daf06",
      "contractAddress": null
    },
    {
      "status": "0x1",
      "cumulativeGasUsed": "0x304669",
      "logs": [
        {
          "address": "0x000000000022d473030f116ddee9f6b43ac78ba3",
          "topics": [
            "0xda9fa7c1b00402c17d0161b249b1ab8bbec047c5a52207b9c112deffd817036b",
            "0x0000000000000000000000008822f2965090ddc102f7de354dfd6e642c090269",
            "0x000000000000000000000000ea20820719c5ae04bce9a098e209f4d8c60daf06",
            "0x000000000000000000000000429ba70129df741b2ca2a85bc3a2a3328e5c09b4"
          ],
          "data": "0x000000000000000000000000ffffffffffffffffffffffffffffffffffffffff0000000000000000000000000000000000000000000000000000ffffffffffff",
          "blockHash": "0xfed865fdf8331fbd00daf9721842ef2a449d99048a11700848fd847ecdaf8d63",
          "blockNumber": "0x9a1ff1",
          "blockTimestamp": "0x697273b0",
          "transactionHash": "0x9c15f56988b9efd6c362b999f620712c41ea0257a4654a9cffb8c91e2dbf09d1",
          "transactionIndex": "0x26",
          "logIndex": "0x27",
          "removed": false
        }
      ],
      "logsBloom": "0x00210000000000000000000000000000000000000000000000000000000000000000000000000040080000000000000000000000000000000000000000080000000000000000000000000000000000000000000000000000000000000000000000000000000000008000000000000000000000000000000000000800000000000020008000000000000000000000000000000000000000000000000000000000000000000000000000000000000000000800000000000200000000080000000000000000000000000000000000000000000000000000000040000000000000000000000000000000000000000000000000040000000000000000000000000400",
      "type": "0x2",
      "transactionHash": "0x9c15f56988b9efd6c362b999f620712c41ea0257a4654a9cffb8c91e2dbf09d1",
      "transactionIndex": "0x26",
      "blockHash": "0xfed865fdf8331fbd00daf9721842ef2a449d99048a11700848fd847ecdaf8d63",
      "blockNumber": "0x9a1ff1",
      "gasUsed": "0x6d0e",
      "effectiveGasPrice": "0x3bfe8db4",
      "from": "0x8822f2965090ddc102f7de354dfd6e642c090269",
      "to": "0x000000000022d473030f116ddee9f6b43ac78ba3",
      "contractAddress": null
    },
    {
      "status": "0x1",
      "cumulativeGasUsed": "0x33ca3e",
      "logs": [
        {
          "address": "0x429ba70129df741b2ca2a85bc3a2a3328e5c09b4",
          "topics": [
            "0xddf252ad1be2c89b69c2b068fc378daa952ba7f163c4a11628f55a4df523b3ef",
            "0x0000000000000000000000000000000000000000000000000000000000000000",
            "0x0000000000000000000000008822f2965090ddc102f7de354dfd6e642c090269",
            "0x00000000000000000000000000000000000000000000000000000000000057ea"
          ],
          "data": "0x",
          "blockHash": "0xfed865fdf8331fbd00daf9721842ef2a449d99048a11700848fd847ecdaf8d63",
          "blockNumber": "0x9a1ff1",
          "blockTimestamp": "0x697273b0",
          "transactionHash": "0x2e11a3a2ecd3549fbde71e6d2df66709457bc52ce6bfad0b2a2cff24d2f1d838",
          "transactionIndex": "0x27",
          "logIndex": "0x28",
          "removed": false
        },
        {
          "address": "0xe03a1074c86cfedd5c142c4f04f1a1536e203543",
          "topics": [
            "0xf208f4912782fd25c7f114ca3723a2d5dd6f3bcc3ac8db5af63baa85f711d5ec",
            "0xfd4e2f97cb12b50b6eaa1cb35b297ca2c5d3a01702df1a207f93fd9839569d00",
            "0x000000000000000000000000429ba70129df741b2ca2a85bc3a2a3328e5c09b4"
          ],
          "data": "0xfffffffffffffffffffffffffffffffffffffffffffffffffffffffffffffda80000000000000000000000000000000000000000000000000000000000000258000000000000000000000000000000000000000000000001d596f2cc56cdb16300000000000000000000000000000000000000000000000000000000000057ea",
          "blockHash": "0xfed865fdf8331fbd00daf9721842ef2a449d99048a11700848fd847ecdaf8d63",
          "blockNumber": "0x9a1ff1",
          "blockTimestamp": "0x697273b0",
          "transactionHash": "0x2e11a3a2ecd3549fbde71e6d2df66709457bc52ce6bfad0b2a2cff24d2f1d838",
          "transactionIndex": "0x27",
          "logIndex": "0x29",
          "removed": false
        },
        {
          "address": "0x2794a0b7187bfcd81d2b6d05e8a6e6cae3f97ffa",
          "topics": [
            "0xddf252ad1be2c89b69c2b068fc378daa952ba7f163c4a11628f55a4df523b3ef",
            "0x0000000000000000000000008822f2965090ddc102f7de354dfd6e642c090269",
            "0x000000000000000000000000e03a1074c86cfedd5c142c4f04f1a1536e203543"
          ],
          "data": "0x0000000000000000000000000000000000000000000000000de0b6b3a7640000",
          "blockHash": "0xfed865fdf8331fbd00daf9721842ef2a449d99048a11700848fd847ecdaf8d63",
          "blockNumber": "0x9a1ff1",
          "blockTimestamp": "0x697273b0",
          "transactionHash": "0x2e11a3a2ecd3549fbde71e6d2df66709457bc52ce6bfad0b2a2cff24d2f1d838",
          "transactionIndex": "0x27",
          "logIndex": "0x2a",
          "removed": false
        },
        {
          "address": "0xea20820719c5ae04bce9a098e209f4d8c60daf06",
          "topics": [
            "0xddf252ad1be2c89b69c2b068fc378daa952ba7f163c4a11628f55a4df523b3ef",
            "0x0000000000000000000000008822f2965090ddc102f7de354dfd6e642c090269",
            "0x000000000000000000000000e03a1074c86cfedd5c142c4f04f1a1536e203543"
          ],
          "data": "0x0000000000000000000000000000000000000000000000000de0b6b3a7640000",
          "blockHash": "0xfed865fdf8331fbd00daf9721842ef2a449d99048a11700848fd847ecdaf8d63",
          "blockNumber": "0x9a1ff1",
          "blockTimestamp": "0x697273b0",
          "transactionHash": "0x2e11a3a2ecd3549fbde71e6d2df66709457bc52ce6bfad0b2a2cff24d2f1d838",
          "transactionIndex": "0x27",
          "logIndex": "0x2b",
          "removed": false
        }
      ],
      "logsBloom": "0x00200000000000000000001000000000000000000000000000001000080000000000000000000040080000000000000000000100000000000000000000000000800000000000000000000008000000000000001000000000000000000000200000000008020000000000000080020800000000000000100000000810000000000000008001000000000210000000000808008000000000000000000000000000000004000000000000000000000000000800000000400000000000000000000400000002000000000000000000000000000000000000000000001000000020001000000000000800000000000000000004000000000000000000000000000000",
      "type": "0x2",
      "transactionHash": "0x2e11a3a2ecd3549fbde71e6d2df66709457bc52ce6bfad0b2a2cff24d2f1d838",
      "transactionIndex": "0x27",
      "blockHash": "0xfed865fdf8331fbd00daf9721842ef2a449d99048a11700848fd847ecdaf8d63",
      "blockNumber": "0x9a1ff1",
      "gasUsed": "0x383d5",
      "effectiveGasPrice": "0x3bfe8db4",
      "from": "0x8822f2965090ddc102f7de354dfd6e642c090269",
      "to": "0x429ba70129df741b2ca2a85bc3a2a3328e5c09b4",
      "contractAddress": null
    }
  ],
  "libraries": [],
  "pending": [],
  "returns": {},
  "timestamp": 1769108401873,
  "chain": 11155111,
  "commit": "432d420"
}