{
  "transactions": [
    {
      "hash": "0x32d12471b29d1845deedf4f430db8c095b0fb798830546d1216b642ae4e393f8",
      "transactionType": "CALL",
      "contractName": null,
      "contractAddress": "0x2794a0b7187bfcd81d2b6d05e8a6e6cae3f97ffa",
      "function": "mint(address,uint256)",
      "arguments": [
        "0x8822F2965090Ddc102F7de354dfd6E642C090269",
        "10000000000000000000"
      ],
      "transaction": {
        "from": "0x8822f2965090ddc102f7de354dfd6e642c090269",
        "to": "0x2794a0b7187bfcd81d2b6d05e8a6e6cae3f97ffa",
        "gas": "0xc1d6",
        "value": "0x0",
        "input": "0x40c10f190000000000000000000000008822f2965090ddc102f7de354dfd6e642c0902690000000000000000000000000000000000000000000000008ac7230489e80000",
        "nonce": "0x7b",
        "chainId": "0xaa36a7"
      },
      "additionalContracts": [],
      "isFixedGasLimit": false
    },
    {
      "hash": "0x20e7a75480252b4e2121d804bdf60f59fc26f1a9575f0dc55c1e9699c9dab248",
      "transactionType": "CALL",
      "contractName": null,
      "contractAddress": "0xea20820719c5ae04bce9a098e209f4d8c60daf06",
      "function": "mint(address,uint256)",
      "arguments": [
        "0x8822F2965090Ddc102F7de354dfd6E642C090269",
        "10000000000000000000"
      ],
      "transaction": {
        "from": "0x8822f2965090ddc102f7de354dfd6e642c090269",
        "to": "0xea20820719c5ae04bce9a098e209f4d8c60daf06",
        "gas": "0xc1d6",
        "value": "0x0",
        "input": "0x40c10f190000000000000000000000008822f2965090ddc102f7de354dfd6e642c0902690000000000000000000000000000000000000000000000008ac7230489e80000",
        "nonce": "0x7c",
        "chainId": "0xaa36a7"
      },
      "additionalContracts": [],
      "isFixedGasLimit": false
    }
  ],
  "receipts": [
    {
      "status": "0x1",
      "cumulativeGasUsed": "0x579c5b",
      "logs": [
        {
          "address": "0x2794a0b7187bfcd81d2b6d05e8a6e6cae3f97ffa",
          "topics": [
            "0xddf252ad1be2c89b69c2b068fc378daa952ba7f163c4a11628f55a4df523b3ef",
            "0x0000000000000000000000000000000000000000000000000000000000000000",
            "0x0000000000000000000000008822f2965090ddc102f7de354dfd6e642c090269"
          ],
          "data": "0x0000000000000000000000000000000000000000000000008ac7230489e80000",
          "blockHash": "0x38e1f3edb513ab9277f32e6bca0304b3c6d366e7d50ae5aebc59b6bac58d07b8",
          "blockNumber": "0x93388a",
          "blockTimestamp": "0x691b0d38",
          "transactionHash": "0x32d12471b29d1845deedf4f430db8c095b0fb798830546d1216b642ae4e393f8",
          "transactionIndex": "0x2f",
          "logIndex": "0x60",
          "removed": false
        }
      ],
      "logsBloom": "0x00200000000000000000000000000000000000000000000000000000000000000000000000000000000000000000000000000000000000000000000000000000000000000000000000000008000000000000000000000000000000000000000000000000020000000000000000000800000000000000000000000010000000000000008000000000000000000000000008000000000000000000000000000000000000000000000000000000000000000800000000000000000000000000000400000002000000000000000000000000000000000000000000000000000020000000000000000800000000000000000000000000000000000000000000000000",
      "type": "0x2",
      "transactionHash": "0x32d12471b29d1845deedf4f430db8c095b0fb798830546d1216b642ae4e393f8",
      "transactionIndex": "0x2f",
      "blockHash": "0x38e1f3edb513ab9277f32e6bca0304b3c6d366e7d50ae5aebc59b6bac58d07b8",
      "blockNumber": "0x93388a",
      "gasUsed": "0x848a",
      "effectiveGasPrice": "0x124f84",
      "from": "0x8822f2965090ddc102f7de354dfd6e642c090269",
      "to": "0x2794a0b7187bfcd81d2b6d05e8a6e6cae3f97ffa",
      "contractAddress": null
    },
    {
      "status": "0x1",
      "cumulativeGasUsed": "0x5820e5",
      "logs": [
        {
          "address": "0xea20820719c5ae04bce9a098e209f4d8c60daf06",
          "topics": [
            "0xddf252ad1be2c89b69c2b068fc378daa952ba7f163c4a11628f55a4df523b3ef",
            "0x0000000000000000000000000000000000000000000000000000000000000000",
            "0x0000000000000000000000008822f2965090ddc102f7de354dfd6e642c090269"
          ],
          "data": "0x0000000000000000000000000000000000000000000000008ac7230489e80000",
          "blockHash": "0x38e1f3edb513ab9277f32e6bca0304b3c6d366e7d50ae5aebc59b6bac58d07b8",
          "blockNumber": "0x93388a",
          "blockTimestamp": "0x691b0d38",
          "transactionHash": "0x20e7a75480252b4e2121d804bdf60f59fc26f1a9575f0dc55c1e9699c9dab248",
          "transactionIndex": "0x30",
          "logIndex": "0x61",
          "removed": false
        }
      ],
      "logsBloom": "0x00200000000000000000000000000000000000000000000000000000000000000000000000000000000000000000000000000000000000000000000000000000000000000000000000000008000000000000000000000000000000000000000000000000020000000000000000000800000000000000000000000010000000000000008000000000000200000000000800008000000000000000000000000000000000000000000000000000000000000800000000000000000000000000000000000002000000000000000000000000000000000000000000000000000020000000000000000000000000000000000000000000000000000000000000000000",
      "type": "0x2",
      "transactionHash": "0x20e7a75480252b4e2121d804bdf60f59fc26f1a9575f0dc55c1e9699c9dab248",
      "transactionIndex": "0x30",
      "blockHash": "0x38e1f3edb513ab9277f32e6bca0304b3c6d366e7d50ae5aebc59b6bac58d07b8",
      "blockNumber": "0x93388a",
      "gasUsed": "0x848a",
      "effectiveGasPrice": "0x124f84",
      "from": "0x8822f2965090ddc102f7de354dfd6e642c090269",
      "to": "0xea20820719c5ae04bce9a098e209f4d8c60daf06",
      "contractAddress": null
    }
  ],
  "libraries": [],
  "pending": [],
  "returns": {},
  "timestamp": 1763380538067,
  "chain": 11155111,
  "commit": "5f4773e"
}