{
  "transactions": [
    {
      "hash": "0x60336d029235ea92eab8dc1175f73d770b04fe72726aafac943a8912c8b8debe",
      "transactionType": "CALL",
      "contractName": null,
      "contractAddress": "0x2794a0b7187bfcd81d2b6d05e8a6e6cae3f97ffa",
      "function": "approve(address,uint256)",
      "arguments": [
        "0x000000000022D473030F116dDEE9F6B43aC78BA3",
        "115792089237316195423570985008687907853269984665640564039457584007913129639935"
      ],
      "transaction": {
        "from": "0x8822f2965090ddc102f7de354dfd6e642c090269",
        "to": "0x2794a0b7187bfcd81d2b6d05e8a6e6cae3f97ffa",
        "gas": "0x962f",
        "value": "0x0",
        "input": "0x095ea7b3000000000000000000000000000000000022d473030f116ddee9f6b43ac78ba3ffffffffffffffffffffffffffffffffffffffffffffffffffffffffffffffff",
        "nonce": "0x88",
        "chainId": "0xaa36a7"
      },
      "additionalContracts": [],
      "isFixedGasLimit": false
    },
    {
      "hash": "0x568533ad424b56559fc7f015c13e92616e8b83ed5f4dd605516310e52fdafd25",
      "transactionType": "CALL",
      "contractName": null,
      "contractAddress": "0x000000000022d473030f116ddee9f6b43ac78ba3",
      "function": "approve(address,address,uint160,uint48)",
      "arguments": [
        "0x2794a0b7187BFCd81D2b6d05E8a6e6cAE3F97fFa",
        "0x429ba70129df741B2Ca2a85BC3A2a3328e5c09b4",
        "1461501637330902918203684832716283019655932542975",
        "281474976710655"
      ],
      "transaction": {
        "from": "0x8822f2965090ddc102f7de354dfd6e642c090269",
        "to": "0x000000000022d473030f116ddee9f6b43ac78ba3",
        "gas": "0x96a0",
        "value": "0x0",
        "input": "0x87517c450000000000000000000000002794a0b7187bfcd81d2b6d05e8a6e6cae3f97ffa000000000000000000000000429ba70129df741b2ca2a85bc3a2a3328e5c09b4000000000000000000000000ffffffffffffffffffffffffffffffffffffffff0000000000000000000000000000000000000000000000000000ffffffffffff",
        "nonce": "0x89",
        "chainId": "0xaa36a7"
      },
      "additionalContracts": [],
      "isFixedGasLimit": false
    },
    {
      "hash": "0x6e63bef273ea0a4d8cf6fbae2a1fc77671853319addea6c62aff7d7c30a206d2",
      "transactionType": "CALL",
      "contractName": null,
      "contractAddress": "0xea20820719c5ae04bce9a098e209f4d8c60daf06",
      "function": "approve(address,uint256)",
      "arguments": [
        "0x000000000022D473030F116dDEE9F6B43aC78BA3",
        "115792089237316195423570985008687907853269984665640564039457584007913129639935"
      ],
      "transaction": {
        "from": "0x8822f2965090ddc102f7de354dfd6e642c090269",
        "to": "0xea20820719c5ae04bce9a098e209f4d8c60daf06",
        "gas": "0x962f",
        "value": "0x0",
        "input": "0x095ea7b3000000000000000000000000000000000022d473030f116ddee9f6b43ac78ba3ffffffffffffffffffffffffffffffffffffffffffffffffffffffffffffffff",
        "nonce": "0x8a",
        "chainId": "0xaa36a7"
      },
      "additionalContracts": [],
      "isFixedGasLimit": false
    },
    {
      "hash": "0x480983e86066d07d43844d63c3eaba15c2263dff77e4985eecab2e37e40801b4",
      "transactionType": "CALL",
      "contractName": null,
      "contractAddress": "0x000000000022d473030f116ddee9f6b43ac78ba3",
      "function": "approve(address,address,uint160,uint48)",
      "arguments": [
        "0xEa20820719c5Ae04Bce9A098E209f4d8C60DAF06",
        "0x429ba70129df741B2Ca2a85BC3A2a3328e5c09b4",
        "1461501637330902918203684832716283019655932542975",
        "281474976710655"
      ],
      "transaction": {
        "from": "0x8822f2965090ddc102f7de354dfd6e642c090269",
        "to": "0x000000000022d473030f116ddee9f6b43ac78ba3",
        "gas": "0x96a0",
        "value": "0x0",
        "input": "0x87517c45000000000000000000000000ea20820719c5ae04bce9a098e209f4d8c60daf06000000000000000000000000429ba70129df741b2ca2a85bc3a2a3328e5c09b4000000000000000000000000ffffffffffffffffffffffffffffffffffffffff0000000000000000000000000000000000000000000000000000ffffffffffff",
        "nonce": "0x8b",
        "chainId": "0xaa36a7"
      },
      "additionalContracts": [],
      "isFixedGasLimit": false
    },
    {
      "hash": "0xcfbfea4b9b98839c33c0c29c25a4c939e583b20a47c37a51435e5bd235403ad5",
      "transactionType": "CALL",
      "contractName": null,
      "contractAddress": "0x429ba70129df741b2ca2a85bc3a2a3328e5c09b4",
      "function": "multicall(bytes[])",
      "arguments": [
        "[0xf70204050000000000000000000000002794a0b7187bfcd81d2b6d05e8a6e6cae3f97ffa000000000000000000000000ea20820719c5ae04bce9a098e209f4d8c60daf060000000000000000000000000000000000000000000000000000000000000bb8000000000000000000000000000000000000000000000000000000000000003c000000000000000000000000f32176095256b0d2dea938fd11cd3126251ccac0000000000000000000000000000000000000000100000000000000000000000000000000000000000000000000000000000000000000000000000000000000e00000000000000000000000000000000000000000000000000000000000000000, 0xdd46508f000000000000000000000000000000000000000000000000000000000000004000000000000000000000000000000000000000000000000000000000691bb8c80000000000000000000000000000000000000000000000000000000000000300000000000000000000000000000000000000000000000000000000000000004000000000000000000000000000000000000000000000000000000000000000800000000000000000000000000000000000000000000000000000000000000002020d00000000000000000000000000000000000000000000000000000000000000000000000000000000000000000000000000000000000000000000000000020000000000000000000000000000000000000000000000000000000000000040000000000000000000000000000000000000000000000000000000000000020000000000000000000000000000000000000000000000000000000000000001a00000000000000000000000002794a0b7187bfcd81d2b6d05e8a6e6cae3f97ffa000000000000000000000000ea20820719c5ae04bce9a098e209f4d8c60daf060000000000000000000000000000000000000000000000000000000000000bb8000000000000000000000000000000000000000000000000000000000000003c000000000000000000000000f32176095256b0d2dea938fd11cd3126251ccac0fffffffffffffffffffffffffffffffffffffffffffffffffffffffffffffda80000000000000000000000000000000000000000000000000000000000000258000000000000000000000000000000000000000000000001d596f2cc56cdb1630000000000000000000000000000000000000000000000000de0b6b3a76400010000000000000000000000000000000000000000000000000de0b6b3a76400010000000000000000000000008822f2965090ddc102f7de354dfd6e642c0902690000000000000000000000000000000000000000000000000000000000000180000000000000000000000000000000000000000000000000000000000000000000000000000000000000000000000000000000000000000000000000000000400000000000000000000000002794a0b7187bfcd81d2b6d05e8a6e6cae3f97ffa000000000000000000000000ea20820719c5ae04bce9a098e209f4d8c60daf06]"
      ],
      "transaction": {
        "from": "0x8822f2965090ddc102f7de354dfd6e642c090269",
        "to": "0x429ba70129df741b2ca2a85bc3a2a3328e5c09b4",
        "gas": "0x907a3",
        "value": "0x0",
        "input": "0xac9650d800000000000000000000000000000000000000000000000000000000000000200000000000000000000000000000000000000000000000000000000000000002000000000000000000000000000000000000000000000000000000000000004000000000000000000000000000000000000000000000000000000000000001800000000000000000000000000000000000000000000000000000000000000104f70204050000000000000000000000002794a0b7187bfcd81d2b6d05e8a6e6cae3f97ffa000000000000000000000000ea20820719c5ae04bce9a098e209f4d8c60daf060000000000000000000000000000000000000000000000000000000000000bb8000000000000000000000000000000000000000000000000000000000000003c000000000000000000000000f32176095256b0d2dea938fd11cd3126251ccac0000000000000000000000000000000000000000100000000000000000000000000000000000000000000000000000000000000000000000000000000000000e00000000000000000000000000000000000000000000000000000000000000000000000000000000000000000000000000000000000000000000000000000000000000000000000000000000000000000000000000000000000000364dd46508f000000000000000000000000000000000000000000000000000000000000004000000000000000000000000000000000000000000000000000000000691bb8c80000000000000000000000000000000000000000000000000000000000000300000000000000000000000000000000000000000000000000000000000000004000000000000000000000000000000000000000000000000000000000000000800000000000000000000000000000000000000000000000000000000000000002020d00000000000000000000000000000000000000000000000000000000000000000000000000000000000000000000000000000000000000000000000000020000000000000000000000000000000000000000000000000000000000000040000000000000000000000000000000000000000000000000000000000000020000000000000000000000000000000000000000000000000000000000000001a00000000000000000000000002794a0b7187bfcd81d2b6d05e8a6e6cae3f97ffa000000000000000000000000ea20820719c5ae04bce9a098e209f4d8c60daf060000000000000000000000000000000000000000000000000000000000000bb8000000000000000000000000000000000000000000000000000000000000003c000000000000000000000000f32176095256b0d2dea938fd11cd3126251ccac0fffffffffffffffffffffffffffffffffffffffffffffffffffffffffffffda80000000000000000000000000000000000000000000000000000000000000258000000000000000000000000000000000000000000000001d596f2cc56cdb1630000000000000000000000000000000000000000000000000de0b6b3a76400010000000000000000000000000000000000000000000000000de0b6b3a76400010000000000000000000000008822f2965090ddc102f7de354dfd6e642c0902690000000000000000000000000000000000000000000000000000000000000180000000000000000000000000000000000000000000000000000000000000000000000000000000000000000000000000000000000000000000000000000000400000000000000000000000002794a0b7187bfcd81d2b6d05e8a6e6cae3f97ffa000000000000000000000000ea20820719c5ae04bce9a098e209f4d8c60daf0600000000000000000000000000000000000000000000000000000000",
        "nonce": "0x8c",
        "chainId": "0xaa36a7"
      },
      "additionalContracts": [],
      "isFixedGasLimit": false
    }
  ],
  "receipts": [
    {
      "status": "0x1",
      "cumulativeGasUsed": "0x6cc3c1",
      "logs": [
        {
          "address": "0x2794a0b7187bfcd81d2b6d05e8a6e6cae3f97ffa",
          "topics": [
            "0x8c5be1e5ebec7d5bd14f71427d1e84f3dd0314c0f7b2291e5b200ac8c7c3b925",
            "0x0000000000000000000000008822f2965090ddc102f7de354dfd6e642c090269",
            "0x000000000000000000000000000000000022d473030f116ddee9f6b43ac78ba3"
          ],
          "data": "0xffffffffffffffffffffffffffffffffffffffffffffffffffffffffffffffff",
          "blockHash": "0x8bf52e1acb8f3503c2c8d58f0f6546b81ec86c119a5631a4d8e9bb9d3e1ee25a",
          "blockNumber": "0x9345d8",
          "blockTimestamp": "0x691bb8bc",
          "transactionHash": "0x60336d029235ea92eab8dc1175f73d770b04fe72726aafac943a8912c8b8debe",
          "transactionIndex": "0x5f",
          "logIndex": "0x61",
          "removed": false
        }
      ],
      "logsBloom": "0x00200000000000000000000000000000000000000000000000000000000000000000000000000000000000000000000000000000800000000000000000200000000000000000000000004000000000000000000000000800000000000000000000000000000000000000000000000000000000000000000000000000000000000000008000000000000000000000000008000000000000000000000000000000020000000000000000000000000000000800000000000000000000000000000400000000000000000000000000000000000000000000000000000000000000000010000000000800000000000000000000000000000000000000000000000000",
      "type": "0x2",
      "transactionHash": "0x60336d029235ea92eab8dc1175f73d770b04fe72726aafac943a8912c8b8debe",
      "transactionIndex": "0x5f",
      "blockHash": "0x8bf52e1acb8f3503c2c8d58f0f6546b81ec86c119a5631a4d8e9bb9d3e1ee25a",
      "blockNumber": "0x9345d8",
      "gasUsed": "0x66b1",
      "effectiveGasPrice": "0xf423e",
      "from": "0x8822f2965090ddc102f7de354dfd6e642c090269",
      "to": "0x2794a0b7187bfcd81d2b6d05e8a6e6cae3f97ffa",
      "contractAddress": null
    },
    {
      "status": "0x1",
      "cumulativeGasUsed": "0x6d30cf",
      "logs": [
        {
          "address": "0x000000000022d473030f116ddee9f6b43ac78ba3",
          "topics": [
            "0xda9fa7c1b00402c17d0161b249b1ab8bbec047c5a52207b9c112deffd817036b",
            "0x0000000000000000000000008822f2965090ddc102f7de354dfd6e642c090269",
            "0x0000000000000000000000002794a0b7187bfcd81d2b6d05e8a6e6cae3f97ffa",
            "0x000000000000000000000000429ba70129df741b2ca2a85bc3a2a3328e5c09b4"
          ],
          "data": "0x000000000000000000000000ffffffffffffffffffffffffffffffffffffffff0000000000000000000000000000000000000000000000000000ffffffffffff",
          "blockHash": "0x8bf52e1acb8f3503c2c8d58f0f6546b81ec86c119a5631a4d8e9bb9d3e1ee25a",
          "blockNumber": "0x9345d8",
          "blockTimestamp": "0x691bb8bc",
          "transactionHash": "0x568533ad424b56559fc7f015c13e92616e8b83ed5f4dd605516310e52fdafd25",
          "transactionIndex": "0x60",
          "logIndex": "0x62",
          "removed": false
        }
      ],
      "logsBloom": "0x00210000000000000000000100000000000000000000000000000000000000000000800000000040080000000000000000000000000000000000000000080000000000000000000000000000000000000000001000000000000000000000000000000000000000000000000000000000000000000000000000000800000000000020008000000000000000000000000000000000000000000000000000000000000000000000000000000000000000000800000000000000000000080000000000000000000000000000000000000000000000000000000040000000000000000000000000000000000000000000000000000000000000000000000000000400",
      "type": "0x2",
      "transactionHash": "0x568533ad424b56559fc7f015c13e92616e8b83ed5f4dd605516310e52fdafd25",
      "transactionIndex": "0x60",
      "blockHash": "0x8bf52e1acb8f3503c2c8d58f0f6546b81ec86c119a5631a4d8e9bb9d3e1ee25a",
      "blockNumber": "0x9345d8",
      "gasUsed": "0x6d0e",
      "effectiveGasPrice": "0xf423e",
      "from": "0x8822f2965090ddc102f7de354dfd6e642c090269",
      "to": "0x000000000022d473030f116ddee9f6b43ac78ba3",
      "contractAddress": null
    },
    {
      "status": "0x1",
      "cumulativeGasUsed": "0x6d9780",
      "logs": [
        {
          "address": "0xea20820719c5ae04bce9a098e209f4d8c60daf06",
          "topics": [
            "0x8c5be1e5ebec7d5bd14f71427d1e84f3dd0314c0f7b2291e5b200ac8c7c3b925",
            "0x0000000000000000000000008822f2965090ddc102f7de354dfd6e642c090269",
            "0x000000000000000000000000000000000022d473030f116ddee9f6b43ac78ba3"
          ],
          "data": "0xffffffffffffffffffffffffffffffffffffffffffffffffffffffffffffffff",
          "blockHash": "0x8bf52e1acb8f3503c2c8d58f0f6546b81ec86c119a5631a4d8e9bb9d3e1ee25a",
          "blockNumber": "0x9345d8",
          "blockTimestamp": "0x691bb8bc",
          "transactionHash": "0x6e63bef273ea0a4d8cf6fbae2a1fc77671853319addea6c62aff7d7c30a206d2",
          "transactionIndex": "0x61",
          "logIndex": "0x63",
          "removed": false
        }
      ],
      "logsBloom": "0x00200000000000000000000000000000000000000000000000000000000000000000000000000000000000000000000000000000800000000000000000200000000000000000000000004000000000000000000000000800000000000000000000000000000000000000000000000000000000000000000000000000000000000000008000000000000200000000000800008000000000000000000000000000020000000000000000000000000000000800000000000000000000000000000000000000000000000000000000000000000000000000000000000000000000000010000000000000000000000000000000000000000000000000000000000000",
      "type": "0x2",
      "transactionHash": "0x6e63bef273ea0a4d8cf6fbae2a1fc77671853319addea6c62aff7d7c30a206d2",
      "transactionIndex": "0x61",
      "blockHash": "0x8bf52e1acb8f3503c2c8d58f0f6546b81ec86c119a5631a4d8e9bb9d3e1ee25a",
      "blockNumber": "0x9345d8",
      "gasUsed": "0x66b1",
      "effectiveGasPrice": "0xf423e",
      "from": "0x8822f2965090ddc102f7de354dfd6e642c090269",
      "to": "0xea20820719c5ae04bce9a098e209f4d8c60daf06",
      "contractAddress": null
    },
    {
      "status": "0x1",
      "cumulativeGasUsed": "0x6e048e",
      "logs": [
        {
          "address": "0x000000000022d473030f116ddee9f6b43ac78ba3",
          "topics": [
            "0xda9fa7c1b00402c17d0161b249b1ab8bbec047c5a52207b9c112deffd817036b",
            "0x0000000000000000000000008822f2965090ddc102f7de354dfd6e642c090269",
            "0x000000000000000000000000ea20820719c5ae04bce9a098e209f4d8c60daf06",
            "0x000000000000000000000000429ba70129df741b2ca2a85bc3a2a3328e5c09b4"
          ],
          "data": "0x000000000000000000000000ffffffffffffffffffffffffffffffffffffffff0000000000000000000000000000000000000000000000000000ffffffffffff",
          "blockHash": "0x8bf52e1acb8f3503c2c8d58f0f6546b81ec86c119a5631a4d8e9bb9d3e1ee25a",
          "blockNumber": "0x9345d8",
          "blockTimestamp": "0x691bb8bc",
          "transactionHash": "0x480983e86066d07d43844d63c3eaba15c2263dff77e4985eecab2e37e40801b4",
          "transactionIndex": "0x62",
          "logIndex": "0x64",
          "removed": false
        }
      ],
      "logsBloom": "0x00210000000000000000000000000000000000000000000000000000000000000000000000000040080000000000000000000000000000000000000000080000000000000000000000000000000000000000000000000000000000000000000000000000000000008000000000000000000000000000000000000800000000000020008000000000000000000000000000000000000000000000000000000000000000000000000000000000000000000800000000000200000000080000000000000000000000000000000000000000000000000000000040000000000000000000000000000000000000000000000000040000000000000000000000000400",
      "type": "0x2",
      "transactionHash": "0x480983e86066d07d43844d63c3eaba15c2263dff77e4985eecab2e37e40801b4",
      "transactionIndex": "0x62",
      "blockHash": "0x8bf52e1acb8f3503c2c8d58f0f6546b81ec86c119a5631a4d8e9bb9d3e1ee25a",
      "blockNumber": "0x9345d8",
      "gasUsed": "0x6d0e",
      "effectiveGasPrice": "0xf423e",
      "from": "0x8822f2965090ddc102f7de354dfd6e642c090269",
      "to": "0x000000000022d473030f116ddee9f6b43ac78ba3",
      "contractAddress": null
    },
    {
      "status": "0x1",
      "cumulativeGasUsed": "0x748e24",
      "logs": [
        {
          "address": "0xe03a1074c86cfedd5c142c4f04f1a1536e203543",
          "topics": [
            "0xdd466e674ea557f56295e2d0218a125ea4b4f0f6f3307b95f85e6110838d6438",
            "0x68fa2d4416f052143835acbe896dcf824c0399b0cbbd19557d391fc82af32a9b",
            "0x0000000000000000000000002794a0b7187bfcd81d2b6d05e8a6e6cae3f97ffa",
            "0x000000000000000000000000ea20820719c5ae04bce9a098e209f4d8c60daf06"
          ],
          "data": "0x0000000000000000000000000000000000000000000000000000000000000bb8000000000000000000000000000000000000000000000000000000000000003c000000000000000000000000f32176095256b0d2dea938fd11cd3126251ccac000000000000000000000000000000000000000010000000000000000000000000000000000000000000000000000000000000000000000000000000000000000",
          "blockHash": "0x8bf52e1acb8f3503c2c8d58f0f6546b81ec86c119a5631a4d8e9bb9d3e1ee25a",
          "blockNumber": "0x9345d8",
          "blockTimestamp": "0x691bb8bc",
          "transactionHash": "0xcfbfea4b9b98839c33c0c29c25a4c939e583b20a47c37a51435e5bd235403ad5",
          "transactionIndex": "0x63",
          "logIndex": "0x65",
          "removed": false
        },
        {
          "address": "0x429ba70129df741b2ca2a85bc3a2a3328e5c09b4",
          "topics": [
            "0xddf252ad1be2c89b69c2b068fc378daa952ba7f163c4a11628f55a4df523b3ef",
            "0x0000000000000000000000000000000000000000000000000000000000000000",
            "0x0000000000000000000000008822f2965090ddc102f7de354dfd6e642c090269",
            "0x0000000000000000000000000000000000000000000000000000000000004ff3"
          ],
          "data": "0x",
          "blockHash": "0x8bf52e1acb8f3503c2c8d58f0f6546b81ec86c119a5631a4d8e9bb9d3e1ee25a",
          "blockNumber": "0x9345d8",
          "blockTimestamp": "0x691bb8bc",
          "transactionHash": "0xcfbfea4b9b98839c33c0c29c25a4c939e583b20a47c37a51435e5bd235403ad5",
          "transactionIndex": "0x63",
          "logIndex": "0x66",
          "removed": false
        },
        {
          "address": "0xe03a1074c86cfedd5c142c4f04f1a1536e203543",
          "topics": [
            "0xf208f4912782fd25c7f114ca3723a2d5dd6f3bcc3ac8db5af63baa85f711d5ec",
            "0x68fa2d4416f052143835acbe896dcf824c0399b0cbbd19557d391fc82af32a9b",
            "0x000000000000000000000000429ba70129df741b2ca2a85bc3a2a3328e5c09b4"
          ],
          "data": "0xfffffffffffffffffffffffffffffffffffffffffffffffffffffffffffffda80000000000000000000000000000000000000000000000000000000000000258000000000000000000000000000000000000000000000001d596f2cc56cdb1630000000000000000000000000000000000000000000000000000000000004ff3",
          "blockHash": "0x8bf52e1acb8f3503c2c8d58f0f6546b81ec86c119a5631a4d8e9bb9d3e1ee25a",
          "blockNumber": "0x9345d8",
          "blockTimestamp": "0x691bb8bc",
          "transactionHash": "0xcfbfea4b9b98839c33c0c29c25a4c939e583b20a47c37a51435e5bd235403ad5",
          "transactionIndex": "0x63",
          "logIndex": "0x67",
          "removed": false
        },
        {
          "address": "0x2794a0b7187bfcd81d2b6d05e8a6e6cae3f97ffa",
          "topics": [
            "0xddf252ad1be2c89b69c2b068fc378daa952ba7f163c4a11628f55a4df523b3ef",
            "0x0000000000000000000000008822f2965090ddc102f7de354dfd6e642c090269",
            "0x000000000000000000000000e03a1074c86cfedd5c142c4f04f1a1536e203543"
          ],
          "data": "0x0000000000000000000000000000000000000000000000000de0b6b3a7640000",
          "blockHash": "0x8bf52e1acb8f3503c2c8d58f0f6546b81ec86c119a5631a4d8e9bb9d3e1ee25a",
          "blockNumber": "0x9345d8",
          "blockTimestamp": "0x691bb8bc",
          "transactionHash": "0xcfbfea4b9b98839c33c0c29c25a4c939e583b20a47c37a51435e5bd235403ad5",
          "transactionIndex": "0x63",
          "logIndex": "0x68",
          "removed": false
        },
        {
          "address": "0xea20820719c5ae04bce9a098e209f4d8c60daf06",
          "topics": [
            "0xddf252ad1be2c89b69c2b068fc378daa952ba7f163c4a11628f55a4df523b3ef",
            "0x0000000000000000000000008822f2965090ddc102f7de354dfd6e642c090269",
            "0x000000000000000000000000e03a1074c86cfedd5c142c4f04f1a1536e203543"
          ],
          "data": "0x0000000000000000000000000000000000000000000000000de0b6b3a7640000",
          "blockHash": "0x8bf52e1acb8f3503c2c8d58f0f6546b81ec86c119a5631a4d8e9bb9d3e1ee25a",
          "blockNumber": "0x9345d8",
          "blockTimestamp": "0x691bb8bc",
          "transactionHash": "0xcfbfea4b9b98839c33c0c29c25a4c939e583b20a47c37a51435e5bd235403ad5",
          "transactionIndex": "0x63",
          "logIndex": "0x69",
          "removed": false
        }
      ],
      "logsBloom": "0x00200000000000000000001100000000000000000000000000000000080000000000800000000040080000000000000000000100000000000000000000000000000000000000000000000008000000000000001000000000000000000000000000200000020000008000000080000800000000000000100000000810000000000000008001000008000210000000000808008001000000000000004000200000000004000000000000000000000000000800000000400200000000000000020400000002000000000000000000000000000000000100000000001000000020001000000000000800400000000000000004040000000000000000000000000000",
      "type": "0x2",
      "transactionHash": "0xcfbfea4b9b98839c33c0c29c25a4c939e583b20a47c37a51435e5bd235403ad5",
      "transactionIndex": "0x63",
      "blockHash": "0x8bf52e1acb8f3503c2c8d58f0f6546b81ec86c119a5631a4d8e9bb9d3e1ee25a",
      "blockNumber": "0x9345d8",
      "gasUsed": "0x68996",
      "effectiveGasPrice": "0xf423e",
      "from": "0x8822f2965090ddc102f7de354dfd6e642c090269",
      "to": "0x429ba70129df741b2ca2a85bc3a2a3328e5c09b4",
      "contractAddress": null
    }
  ],
  "libraries": [],
  "pending": [],
  "returns": {},
  "timestamp": 1763424445263,
  "chain": 11155111,
  "commit": "5f4773e"
}