{
  "transactions": [
    {
      "hash": "0xa967d6be4e01ded19f875583f3bd0ea3679c8daae44df828618a77d04d19f78d",
      "transactionType": "CALL",
      "contractName": null,
      "contractAddress": "0x2794a0b7187bfcd81d2b6d05e8a6e6cae3f97ffa",
      "function": "approve(address,uint256)",
      "arguments": [
        "0x000000000022D473030F116dDEE9F6B43aC78BA3",
        "115792089237316195423570985008687907853269984665640564039457584007913129639935"
      ],
      "transaction": {
        "from": "0x8822f2965090ddc102f7de354dfd6e642c090269",
        "to": "0x2794a0b7187bfcd81d2b6d05e8a6e6cae3f97ffa",
        "gas": "0x962f",
        "value": "0x0",
        "input": "0x095ea7b3000000000000000000000000000000000022d473030f116ddee9f6b43ac78ba3ffffffffffffffffffffffffffffffffffffffffffffffffffffffffffffffff",
        "nonce": "0x2d5",
        "chainId": "0xaa36a7"
      },
      "additionalContracts": [],
      "isFixedGasLimit": false
    },
    {
      "hash": "0x59d14f31c47e8d0fc5b5433a1e00f713d8e0586f28060c73aa384382897bdc0e",
      "transactionType": "CALL",
      "contractName": null,
      "contractAddress": "0x000000000022d473030f116ddee9f6b43ac78ba3",
      "function": "approve(address,address,uint160,uint48)",
      "arguments": [
        "0x2794a0b7187BFCd81D2b6d05E8a6e6cAE3F97fFa",
        "0x429ba70129df741B2Ca2a85BC3A2a3328e5c09b4",
        "1461501637330902918203684832716283019655932542975",
        "281474976710655"
      ],
      "transaction": {
        "from": "0x8822f2965090ddc102f7de354dfd6e642c090269",
        "to": "0x000000000022d473030f116ddee9f6b43ac78ba3",
        "gas": "0x96a0",
        "value": "0x0",
        "input": "0x87517c450000000000000000000000002794a0b7187bfcd81d2b6d05e8a6e6cae3f97ffa000000000000000000000000429ba70129df741b2ca2a85bc3a2a3328e5c09b4000000000000000000000000ffffffffffffffffffffffffffffffffffffffff0000000000000000000000000000000000000000000000000000ffffffffffff",
        "nonce": "0x2d6",
        "chainId": "0xaa36a7"
      },
      "additionalContracts": [],
      "isFixedGasLimit": false
    },
    {
      "hash": "0x3081355fb5b232ea64c59d7a80a1e335b4c0870e8e90531f82a33e8cb3d39678",
      "transactionType": "CALL",
      "contractName": null,
      "contractAddress": "0xea20820719c5ae04bce9a098e209f4d8c60daf06",
      "function": "approve(address,uint256)",
      "arguments": [
        "0x000000000022D473030F116dDEE9F6B43aC78BA3",
        "115792089237316195423570985008687907853269984665640564039457584007913129639935"
      ],
      "transaction": {
        "from": "0x8822f2965090ddc102f7de354dfd6e642c090269",
        "to": "0xea20820719c5ae04bce9a098e209f4d8c60daf06",
        "gas": "0x962f",
        "value": "0x0",
        "input": "0x095ea7b3000000000000000000000000000000000022d473030f116ddee9f6b43ac78ba3ffffffffffffffffffffffffffffffffffffffffffffffffffffffffffffffff",
        "nonce": "0x2d7",
        "chainId": "0xaa36a7"
      },
      "additionalContracts": [],
      "isFixedGasLimit": false
    },
    {
      "hash": "0x9b2dc748591f4bad33a5304ea37757c142e685fe83b1b4ad71510d7c3b83541b",
      "transactionType": "CALL",
      "contractName": null,
      "contractAddress": "0x000000000022d473030f116ddee9f6b43ac78ba3",
      "function": "approve(address,address,uint160,uint48)",
      "arguments": [
        "0xEa20820719c5Ae04Bce9A098E209f4d8C60DAF06",
        "0x429ba70129df741B2Ca2a85BC3A2a3328e5c09b4",
        "1461501637330902918203684832716283019655932542975",
        "281474976710655"
      ],
      "transaction": {
        "from": "0x8822f2965090ddc102f7de354dfd6e642c090269",
        "to": "0x000000000022d473030f116ddee9f6b43ac78ba3",
        "gas": "0x96a0",
        "value": "0x0",
        "input": "0x87517c45000000000000000000000000ea20820719c5ae04bce9a098e209f4d8c60daf06000000000000000000000000429ba70129df741b2ca2a85bc3a2a3328e5c09b4000000000000000000000000ffffffffffffffffffffffffffffffffffffffff0000000000000000000000000000000000000000000000000000ffffffffffff",
        "nonce": "0x2d8",
        "chainId": "0xaa36a7"
      },
      "additionalContracts": [],
      "isFixedGasLimit": false
    },
    {
      "hash": "0x04dad0df0859f00c79670588be21531f60f8719df5a6b5b2c7635b7d347dc23a",
      "transactionType": "CALL",
      "contractName": null,
      "contractAddress": "0x429ba70129df741b2ca2a85bc3a2a3328e5c09b4",
      "function": "modifyLiquidities(bytes,uint256)",
      "arguments": [
        "0x000000000000000000000000000000000000000000000000000000000000004000000000000000000000000000000000000000000000000000000000000000800000000000000000000000000000000000000000000000000000000000000002020d00000000000000000000000000000000000000000000000000000000000000000000000000000000000000000000000000000000000000000000000000020000000000000000000000000000000000000000000000000000000000000040000000000000000000000000000000000000000000000000000000000000020000000000000000000000000000000000000000000000000000000000000001a00000000000000000000000002794a0b7187bfcd81d2b6d05e8a6e6cae3f97ffa000000000000000000000000ea20820719c5ae04bce9a098e209f4d8c60daf060000000000000000000000000000000000000000000000000000000000000bb8000000000000000000000000000000000000000000000000000000000000003c000000000000000000000000b6d5be7f68a691ca0b81ecbfbd38164808c2cac8fffffffffffffffffffffffffffffffffffffffffffffffffffffffffffffda80000000000000000000000000000000000000000000000000000000000000258000000000000000000000000000000000000000000000001d596f2cc56cdb16300000000000000000000000000000000000000000000000010a741a46278000000000000000000000000000000000000000000000000000010a741a4627800000000000000000000000000008822f2965090ddc102f7de354dfd6e642c0902690000000000000000000000000000000000000000000000000000000000000180000000000000000000000000000000000000000000000000000000000000000000000000000000000000000000000000000000000000000000000000000000400000000000000000000000002794a0b7187bfcd81d2b6d05e8a6e6cae3f97ffa000000000000000000000000ea20820719c5ae04bce9a098e209f4d8c60daf06",
        "1774358508"
      ],
      "transaction": {
        "from": "0x8822f2965090ddc102f7de354dfd6e642c090269",
        "to": "0x429ba70129df741b2ca2a85bc3a2a3328e5c09b4",
        "gas": "0x5468d",
        "value": "0x0",
        "input": "0xdd46508f00000000000000000000000000000000000000000000000000000000000000400000000000000000000000000000000000000000000000000000000069c28fec0000000000000000000000000000000000000000000000000000000000000300000000000000000000000000000000000000000000000000000000000000004000000000000000000000000000000000000000000000000000000000000000800000000000000000000000000000000000000000000000000000000000000002020d00000000000000000000000000000000000000000000000000000000000000000000000000000000000000000000000000000000000000000000000000020000000000000000000000000000000000000000000000000000000000000040000000000000000000000000000000000000000000000000000000000000020000000000000000000000000000000000000000000000000000000000000001a00000000000000000000000002794a0b7187bfcd81d2b6d05e8a6e6cae3f97ffa000000000000000000000000ea20820719c5ae04bce9a098e209f4d8c60daf060000000000000000000000000000000000000000000000000000000000000bb8000000000000000000000000000000000000000000000000000000000000003c000000000000000000000000b6d5be7f68a691ca0b81ecbfbd38164808c2cac8fffffffffffffffffffffffffffffffffffffffffffffffffffffffffffffda80000000000000000000000000000000000000000000000000000000000000258000000000000000000000000000000000000000000000001d596f2cc56cdb16300000000000000000000000000000000000000000000000010a741a46278000000000000000000000000000000000000000000000000000010a741a4627800000000000000000000000000008822f2965090ddc102f7de354dfd6e642c0902690000000000000000000000000000000000000000000000000000000000000180000000000000000000000000000000000000000000000000000000000000000000000000000000000000000000000000000000000000000000000000000000400000000000000000000000002794a0b7187bfcd81d2b6d05e8a6e6cae3f97ffa000000000000000000000000ea20820719c5ae04bce9a098e209f4d8c60daf06",
        "nonce": "0x2d9",
        "chainId": "0xaa36a7"
      },
      "additionalContracts": [],
      "isFixedGasLimit": false
    }
  ],
  "receipts": [
    {
      "status": "0x1",
      "cumulativeGasUsed": "0x15fb22e",
      "logs": [
        {
          "address": "0x2794a0b7187bfcd81d2b6d05e8a6e6cae3f97ffa",
          "topics": [
            "0x8c5be1e5ebec7d5bd14f71427d1e84f3dd0314c0f7b2291e5b200ac8c7c3b925",
            "0x0000000000000000000000008822f2965090ddc102f7de354dfd6e642c090269",
            "0x000000000000000000000000000000000022d473030f116ddee9f6b43ac78ba3"
          ],
          "data": "0xffffffffffffffffffffffffffffffffffffffffffffffffffffffffffffffff",
          "blockHash": "0x886230a89bf9dfcaf118859882ec09ec07f6e2a1e302c128371e9c5c20b58818",
          "blockNumber": "0xa06556",
          "blockTimestamp": "0x69c2820c",
          "transactionHash": "0xa967d6be4e01ded19f875583f3bd0ea3679c8daae44df828618a77d04d19f78d",
          "transactionIndex": "0x7b",
          "logIndex": "0x2f5",
          "removed": false
        }
      ],
      "logsBloom": "0x00200000000000000000000000000000000000000000000000000000000000000000000000000000000000000000000000000000800000000000000000200000000000000000000000004000000000000000000000000800000000000000000000000000000000000000000000000000000000000000000000000000000000000000008000000000000000000000000008000000000000000000000000000000020000000000000000000000000000000800000000000000000000000000000400000000000000000000000000000000000000000000000000000000000000000010000000000800000000000000000000000000000000000000000000000000",
      "type": "0x2",
      "transactionHash": "0xa967d6be4e01ded19f875583f3bd0ea3679c8daae44df828618a77d04d19f78d",
      "transactionIndex": "0x7b",
      "blockHash": "0x886230a89bf9dfcaf118859882ec09ec07f6e2a1e302c128371e9c5c20b58818",
      "blockNumber": "0xa06556",
      "gasUsed": "0x66b1",
      "effectiveGasPrice": "0xf432d",
      "from": "0x8822f2965090ddc102f7de354dfd6e642c090269",
      "to": "0x2794a0b7187bfcd81d2b6d05e8a6e6cae3f97ffa",
      "contractAddress": null
    },
    {
      "status": "0x1",
      "cumulativeGasUsed": "0x1601f3c",
      "logs": [
        {
          "address": "0x000000000022d473030f116ddee9f6b43ac78ba3",
          "topics": [
            "0xda9fa7c1b00402c17d0161b249b1ab8bbec047c5a52207b9c112deffd817036b",
            "0x0000000000000000000000008822f2965090ddc102f7de354dfd6e642c090269",
            "0x0000000000000000000000002794a0b7187bfcd81d2b6d05e8a6e6cae3f97ffa",
            "0x000000000000000000000000429ba70129df741b2ca2a85bc3a2a3328e5c09b4"
          ],
          "data": "0x000000000000000000000000ffffffffffffffffffffffffffffffffffffffff0000000000000000000000000000000000000000000000000000ffffffffffff",
          "blockHash": "0x886230a89bf9dfcaf118859882ec09ec07f6e2a1e302c128371e9c5c20b58818",
          "blockNumber": "0xa06556",
          "blockTimestamp": "0x69c2820c",
          "transactionHash": "0x59d14f31c47e8d0fc5b5433a1e00f713d8e0586f28060c73aa384382897bdc0e",
          "transactionIndex": "0x7c",
          "logIndex": "0x2f6",
          "removed": false
        }
      ],
      "logsBloom": "0x00210000000000000000000100000000000000000000000000000000000000000000800000000040080000000000000000000000000000000000000000080000000000000000000000000000000000000000001000000000000000000000000000000000000000000000000000000000000000000000000000000800000000000020008000000000000000000000000000000000000000000000000000000000000000000000000000000000000000000800000000000000000000080000000000000000000000000000000000000000000000000000000040000000000000000000000000000000000000000000000000000000000000000000000000000400",
      "type": "0x2",
      "transactionHash": "0x59d14f31c47e8d0fc5b5433a1e00f713d8e0586f28060c73aa384382897bdc0e",
      "transactionIndex": "0x7c",
      "blockHash": "0x886230a89bf9dfcaf118859882ec09ec07f6e2a1e302c128371e9c5c20b58818",
      "blockNumber": "0xa06556",
      "gasUsed": "0x6d0e",
      "effectiveGasPrice": "0xf432d",
      "from": "0x8822f2965090ddc102f7de354dfd6e642c090269",
      "to": "0x000000000022d473030f116ddee9f6b43ac78ba3",
      "contractAddress": null
    },
    {
      "status": "0x1",
      "cumulativeGasUsed": "0x16085ed",
      "logs": [
        {
          "address": "0xea20820719c5ae04bce9a098e209f4d8c60daf06",
          "topics": [
            "0x8c5be1e5ebec7d5bd14f71427d1e84f3dd0314c0f7b2291e5b200ac8c7c3b925",
            "0x0000000000000000000000008822f2965090ddc102f7de354dfd6e642c090269",
            "0x000000000000000000000000000000000022d473030f116ddee9f6b43ac78ba3"
          ],
          "data": "0xffffffffffffffffffffffffffffffffffffffffffffffffffffffffffffffff",
          "blockHash": "0x886230a89bf9dfcaf118859882ec09ec07f6e2a1e302c128371e9c5c20b58818",
          "blockNumber": "0xa06556",
          "blockTimestamp": "0x69c2820c",
          "transactionHash": "0x3081355fb5b232ea64c59d7a80a1e335b4c0870e8e90531f82a33e8cb3d39678",
          "transactionIndex": "0x7d",
          "logIndex": "0x2f7",
          "removed": false
        }
      ],
      "logsBloom": "0x00200000000000000000000000000000000000000000000000000000000000000000000000000000000000000000000000000000800000000000000000200000000000000000000000004000000000000000000000000800000000000000000000000000000000000000000000000000000000000000000000000000000000000000008000000000000200000000000800008000000000000000000000000000020000000000000000000000000000000800000000000000000000000000000000000000000000000000000000000000000000000000000000000000000000000010000000000000000000000000000000000000000000000000000000000000",
      "type": "0x2",
      "transactionHash": "0x3081355fb5b232ea64c59d7a80a1e335b4c0870e8e90531f82a33e8cb3d39678",
      "transactionIndex": "0x7d",
      "blockHash": "0x886230a89bf9dfcaf118859882ec09ec07f6e2a1e302c128371e9c5c20b58818",
      "blockNumber": "0xa06556",
      "gasUsed": "0x66b1",
      "effectiveGasPrice": "0xf432d",
      "from": "0x8822f2965090ddc102f7de354dfd6e642c090269",
      "to": "0xea20820719c5ae04bce9a098e209f4d8c60daf06",
      "contractAddress": null
    },
    {
      "status": "0x1",
      "cumulativeGasUsed": "0x160f2fb",
      "logs": [
        {
          "address": "0x000000000022d473030f116ddee9f6b43ac78ba3",
          "topics": [
            "0xda9fa7c1b00402c17d0161b249b1ab8bbec047c5a52207b9c112deffd817036b",
            "0x0000000000000000000000008822f2965090ddc102f7de354dfd6e642c090269",
            "0x000000000000000000000000ea20820719c5ae04bce9a098e209f4d8c60daf06",
            "0x000000000000000000000000429ba70129df741b2ca2a85bc3a2a3328e5c09b4"
          ],
          "data": "0x000000000000000000000000ffffffffffffffffffffffffffffffffffffffff0000000000000000000000000000000000000000000000000000ffffffffffff",
          "blockHash": "0x886230a89bf9dfcaf118859882ec09ec07f6e2a1e302c128371e9c5c20b58818",
          "blockNumber": "0xa06556",
          "blockTimestamp": "0x69c2820c",
          "transactionHash": "0x9b2dc748591f4bad33a5304ea37757c142e685fe83b1b4ad71510d7c3b83541b",
          "transactionIndex": "0x7e",
          "logIndex": "0x2f8",
          "removed": false
        }
      ],
      "logsBloom": "0x00210000000000000000000000000000000000000000000000000000000000000000000000000040080000000000000000000000000000000000000000080000000000000000000000000000000000000000000000000000000000000000000000000000000000008000000000000000000000000000000000000800000000000020008000000000000000000000000000000000000000000000000000000000000000000000000000000000000000000800000000000200000000080000000000000000000000000000000000000000000000000000000040000000000000000000000000000000000000000000000000040000000000000000000000000400",
      "type": "0x2",
      "transactionHash": "0x9b2dc748591f4bad33a5304ea37757c142e685fe83b1b4ad71510d7c3b83541b",
      "transactionIndex": "0x7e",
      "blockHash": "0x886230a89bf9dfcaf118859882ec09ec07f6e2a1e302c128371e9c5c20b58818",
      "blockNumber": "0xa06556",
      "gasUsed": "0x6d0e",
      "effectiveGasPrice": "0xf432d",
      "from": "0x8822f2965090ddc102f7de354dfd6e642c090269",
      "to": "0x000000000022d473030f116ddee9f6b43ac78ba3",
      "contractAddress": null
    },
    {
      "status": "0x1",
      "cumulativeGasUsed": "0x164c4c2",
      "logs": [
        {
          "address": "0x429ba70129df741b2ca2a85bc3a2a3328e5c09b4",
          "topics": [
            "0xddf252ad1be2c89b69c2b068fc378daa952ba7f163c4a11628f55a4df523b3ef",
            "0x0000000000000000000000000000000000000000000000000000000000000000",
            "0x0000000000000000000000008822f2965090ddc102f7de354dfd6e642c090269",
            "0x00000000000000000000000000000000000000000000000000000000000061dc"
          ],
          "data": "0x",
          "blockHash": "0x886230a89bf9dfcaf118859882ec09ec07f6e2a1e302c128371e9c5c20b58818",
          "blockNumber": "0xa06556",
          "blockTimestamp": "0x69c2820c",
          "transactionHash": "0x04dad0df0859f00c79670588be21531f60f8719df5a6b5b2c7635b7d347dc23a",
          "transactionIndex": "0x7f",
          "logIndex": "0x2f9",
          "removed": false
        },
        {
          "address": "0xe03a1074c86cfedd5c142c4f04f1a1536e203543",
          "topics": [
            "0xf208f4912782fd25c7f114ca3723a2d5dd6f3bcc3ac8db5af63baa85f711d5ec",
            "0xafc0871a032cb59b9baed1192a2e085c4b009b825ed8753bb15dda7e9e65506a",
            "0x000000000000000000000000429ba70129df741b2ca2a85bc3a2a3328e5c09b4"
          ],
          "data": "0xfffffffffffffffffffffffffffffffffffffffffffffffffffffffffffffda80000000000000000000000000000000000000000000000000000000000000258000000000000000000000000000000000000000000000001d596f2cc56cdb16300000000000000000000000000000000000000000000000000000000000061dc",
          "blockHash": "0x886230a89bf9dfcaf118859882ec09ec07f6e2a1e302c128371e9c5c20b58818",
          "blockNumber": "0xa06556",
          "blockTimestamp": "0x69c2820c",
          "transactionHash": "0x04dad0df0859f00c79670588be21531f60f8719df5a6b5b2c7635b7d347dc23a",
          "transactionIndex": "0x7f",
          "logIndex": "0x2fa",
          "removed": false
        },
        {
          "address": "0x2794a0b7187bfcd81d2b6d05e8a6e6cae3f97ffa",
          "topics": [
            "0xddf252ad1be2c89b69c2b068fc378daa952ba7f163c4a11628f55a4df523b3ef",
            "0x0000000000000000000000008822f2965090ddc102f7de354dfd6e642c090269",
            "0x000000000000000000000000e03a1074c86cfedd5c142c4f04f1a1536e203543"
          ],
          "data": "0x0000000000000000000000000000000000000000000000000f42eb52d37f4000",
          "blockHash": "0x886230a89bf9dfcaf118859882ec09ec07f6e2a1e302c128371e9c5c20b58818",
          "blockNumber": "0xa06556",
          "blockTimestamp": "0x69c2820c",
          "transactionHash": "0x04dad0df0859f00c79670588be21531f60f8719df5a6b5b2c7635b7d347dc23a",
          "transactionIndex": "0x7f",
          "logIndex": "0x2fb",
          "removed": false
        },
        {
          "address": "0xea20820719c5ae04bce9a098e209f4d8c60daf06",
          "topics": [
            "0xddf252ad1be2c89b69c2b068fc378daa952ba7f163c4a11628f55a4df523b3ef",
            "0x0000000000000000000000008822f2965090ddc102f7de354dfd6e642c090269",
            "0x000000000000000000000000e03a1074c86cfedd5c142c4f04f1a1536e203543"
          ],
          "data": "0x0000000000000000000000000000000000000000000000000c7f8c77c8506f04",
          "blockHash": "0x886230a89bf9dfcaf118859882ec09ec07f6e2a1e302c128371e9c5c20b58818",
          "blockNumber": "0xa06556",
          "blockTimestamp": "0x69c2820c",
          "transactionHash": "0x04dad0df0859f00c79670588be21531f60f8719df5a6b5b2c7635b7d347dc23a",
          "transactionIndex": "0x7f",
          "logIndex": "0x2fc",
          "removed": false
        }
      ],
      "logsBloom": "0x00200000000000000000001000000000000000000000000400100000080000000000000000000040080000000000000000000100000000000000000000000000000000000000000000000008000000000000000000000000000080000000000000000000020000000000000080000800000000000000100000000810000000000000008003000000000210000000000808008000000008000000000000000000000004000000000000000000000000000800000000400000000000000000000400000002000000000000000000000000000000000000000000001000000020001000000000000800000000000000000004000000000000000000000000008000",
      "type": "0x2",
      "transactionHash": "0x04dad0df0859f00c79670588be21531f60f8719df5a6b5b2c7635b7d347dc23a",
      "transactionIndex": "0x7f",
      "blockHash": "0x886230a89bf9dfcaf118859882ec09ec07f6e2a1e302c128371e9c5c20b58818",
      "blockNumber": "0xa06556",
      "gasUsed": "0x3d1c7",
      "effectiveGasPrice": "0xf432d",
      "from": "0x8822f2965090ddc102f7de354dfd6e642c090269",
      "to": "0x429ba70129df741b2ca2a85bc3a2a3328e5c09b4",
      "contractAddress": null
    }
  ],
  "libraries": [],
  "pending": [],
  "returns": {},
  "timestamp": 1774354956585,
  "chain": 11155111,
  "commit": "87e1a12"
}