{
  "transactions": [
    {
      "hash": "0x8f6da80b735a5f843eb9971f1521d7da33f528cde7ca09aaf697863ca20062a9",
      "transactionType": "CALL",
      "contractName": null,
      "contractAddress": "0x2794a0b7187bfcd81d2b6d05e8a6e6cae3f97ffa",
      "function": "approve(address,uint256)",
      "arguments": [
        "0x000000000022D473030F116dDEE9F6B43aC78BA3",
        "115792089237316195423570985008687907853269984665640564039457584007913129639935"
      ],
      "transaction": {
        "from": "0x8822f2965090ddc102f7de354dfd6e642c090269",
        "to": "0x2794a0b7187bfcd81d2b6d05e8a6e6cae3f97ffa",
        "gas": "0x962f",
        "value": "0x0",
        "input": "0x095ea7b3000000000000000000000000000000000022d473030f116ddee9f6b43ac78ba3ffffffffffffffffffffffffffffffffffffffffffffffffffffffffffffffff",
        "nonce": "0x383",
        "chainId": "0xaa36a7"
      },
      "additionalContracts": [],
      "isFixedGasLimit": false
    },
    {
      "hash": "0x7f2e59b993c28a59c54a9aa6686065d3293d1c92040a33dc3db511a6c192de7a",
      "transactionType": "CALL",
      "contractName": null,
      "contractAddress": "0x000000000022d473030f116ddee9f6b43ac78ba3",
      "function": "approve(address,address,uint160,uint48)",
      "arguments": [
        "0x2794a0b7187BFCd81D2b6d05E8a6e6cAE3F97fFa",
        "0x429ba70129df741B2Ca2a85BC3A2a3328e5c09b4",
        "1461501637330902918203684832716283019655932542975",
        "281474976710655"
      ],
      "transaction": {
        "from": "0x8822f2965090ddc102f7de354dfd6e642c090269",
        "to": "0x000000000022d473030f116ddee9f6b43ac78ba3",
        "gas": "0x96a0",
        "value": "0x0",
        "input": "0x87517c450000000000000000000000002794a0b7187bfcd81d2b6d05e8a6e6cae3f97ffa000000000000000000000000429ba70129df741b2ca2a85bc3a2a3328e5c09b4000000000000000000000000ffffffffffffffffffffffffffffffffffffffff0000000000000000000000000000000000000000000000000000ffffffffffff",
        "nonce": "0x384",
        "chainId": "0xaa36a7"
      },
      "additionalContracts": [],
      "isFixedGasLimit": false
    },
    {
      "hash": "0x458b812b8498b614bd69a37e262ad389f2719e28adf9947881b6693284804a59",
      "transactionType": "CALL",
      "contractName": null,
      "contractAddress": "0xea20820719c5ae04bce9a098e209f4d8c60daf06",
      "function": "approve(address,uint256)",
      "arguments": [
        "0x000000000022D473030F116dDEE9F6B43aC78BA3",
        "115792089237316195423570985008687907853269984665640564039457584007913129639935"
      ],
      "transaction": {
        "from": "0x8822f2965090ddc102f7de354dfd6e642c090269",
        "to": "0xea20820719c5ae04bce9a098e209f4d8c60daf06",
        "gas": "0x962f",
        "value": "0x0",
        "input": "0x095ea7b3000000000000000000000000000000000022d473030f116ddee9f6b43ac78ba3ffffffffffffffffffffffffffffffffffffffffffffffffffffffffffffffff",
        "nonce": "0x385",
        "chainId": "0xaa36a7"
      },
      "additionalContracts": [],
      "isFixedGasLimit": false
    },
    {
      "hash": "0x15cd544a80814c312071b2be403690d91afd1be2e9b15cab941f8b8070d8108a",
      "transactionType": "CALL",
      "contractName": null,
      "contractAddress": "0x000000000022d473030f116ddee9f6b43ac78ba3",
      "function": "approve(address,address,uint160,uint48)",
      "arguments": [
        "0xEa20820719c5Ae04Bce9A098E209f4d8C60DAF06",
        "0x429ba70129df741B2Ca2a85BC3A2a3328e5c09b4",
        "1461501637330902918203684832716283019655932542975",
        "281474976710655"
      ],
      "transaction": {
        "from": "0x8822f2965090ddc102f7de354dfd6e642c090269",
        "to": "0x000000000022d473030f116ddee9f6b43ac78ba3",
        "gas": "0x96a0",
        "value": "0x0",
        "input": "0x87517c45000000000000000000000000ea20820719c5ae04bce9a098e209f4d8c60daf06000000000000000000000000429ba70129df741b2ca2a85bc3a2a3328e5c09b4000000000000000000000000ffffffffffffffffffffffffffffffffffffffff0000000000000000000000000000000000000000000000000000ffffffffffff",
        "nonce": "0x386",
        "chainId": "0xaa36a7"
      },
      "additionalContracts": [],
      "isFixedGasLimit": false
    },
    {
      "hash": "0x05b20b7901fdfd6f66e9811f8eace31faeecf54b9b0da8f51badbaa8759128f9",
      "transactionType": "CALL",
      "contractName": null,
      "contractAddress": "0xe03a1074c86cfedd5c142c4f04f1a1536e203543",
      "function": "initialize((address,address,uint24,int24,address),uint160)",
      "arguments": [
        "(0x2794a0b7187BFCd81D2b6d05E8a6e6cAE3F97fFa, 0xEa20820719c5Ae04Bce9A098E209f4d8C60DAF06, 3000, 60, 0x6A755997D7B06900Fc3AFA8085A76C7182658aC8)",
        "79228162514264337593543950336"
      ],
      "transaction": {
        "from": "0x8822f2965090ddc102f7de354dfd6e642c090269",
        "to": "0xe03a1074c86cfedd5c142c4f04f1a1536e203543",
        "gas": "0x1277b",
        "value": "0x0",
        "input": "0x6276cbbe0000000000000000000000002794a0b7187bfcd81d2b6d05e8a6e6cae3f97ffa000000000000000000000000ea20820719c5ae04bce9a098e209f4d8c60daf060000000000000000000000000000000000000000000000000000000000000bb8000000000000000000000000000000000000000000000000000000000000003c0000000000000000000000006a755997d7b06900fc3afa8085a76c7182658ac80000000000000000000000000000000000000001000000000000000000000000",
        "nonce": "0x387",
        "chainId": "0xaa36a7"
      },
      "additionalContracts": [],
      "isFixedGasLimit": false
    },
    {
      "hash": "0x6df5dc85f9b3495200bff8c5fded662c3d95228fe19c0d277e59a66b8b6ae5ed",
      "transactionType": "CALL",
      "contractName": null,
      "contractAddress": "0x429ba70129df741b2ca2a85bc3a2a3328e5c09b4",
      "function": "modifyLiquidities(bytes,uint256)",
      "arguments": [
        "0x000000000000000000000000000000000000000000000000000000000000004000000000000000000000000000000000000000000000000000000000000000800000000000000000000000000000000000000000000000000000000000000002020d00000000000000000000000000000000000000000000000000000000000000000000000000000000000000000000000000000000000000000000000000020000000000000000000000000000000000000000000000000000000000000040000000000000000000000000000000000000000000000000000000000000020000000000000000000000000000000000000000000000000000000000000001a00000000000000000000000002794a0b7187bfcd81d2b6d05e8a6e6cae3f97ffa000000000000000000000000ea20820719c5ae04bce9a098e209f4d8c60daf060000000000000000000000000000000000000000000000000000000000000bb8000000000000000000000000000000000000000000000000000000000000003c0000000000000000000000006a755997d7b06900fc3afa8085a76c7182658ac8fffffffffffffffffffffffffffffffffffffffffffffffffffffffffffffda80000000000000000000000000000000000000000000000000000000000000258000000000000000000000000000000000000000000000001d596f2cc56cdb16300000000000000000000000000000000ffffffffffffffffffffffffffffffff00000000000000000000000000000000ffffffffffffffffffffffffffffffff0000000000000000000000008822f2965090ddc102f7de354dfd6e642c0902690000000000000000000000000000000000000000000000000000000000000180000000000000000000000000000000000000000000000000000000000000000000000000000000000000000000000000000000000000000000000000000000400000000000000000000000002794a0b7187bfcd81d2b6d05e8a6e6cae3f97ffa000000000000000000000000ea20820719c5ae04bce9a098e209f4d8c60daf06",
        "1774598904"
      ],
      "transaction": {
        "from": "0x8822f2965090ddc102f7de354dfd6e642c090269",
        "to": "0x429ba70129df741b2ca2a85bc3a2a3328e5c09b4",
        "gas": "0x846a6",
        "value": "0x0",
        "input": "0xdd46508f00000000000000000000000000000000000000000000000000000000000000400000000000000000000000000000000000000000000000000000000069c63af80000000000000000000000000000000000000000000000000000000000000300000000000000000000000000000000000000000000000000000000000000004000000000000000000000000000000000000000000000000000000000000000800000000000000000000000000000000000000000000000000000000000000002020d00000000000000000000000000000000000000000000000000000000000000000000000000000000000000000000000000000000000000000000000000020000000000000000000000000000000000000000000000000000000000000040000000000000000000000000000000000000000000000000000000000000020000000000000000000000000000000000000000000000000000000000000001a00000000000000000000000002794a0b7187bfcd81d2b6d05e8a6e6cae3f97ffa000000000000000000000000ea20820719c5ae04bce9a098e209f4d8c60daf060000000000000000000000000000000000000000000000000000000000000bb8000000000000000000000000000000000000000000000000000000000000003c0000000000000000000000006a755997d7b06900fc3afa8085a76c7182658ac8fffffffffffffffffffffffffffffffffffffffffffffffffffffffffffffda80000000000000000000000000000000000000000000000000000000000000258000000000000000000000000000000000000000000000001d596f2cc56cdb16300000000000000000000000000000000ffffffffffffffffffffffffffffffff00000000000000000000000000000000ffffffffffffffffffffffffffffffff0000000000000000000000008822f2965090ddc102f7de354dfd6e642c0902690000000000000000000000000000000000000000000000000000000000000180000000000000000000000000000000000000000000000000000000000000000000000000000000000000000000000000000000000000000000000000000000400000000000000000000000002794a0b7187bfcd81d2b6d05e8a6e6cae3f97ffa000000000000000000000000ea20820719c5ae04bce9a098e209f4d8c60daf06",
        "nonce": "0x388",
        "chainId": "0xaa36a7"
      },
      "additionalContracts": [],
      "isFixedGasLimit": false
    }
  ],
  "receipts": [
    {
      "status": "0x1",
      "cumulativeGasUsed": "0x139fb14",
      "logs": [
        {
          "address": "0x2794a0b7187bfcd81d2b6d05e8a6e6cae3f97ffa",
          "topics": [
            "0x8c5be1e5ebec7d5bd14f71427d1e84f3dd0314c0f7b2291e5b200ac8c7c3b925",
            "0x0000000000000000000000008822f2965090ddc102f7de354dfd6e642c090269",
            "0x000000000000000000000000000000000022d473030f116ddee9f6b43ac78ba3"
          ],
          "data": "0xffffffffffffffffffffffffffffffffffffffffffffffffffffffffffffffff",
          "blockHash": "0x5456844106e509115e2436aa3daf29d99acea2a433cbf37d6ca7128808f08a80",
          "blockNumber": "0xa0b10a",
          "blockTimestamp": "0x69c62d0c",
          "transactionHash": "0x8f6da80b735a5f843eb9971f1521d7da33f528cde7ca09aaf697863ca20062a9",
          "transactionIndex": "0x78",
          "logIndex": "0x28b",
          "removed": false
        }
      ],
      "logsBloom": "0x00200000000000000000000000000000000000000000000000000000000000000000000000000000000000000000000000000000800000000000000000200000000000000000000000004000000000000000000000000800000000000000000000000000000000000000000000000000000000000000000000000000000000000000008000000000000000000000000008000000000000000000000000000000020000000000000000000000000000000800000000000000000000000000000400000000000000000000000000000000000000000000000000000000000000000010000000000800000000000000000000000000000000000000000000000000",
      "type": "0x2",
      "transactionHash": "0x8f6da80b735a5f843eb9971f1521d7da33f528cde7ca09aaf697863ca20062a9",
      "transactionIndex": "0x78",
      "blockHash": "0x5456844106e509115e2436aa3daf29d99acea2a433cbf37d6ca7128808f08a80",
      "blockNumber": "0xa0b10a",
      "gasUsed": "0x66b1",
      "effectiveGasPrice": "0xf4251",
      "from": "0x8822f2965090ddc102f7de354dfd6e642c090269",
      "to": "0x2794a0b7187bfcd81d2b6d05e8a6e6cae3f97ffa",
      "contractAddress": null
    },
    {
      "status": "0x1",
      "cumulativeGasUsed": "0x13a6822",
      "logs": [
        {
          "address": "0x000000000022d473030f116ddee9f6b43ac78ba3",
          "topics": [
            "0xda9fa7c1b00402c17d0161b249b1ab8bbec047c5a52207b9c112deffd817036b",
            "0x0000000000000000000000008822f2965090ddc102f7de354dfd6e642c090269",
            "0x0000000000000000000000002794a0b7187bfcd81d2b6d05e8a6e6cae3f97ffa",
            "0x000000000000000000000000429ba70129df741b2ca2a85bc3a2a3328e5c09b4"
          ],
          "data": "0x000000000000000000000000ffffffffffffffffffffffffffffffffffffffff0000000000000000000000000000000000000000000000000000ffffffffffff",
          "blockHash": "0x5456844106e509115e2436aa3daf29d99acea2a433cbf37d6ca7128808f08a80",
          "blockNumber": "0xa0b10a",
          "blockTimestamp": "0x69c62d0c",
          "transactionHash": "0x7f2e59b993c28a59c54a9aa6686065d3293d1c92040a33dc3db511a6c192de7a",
          "transactionIndex": "0x79",
          "logIndex": "0x28c",
          "removed": false
        }
      ],
      "logsBloom": "0x00210000000000000000000100000000000000000000000000000000000000000000800000000040080000000000000000000000000000000000000000080000000000000000000000000000000000000000001000000000000000000000000000000000000000000000000000000000000000000000000000000800000000000020008000000000000000000000000000000000000000000000000000000000000000000000000000000000000000000800000000000000000000080000000000000000000000000000000000000000000000000000000040000000000000000000000000000000000000000000000000000000000000000000000000000400",
      "type": "0x2",
      "transactionHash": "0x7f2e59b993c28a59c54a9aa6686065d3293d1c92040a33dc3db511a6c192de7a",
      "transactionIndex": "0x79",
      "blockHash": "0x5456844106e509115e2436aa3daf29d99acea2a433cbf37d6ca7128808f08a80",
      "blockNumber": "0xa0b10a",
      "gasUsed": "0x6d0e",
      "effectiveGasPrice": "0xf4251",
      "from": "0x8822f2965090ddc102f7de354dfd6e642c090269",
      "to": "0x000000000022d473030f116ddee9f6b43ac78ba3",
      "contractAddress": null
    },
    {
      "status": "0x1",
      "cumulativeGasUsed": "0x13aced3",
      "logs": [
        {
          "address": "0xea20820719c5ae04bce9a098e209f4d8c60daf06",
          "topics": [
            "0x8c5be1e5ebec7d5bd14f71427d1e84f3dd0314c0f7b2291e5b200ac8c7c3b925",
            "0x0000000000000000000000008822f2965090ddc102f7de354dfd6e642c090269",
            "0x000000000000000000000000000000000022d473030f116ddee9f6b43ac78ba3"
          ],
          "data": "0xffffffffffffffffffffffffffffffffffffffffffffffffffffffffffffffff",
          "blockHash": "0x5456844106e509115e2436aa3daf29d99acea2a433cbf37d6ca7128808f08a80",
          "blockNumber": "0xa0b10a",
          "blockTimestamp": "0x69c62d0c",
          "transactionHash": "0x458b812b8498b614bd69a37e262ad389f2719e28adf9947881b6693284804a59",
          "transactionIndex": "0x7a",
          "logIndex": "0x28d",
          "removed": false
        }
      ],
      "logsBloom": "0x00200000000000000000000000000000000000000000000000000000000000000000000000000000000000000000000000000000800000000000000000200000000000000000000000004000000000000000000000000800000000000000000000000000000000000000000000000000000000000000000000000000000000000000008000000000000200000000000800008000000000000000000000000000020000000000000000000000000000000800000000000000000000000000000000000000000000000000000000000000000000000000000000000000000000000010000000000000000000000000000000000000000000000000000000000000",
      "type": "0x2",
      "transactionHash": "0x458b812b8498b614bd69a37e262ad389f2719e28adf9947881b6693284804a59",
      "transactionIndex": "0x7a",
      "blockHash": "0x5456844106e509115e2436aa3daf29d99acea2a433cbf37d6ca7128808f08a80",
      "blockNumber": "0xa0b10a",
      "gasUsed": "0x66b1",
      "effectiveGasPrice": "0xf4251",
      "from": "0x8822f2965090ddc102f7de354dfd6e642c090269",
      "to": "0xea20820719c5ae04bce9a098e209f4d8c60daf06",
      "contractAddress": null
    },
    {
      "status": "0x1",
      "cumulativeGasUsed": "0x13b3be1",
      "logs": [
        {
          "address": "0x000000000022d473030f116ddee9f6b43ac78ba3",
          "topics": [
            "0xda9fa7c1b00402c17d0161b249b1ab8bbec047c5a52207b9c112deffd817036b",
            "0x0000000000000000000000008822f2965090ddc102f7de354dfd6e642c090269",
            "0x000000000000000000000000ea20820719c5ae04bce9a098e209f4d8c60daf06",
            "0x000000000000000000000000429ba70129df741b2ca2a85bc3a2a3328e5c09b4"
          ],
          "data": "0x000000000000000000000000ffffffffffffffffffffffffffffffffffffffff0000000000000000000000000000000000000000000000000000ffffffffffff",
          "blockHash": "0x5456844106e509115e2436aa3daf29d99acea2a433cbf37d6ca7128808f08a80",
          "blockNumber": "0xa0b10a",
          "blockTimestamp": "0x69c62d0c",
          "transactionHash": "0x15cd544a80814c312071b2be403690d91afd1be2e9b15cab941f8b8070d8108a",
          "transactionIndex": "0x7b",
          "logIndex": "0x28e",
          "removed": false
        }
      ],
      "logsBloom": "0x00210000000000000000000000000000000000000000000000000000000000000000000000000040080000000000000000000000000000000000000000080000000000000000000000000000000000000000000000000000000000000000000000000000000000008000000000000000000000000000000000000800000000000020008000000000000000000000000000000000000000000000000000000000000000000000000000000000000000000800000000000200000000080000000000000000000000000000000000000000000000000000000040000000000000000000000000000000000000000000000000040000000000000000000000000400",
      "type": "0x2",
      "transactionHash": "0x15cd544a80814c312071b2be403690d91afd1be2e9b15cab941f8b8070d8108a",
      "transactionIndex": "0x7b",
      "blockHash": "0x5456844106e509115e2436aa3daf29d99acea2a433cbf37d6ca7128808f08a80",
      "blockNumber": "0xa0b10a",
      "gasUsed": "0x6d0e",
      "effectiveGasPrice": "0xf4251",
      "from": "0x8822f2965090ddc102f7de354dfd6e642c090269",
      "to": "0x000000000022d473030f116ddee9f6b43ac78ba3",
      "contractAddress": null
    },
    {
      "status": "0x1",
      "cumulativeGasUsed": "0x1489d73",
      "logs": [
        {
          "address": "0xe03a1074c86cfedd5c142c4f04f1a1536e203543",
          "topics": [
            "0xdd466e674ea557f56295e2d0218a125ea4b4f0f6f3307b95f85e6110838d6438",
            "0xba2415fc01ed85a3d25851781010603b97dd54352481342f9c45b1d739a1763d",
            "0x0000000000000000000000002794a0b7187bfcd81d2b6d05e8a6e6cae3f97ffa",
            "0x000000000000000000000000ea20820719c5ae04bce9a098e209f4d8c60daf06"
          ],
          "data": "0x0000000000000000000000000000000000000000000000000000000000000bb8000000000000000000000000000000000000000000000000000000000000003c0000000000000000000000006a755997d7b06900fc3afa8085a76c7182658ac800000000000000000000000000000000000000010000000000000000000000000000000000000000000000000000000000000000000000000000000000000000",
          "blockHash": "0x49cca94779e0262e9a7c166428e12e296697d64c60842095413d6662b0b84ffa",
          "blockNumber": "0xa0b10b",
          "blockTimestamp": "0x69c62d18",
          "transactionHash": "0x05b20b7901fdfd6f66e9811f8eace31faeecf54b9b0da8f51badbaa8759128f9",
          "transactionIndex": "0x87",
          "logIndex": "0x356",
          "removed": false
        }
      ],
      "logsBloom": "0x00000000000000000000000100000020000000000000000000000000000000000000810000000000000000000000000000000100000000000000000000000000000000000000000000000000000000000000001000000000000000000000000000000000000000008000000000000000000000000000100000000000000000000000000000000008000000000000000000000001000000000000000000200000000000000000000000000000000000000000000000000210000000000000000000000000000000000000000000000000000000000000000000000000000000001000000000000000000000000000000000040000000000000000000000000000",
      "type": "0x2",
      "transactionHash": "0x05b20b7901fdfd6f66e9811f8eace31faeecf54b9b0da8f51badbaa8759128f9",
      "transactionIndex": "0x87",
      "blockHash": "0x49cca94779e0262e9a7c166428e12e296697d64c60842095413d6662b0b84ffa",
      "blockNumber": "0xa0b10b",
      "gasUsed": "0xca0a",
      "effectiveGasPrice": "0xf4251",
      "from": "0x8822f2965090ddc102f7de354dfd6e642c090269",
      "to": "0xe03a1074c86cfedd5c142c4f04f1a1536e203543",
      "contractAddress": null
    },
    {
      "status": "0x1",
      "cumulativeGasUsed": "0x14e9b51",
      "logs": [
        {
          "address": "0x429ba70129df741b2ca2a85bc3a2a3328e5c09b4",
          "topics": [
            "0xddf252ad1be2c89b69c2b068fc378daa952ba7f163c4a11628f55a4df523b3ef",
            "0x0000000000000000000000000000000000000000000000000000000000000000",
            "0x0000000000000000000000008822f2965090ddc102f7de354dfd6e642c090269",
            "0x0000000000000000000000000000000000000000000000000000000000006243"
          ],
          "data": "0x",
          "blockHash": "0x49cca94779e0262e9a7c166428e12e296697d64c60842095413d6662b0b84ffa",
          "blockNumber": "0xa0b10b",
          "blockTimestamp": "0x69c62d18",
          "transactionHash": "0x6df5dc85f9b3495200bff8c5fded662c3d95228fe19c0d277e59a66b8b6ae5ed",
          "transactionIndex": "0x88",
          "logIndex": "0x357",
          "removed": false
        },
        {
          "address": "0xe03a1074c86cfedd5c142c4f04f1a1536e203543",
          "topics": [
            "0xf208f4912782fd25c7f114ca3723a2d5dd6f3bcc3ac8db5af63baa85f711d5ec",
            "0xba2415fc01ed85a3d25851781010603b97dd54352481342f9c45b1d739a1763d",
            "0x000000000000000000000000429ba70129df741b2ca2a85bc3a2a3328e5c09b4"
          ],
          "data": "0xfffffffffffffffffffffffffffffffffffffffffffffffffffffffffffffda80000000000000000000000000000000000000000000000000000000000000258000000000000000000000000000000000000000000000001d596f2cc56cdb1630000000000000000000000000000000000000000000000000000000000006243",
          "blockHash": "0x49cca94779e0262e9a7c166428e12e296697d64c60842095413d6662b0b84ffa",
          "blockNumber": "0xa0b10b",
          "blockTimestamp": "0x69c62d18",
          "transactionHash": "0x6df5dc85f9b3495200bff8c5fded662c3d95228fe19c0d277e59a66b8b6ae5ed",
          "transactionIndex": "0x88",
          "logIndex": "0x358",
          "removed": false
        },
        {
          "address": "0x2794a0b7187bfcd81d2b6d05e8a6e6cae3f97ffa",
          "topics": [
            "0xddf252ad1be2c89b69c2b068fc378daa952ba7f163c4a11628f55a4df523b3ef",
            "0x0000000000000000000000008822f2965090ddc102f7de354dfd6e642c090269",
            "0x000000000000000000000000e03a1074c86cfedd5c142c4f04f1a1536e203543"
          ],
          "data": "0x0000000000000000000000000000000000000000000000000de0b6b3a7640000",
          "blockHash": "0x49cca94779e0262e9a7c166428e12e296697d64c60842095413d6662b0b84ffa",
          "blockNumber": "0xa0b10b",
          "blockTimestamp": "0x69c62d18",
          "transactionHash": "0x6df5dc85f9b3495200bff8c5fded662c3d95228fe19c0d277e59a66b8b6ae5ed",
          "transactionIndex": "0x88",
          "logIndex": "0x359",
          "removed": false
        },
        {
          "address": "0xea20820719c5ae04bce9a098e209f4d8c60daf06",
          "topics": [
            "0xddf252ad1be2c89b69c2b068fc378daa952ba7f163c4a11628f55a4df523b3ef",
            "0x0000000000000000000000008822f2965090ddc102f7de354dfd6e642c090269",
            "0x000000000000000000000000e03a1074c86cfedd5c142c4f04f1a1536e203543"
          ],
          "data": "0x0000000000000000000000000000000000000000000000000de0b6b3a7640000",
          "blockHash": "0x49cca94779e0262e9a7c166428e12e296697d64c60842095413d6662b0b84ffa",
          "blockNumber": "0xa0b10b",
          "blockTimestamp": "0x69c62d18",
          "transactionHash": "0x6df5dc85f9b3495200bff8c5fded662c3d95228fe19c0d277e59a66b8b6ae5ed",
          "transactionIndex": "0x88",
          "logIndex": "0x35a",
          "removed": false
        }
      ],
      "logsBloom": "0x00200000000000000000001000000020000000000000000000000000080000000000010002000040080000000000000000000100000000000000000000000000000000000000000000000008000000000000000000000000000000000000000000000000020000000000000080000800000000000000100000000810000000000000008001000000000210000000000808008000000000200000000000000000000004000000000000000000000800000800000000400010000000000000000400000002000000000000000000000000000000000000000000001000000020001000000000000800000000000000000004000000000000000000000000000000",
      "type": "0x2",
      "transactionHash": "0x6df5dc85f9b3495200bff8c5fded662c3d95228fe19c0d277e59a66b8b6ae5ed",
      "transactionIndex": "0x88",
      "blockHash": "0x49cca94779e0262e9a7c166428e12e296697d64c60842095413d6662b0b84ffa",
      "blockNumber": "0xa0b10b",
      "gasUsed": "0x5fdde",
      "effectiveGasPrice": "0xf4251",
      "from": "0x8822f2965090ddc102f7de354dfd6e642c090269",
      "to": "0x429ba70129df741b2ca2a85bc3a2a3328e5c09b4",
      "contractAddress": null
    }
  ],
  "libraries": [],
  "pending": [],
  "returns": {},
  "timestamp": 1774595353140,
  "chain": 11155111,
  "commit": "87e1a12"
}