{
  "transactions": [
    {
      "hash": "0x09049d3f3554e60f813dc742738965f2f7d7771ad2af6b5a603d06697c6c5031",
      "transactionType": "CALL",
      "contractName": null,
      "contractAddress": "0x2794a0b7187bfcd81d2b6d05e8a6e6cae3f97ffa",
      "function": "approve(address,uint256)",
      "arguments": [
        "0x000000000022D473030F116dDEE9F6B43aC78BA3",
        "115792089237316195423570985008687907853269984665640564039457584007913129639935"
      ],
      "transaction": {
        "from": "0x8822f2965090ddc102f7de354dfd6e642c090269",
        "to": "0x2794a0b7187bfcd81d2b6d05e8a6e6cae3f97ffa",
        "gas": "0x962f",
        "value": "0x0",
        "input": "0x095ea7b3000000000000000000000000000000000022d473030f116ddee9f6b43ac78ba3ffffffffffffffffffffffffffffffffffffffffffffffffffffffffffffffff",
        "nonce": "0x288",
        "chainId": "0xaa36a7"
      },
      "additionalContracts": [],
      "isFixedGasLimit": false
    },
    {
      "hash": "0xb128caafb0ed6cf7d21fa2c65522783a9ea2c799b8c453a4a79ac44e6ecb17b2",
      "transactionType": "CALL",
      "contractName": null,
      "contractAddress": "0x000000000022d473030f116ddee9f6b43ac78ba3",
      "function": "approve(address,address,uint160,uint48)",
      "arguments": [
        "0x2794a0b7187BFCd81D2b6d05E8a6e6cAE3F97fFa",
        "0x429ba70129df741B2Ca2a85BC3A2a3328e5c09b4",
        "1461501637330902918203684832716283019655932542975",
        "281474976710655"
      ],
      "transaction": {
        "from": "0x8822f2965090ddc102f7de354dfd6e642c090269",
        "to": "0x000000000022d473030f116ddee9f6b43ac78ba3",
        "gas": "0x96a0",
        "value": "0x0",
        "input": "0x87517c450000000000000000000000002794a0b7187bfcd81d2b6d05e8a6e6cae3f97ffa000000000000000000000000429ba70129df741b2ca2a85bc3a2a3328e5c09b4000000000000000000000000ffffffffffffffffffffffffffffffffffffffff0000000000000000000000000000000000000000000000000000ffffffffffff",
        "nonce": "0x289",
        "chainId": "0xaa36a7"
      },
      "additionalContracts": [],
      "isFixedGasLimit": false
    },
    {
      "hash": "0x0fae7024326eb244754ff590db24c101a87e0d4d4163433b285b7d35261f24b1",
      "transactionType": "CALL",
      "contractName": null,
      "contractAddress": "0xea20820719c5ae04bce9a098e209f4d8c60daf06",
      "function": "approve(address,uint256)",
      "arguments": [
        "0x000000000022D473030F116dDEE9F6B43aC78BA3",
        "115792089237316195423570985008687907853269984665640564039457584007913129639935"
      ],
      "transaction": {
        "from": "0x8822f2965090ddc102f7de354dfd6e642c090269",
        "to": "0xea20820719c5ae04bce9a098e209f4d8c60daf06",
        "gas": "0x962f",
        "value": "0x0",
        "input": "0x095ea7b3000000000000000000000000000000000022d473030f116ddee9f6b43ac78ba3ffffffffffffffffffffffffffffffffffffffffffffffffffffffffffffffff",
        "nonce": "0x28a",
        "chainId": "0xaa36a7"
      },
      "additionalContracts": [],
      "isFixedGasLimit": false
    },
    {
      "hash": "0x6f20dcc95a4115ce8eb1811c3e30fd20a3f7e4b5b7fbc3551b11f8ebafe5fb32",
      "transactionType": "CALL",
      "contractName": null,
      "contractAddress": "0x000000000022d473030f116ddee9f6b43ac78ba3",
      "function": "approve(address,address,uint160,uint48)",
      "arguments": [
        "0xEa20820719c5Ae04Bce9A098E209f4d8C60DAF06",
        "0x429ba70129df741B2Ca2a85BC3A2a3328e5c09b4",
        "1461501637330902918203684832716283019655932542975",
        "281474976710655"
      ],
      "transaction": {
        "from": "0x8822f2965090ddc102f7de354dfd6e642c090269",
        "to": "0x000000000022d473030f116ddee9f6b43ac78ba3",
        "gas": "0x96a0",
        "value": "0x0",
        "input": "0x87517c45000000000000000000000000ea20820719c5ae04bce9a098e209f4d8c60daf06000000000000000000000000429ba70129df741b2ca2a85bc3a2a3328e5c09b4000000000000000000000000ffffffffffffffffffffffffffffffffffffffff0000000000000000000000000000000000000000000000000000ffffffffffff",
        "nonce": "0x28b",
        "chainId": "0xaa36a7"
      },
      "additionalContracts": [],
      "isFixedGasLimit": false
    },
    {
      "hash": "0x360bc9b2e370708bf18484d59c050409d7a90be78691b48451f23e9cbb020bd4",
      "transactionType": "CALL",
      "contractName": null,
      "contractAddress": "0xe03a1074c86cfedd5c142c4f04f1a1536e203543",
      "function": "initialize((address,address,uint24,int24,address),uint160)",
      "arguments": [
        "(0x2794a0b7187BFCd81D2b6d05E8a6e6cAE3F97fFa, 0xEa20820719c5Ae04Bce9A098E209f4d8C60DAF06, 3000, 60, 0x88DA25240de9a2B8baCCa378E00684958E0a8ac8)",
        "79228162514264337593543950336"
      ],
      "transaction": {
        "from": "0x8822f2965090ddc102f7de354dfd6e642c090269",
        "to": "0xe03a1074c86cfedd5c142c4f04f1a1536e203543",
        "gas": "0x11721",
        "value": "0x0",
        "input": "0x6276cbbe0000000000000000000000002794a0b7187bfcd81d2b6d05e8a6e6cae3f97ffa000000000000000000000000ea20820719c5ae04bce9a098e209f4d8c60daf060000000000000000000000000000000000000000000000000000000000000bb8000000000000000000000000000000000000000000000000000000000000003c00000000000000000000000088da25240de9a2b8bacca378e00684958e0a8ac80000000000000000000000000000000000000001000000000000000000000000",
        "nonce": "0x28c",
        "chainId": "0xaa36a7"
      },
      "additionalContracts": [],
      "isFixedGasLimit": false
    },
    {
      "hash": "0x409731e98b843edfafc2863c76b5850b587e51a7d6323af7e58940fae71154eb",
      "transactionType": "CALL",
      "contractName": null,
      "contractAddress": "0x429ba70129df741b2ca2a85bc3a2a3328e5c09b4",
      "function": "modifyLiquidities(bytes,uint256)",
      "arguments": [
        "0x000000000000000000000000000000000000000000000000000000000000004000000000000000000000000000000000000000000000000000000000000000800000000000000000000000000000000000000000000000000000000000000002020d00000000000000000000000000000000000000000000000000000000000000000000000000000000000000000000000000000000000000000000000000020000000000000000000000000000000000000000000000000000000000000040000000000000000000000000000000000000000000000000000000000000020000000000000000000000000000000000000000000000000000000000000001a00000000000000000000000002794a0b7187bfcd81d2b6d05e8a6e6cae3f97ffa000000000000000000000000ea20820719c5ae04bce9a098e209f4d8c60daf060000000000000000000000000000000000000000000000000000000000000bb8000000000000000000000000000000000000000000000000000000000000003c00000000000000000000000088da25240de9a2b8bacca378e00684958e0a8ac8fffffffffffffffffffffffffffffffffffffffffffffffffffffffffffffda80000000000000000000000000000000000000000000000000000000000000258000000000000000000000000000000000000000000000001d596f2cc56cdb1630000000000000000000000000000000000000000000000000de0b6b3a76400010000000000000000000000000000000000000000000000000de0b6b3a76400010000000000000000000000008822f2965090ddc102f7de354dfd6e642c0902690000000000000000000000000000000000000000000000000000000000000180000000000000000000000000000000000000000000000000000000000000000000000000000000000000000000000000000000000000000000000000000000400000000000000000000000002794a0b7187bfcd81d2b6d05e8a6e6cae3f97ffa000000000000000000000000ea20820719c5ae04bce9a098e209f4d8c60daf06",
        "1774349748"
      ],
      "transaction": {
        "from": "0x8822f2965090ddc102f7de354dfd6e642c090269",
        "to": "0x429ba70129df741b2ca2a85bc3a2a3328e5c09b4",
        "gas": "0x8c26d",
        "value": "0x0",
        "input": "0xdd46508f00000000000000000000000000000000000000000000000000000000000000400000000000000000000000000000000000000000000000000000000069c26db40000000000000000000000000000000000000000000000000000000000000300000000000000000000000000000000000000000000000000000000000000004000000000000000000000000000000000000000000000000000000000000000800000000000000000000000000000000000000000000000000000000000000002020d00000000000000000000000000000000000000000000000000000000000000000000000000000000000000000000000000000000000000000000000000020000000000000000000000000000000000000000000000000000000000000040000000000000000000000000000000000000000000000000000000000000020000000000000000000000000000000000000000000000000000000000000001a00000000000000000000000002794a0b7187bfcd81d2b6d05e8a6e6cae3f97ffa000000000000000000000000ea20820719c5ae04bce9a098e209f4d8c60daf060000000000000000000000000000000000000000000000000000000000000bb8000000000000000000000000000000000000000000000000000000000000003c00000000000000000000000088da25240de9a2b8bacca378e00684958e0a8ac8fffffffffffffffffffffffffffffffffffffffffffffffffffffffffffffda80000000000000000000000000000000000000000000000000000000000000258000000000000000000000000000000000000000000000001d596f2cc56cdb1630000000000000000000000000000000000000000000000000de0b6b3a76400010000000000000000000000000000000000000000000000000de0b6b3a76400010000000000000000000000008822f2965090ddc102f7de354dfd6e642c0902690000000000000000000000000000000000000000000000000000000000000180000000000000000000000000000000000000000000000000000000000000000000000000000000000000000000000000000000000000000000000000000000400000000000000000000000002794a0b7187bfcd81d2b6d05e8a6e6cae3f97ffa000000000000000000000000ea20820719c5ae04bce9a098e209f4d8c60daf06",
        "nonce": "0x28d",
        "chainId": "0xaa36a7"
      },
      "additionalContracts": [],
      "isFixedGasLimit": false
    }
  ],
  "receipts": [
    {
      "status": "0x1",
      "cumulativeGasUsed": "0x127a9b6",
      "logs": [
        {
          "address": "0x2794a0b7187bfcd81d2b6d05e8a6e6cae3f97ffa",
          "topics": [
            "0x8c5be1e5ebec7d5bd14f71427d1e84f3dd0314c0f7b2291e5b200ac8c7c3b925",
            "0x0000000000000000000000008822f2965090ddc102f7de354dfd6e642c090269",
            "0x000000000000000000000000000000000022d473030f116ddee9f6b43ac78ba3"
          ],
          "data": "0xffffffffffffffffffffffffffffffffffffffffffffffffffffffffffffffff",
          "blockHash": "0x52e295bae12c2d950df0917a74ae96657276087f39bf9dd83996acc3a6186d07",
          "blockNumber": "0xa06294",
          "blockTimestamp": "0x69c25fd4",
          "transactionHash": "0x09049d3f3554e60f813dc742738965f2f7d7771ad2af6b5a603d06697c6c5031",
          "transactionIndex": "0x63",
          "logIndex": "0x1e3",
          "removed": false
        }
      ],
      "logsBloom": "0x00200000000000000000000000000000000000000000000000000000000000000000000000000000000000000000000000000000800000000000000000200000000000000000000000004000000000000000000000000800000000000000000000000000000000000000000000000000000000000000000000000000000000000000008000000000000000000000000008000000000000000000000000000000020000000000000000000000000000000800000000000000000000000000000400000000000000000000000000000000000000000000000000000000000000000010000000000800000000000000000000000000000000000000000000000000",
      "type": "0x2",
      "transactionHash": "0x09049d3f3554e60f813dc742738965f2f7d7771ad2af6b5a603d06697c6c5031",
      "transactionIndex": "0x63",
      "blockHash": "0x52e295bae12c2d950df0917a74ae96657276087f39bf9dd83996acc3a6186d07",
      "blockNumber": "0xa06294",
      "gasUsed": "0x66b1",
      "effectiveGasPrice": "0xf437d",
      "from": "0x8822f2965090ddc102f7de354dfd6e642c090269",
      "to": "0x2794a0b7187bfcd81d2b6d05e8a6e6cae3f97ffa",
      "contractAddress": null
    },
    {
      "status": "0x1",
      "cumulativeGasUsed": "0x12816c4",
      "logs": [
        {
          "address": "0x000000000022d473030f116ddee9f6b43ac78ba3",
          "topics": [
            "0xda9fa7c1b00402c17d0161b249b1ab8bbec047c5a52207b9c112deffd817036b",
            "0x0000000000000000000000008822f2965090ddc102f7de354dfd6e642c090269",
            "0x0000000000000000000000002794a0b7187bfcd81d2b6d05e8a6e6cae3f97ffa",
            "0x000000000000000000000000429ba70129df741b2ca2a85bc3a2a3328e5c09b4"
          ],
          "data": "0x000000000000000000000000ffffffffffffffffffffffffffffffffffffffff0000000000000000000000000000000000000000000000000000ffffffffffff",
          "blockHash": "0x52e295bae12c2d950df0917a74ae96657276087f39bf9dd83996acc3a6186d07",
          "blockNumber": "0xa06294",
          "blockTimestamp": "0x69c25fd4",
          "transactionHash": "0xb128caafb0ed6cf7d21fa2c65522783a9ea2c799b8c453a4a79ac44e6ecb17b2",
          "transactionIndex": "0x64",
          "logIndex": "0x1e4",
          "removed": false
        }
      ],
      "logsBloom": "0x00210000000000000000000100000000000000000000000000000000000000000000800000000040080000000000000000000000000000000000000000080000000000000000000000000000000000000000001000000000000000000000000000000000000000000000000000000000000000000000000000000800000000000020008000000000000000000000000000000000000000000000000000000000000000000000000000000000000000000800000000000000000000080000000000000000000000000000000000000000000000000000000040000000000000000000000000000000000000000000000000000000000000000000000000000400",
      "type": "0x2",
      "transactionHash": "0xb128caafb0ed6cf7d21fa2c65522783a9ea2c799b8c453a4a79ac44e6ecb17b2",
      "transactionIndex": "0x64",
      "blockHash": "0x52e295bae12c2d950df0917a74ae96657276087f39bf9dd83996acc3a6186d07",
      "blockNumber": "0xa06294",
      "gasUsed": "0x6d0e",
      "effectiveGasPrice": "0xf437d",
      "from": "0x8822f2965090ddc102f7de354dfd6e642c090269",
      "to": "0x000000000022d473030f116ddee9f6b43ac78ba3",
      "contractAddress": null
    },
    {
      "status": "0x1",
      "cumulativeGasUsed": "0x1365ee4",
      "logs": [
        {
          "address": "0xea20820719c5ae04bce9a098e209f4d8c60daf06",
          "topics": [
            "0x8c5be1e5ebec7d5bd14f71427d1e84f3dd0314c0f7b2291e5b200ac8c7c3b925",
            "0x0000000000000000000000008822f2965090ddc102f7de354dfd6e642c090269",
            "0x000000000000000000000000000000000022d473030f116ddee9f6b43ac78ba3"
          ],
          "data": "0xffffffffffffffffffffffffffffffffffffffffffffffffffffffffffffffff",
          "blockHash": "0x25fa31e2a867c5824ce7daf59f7f5f928360ffd1b074f446e1a4cae889682ea6",
          "blockNumber": "0xa06299",
          "blockTimestamp": "0x69c26010",
          "transactionHash": "0x0fae7024326eb244754ff590db24c101a87e0d4d4163433b285b7d35261f24b1",
          "transactionIndex": "0x6b",
          "logIndex": "0x346",
          "removed": false
        }
      ],
      "logsBloom": "0x00200000000000000000000000000000000000000000000000000000000000000000000000000000000000000000000000000000800000000000000000200000000000000000000000004000000000000000000000000800000000000000000000000000000000000000000000000000000000000000000000000000000000000000008000000000000200000000000800008000000000000000000000000000020000000000000000000000000000000800000000000000000000000000000000000000000000000000000000000000000000000000000000000000000000000010000000000000000000000000000000000000000000000000000000000000",
      "type": "0x2",
      "transactionHash": "0x0fae7024326eb244754ff590db24c101a87e0d4d4163433b285b7d35261f24b1",
      "transactionIndex": "0x6b",
      "blockHash": "0x25fa31e2a867c5824ce7daf59f7f5f928360ffd1b074f446e1a4cae889682ea6",
      "blockNumber": "0xa06299",
      "gasUsed": "0x66b1",
      "effectiveGasPrice": "0xf437c",
      "from": "0x8822f2965090ddc102f7de354dfd6e642c090269",
      "to": "0xea20820719c5ae04bce9a098e209f4d8c60daf06",
      "contractAddress": null
    },
    {
      "status": "0x1",
      "cumulativeGasUsed": "0x1624e65",
      "logs": [
        {
          "address": "0x000000000022d473030f116ddee9f6b43ac78ba3",
          "topics": [
            "0xda9fa7c1b00402c17d0161b249b1ab8bbec047c5a52207b9c112deffd817036b",
            "0x0000000000000000000000008822f2965090ddc102f7de354dfd6e642c090269",
            "0x000000000000000000000000ea20820719c5ae04bce9a098e209f4d8c60daf06",
            "0x000000000000000000000000429ba70129df741b2ca2a85bc3a2a3328e5c09b4"
          ],
          "data": "0x000000000000000000000000ffffffffffffffffffffffffffffffffffffffff0000000000000000000000000000000000000000000000000000ffffffffffff",
          "blockHash": "0x25fa31e2a867c5824ce7daf59f7f5f928360ffd1b074f446e1a4cae889682ea6",
          "blockNumber": "0xa06299",
          "blockTimestamp": "0x69c26010",
          "transactionHash": "0x6f20dcc95a4115ce8eb1811c3e30fd20a3f7e4b5b7fbc3551b11f8ebafe5fb32",
          "transactionIndex": "0x73",
          "logIndex": "0x364",
          "removed": false
        }
      ],
      "logsBloom": "0x00210000000000000000000000000000000000000000000000000000000000000000000000000040080000000000000000000000000000000000000000080000000000000000000000000000000000000000000000000000000000000000000000000000000000008000000000000000000000000000000000000800000000000020008000000000000000000000000000000000000000000000000000000000000000000000000000000000000000000800000000000200000000080000000000000000000000000000000000000000000000000000000040000000000000000000000000000000000000000000000000040000000000000000000000000400",
      "type": "0x2",
      "transactionHash": "0x6f20dcc95a4115ce8eb1811c3e30fd20a3f7e4b5b7fbc3551b11f8ebafe5fb32",
      "transactionIndex": "0x73",
      "blockHash": "0x25fa31e2a867c5824ce7daf59f7f5f928360ffd1b074f446e1a4cae889682ea6",
      "blockNumber": "0xa06299",
      "gasUsed": "0x6d0e",
      "effectiveGasPrice": "0xf437c",
      "from": "0x8822f2965090ddc102f7de354dfd6e642c090269",
      "to": "0x000000000022d473030f116ddee9f6b43ac78ba3",
      "contractAddress": null
    },
    {
      "status": "0x1",
      "cumulativeGasUsed": "0x163187b",
      "logs": [
        {
          "address": "0xe03a1074c86cfedd5c142c4f04f1a1536e203543",
          "topics": [
            "0xdd466e674ea557f56295e2d0218a125ea4b4f0f6f3307b95f85e6110838d6438",
            "0xf4e141b687622e80d56615bb46da03d686b822d1f82942817f709be814457bfa",
            "0x0000000000000000000000002794a0b7187bfcd81d2b6d05e8a6e6cae3f97ffa",
            "0x000000000000000000000000ea20820719c5ae04bce9a098e209f4d8c60daf06"
          ],
          "data": "0x0000000000000000000000000000000000000000000000000000000000000bb8000000000000000000000000000000000000000000000000000000000000003c00000000000000000000000088da25240de9a2b8bacca378e00684958e0a8ac800000000000000000000000000000000000000010000000000000000000000000000000000000000000000000000000000000000000000000000000000000000",
          "blockHash": "0x25fa31e2a867c5824ce7daf59f7f5f928360ffd1b074f446e1a4cae889682ea6",
          "blockNumber": "0xa06299",
          "blockTimestamp": "0x69c26010",
          "transactionHash": "0x360bc9b2e370708bf18484d59c050409d7a90be78691b48451f23e9cbb020bd4",
          "transactionIndex": "0x74",
          "logIndex": "0x365",
          "removed": false
        }
      ],
      "logsBloom": "0x00000000000000000000000100000000000000000000000000010000000000000000800000000000000000000000000000000100000000000000000000000008000000000000000000000000000000000000001000000000000000000000000000000000000000008000000000000000000000000000110000000000000000000000000000000008000000000000000000000001000000000000000000200000000000000000000000000000000000000000000000000200000000000000000000000000000000000000000000000000000000000000000000000000000000001000000000000000000000000000000000040000000000000000000000000000",
      "type": "0x2",
      "transactionHash": "0x360bc9b2e370708bf18484d59c050409d7a90be78691b48451f23e9cbb020bd4",
      "transactionIndex": "0x74",
      "blockHash": "0x25fa31e2a867c5824ce7daf59f7f5f928360ffd1b074f446e1a4cae889682ea6",
      "blockNumber": "0xa06299",
      "gasUsed": "0xca16",
      "effectiveGasPrice": "0xf437c",
      "from": "0x8822f2965090ddc102f7de354dfd6e642c090269",
      "to": "0xe03a1074c86cfedd5c142c4f04f1a1536e203543",
      "contractAddress": null
    },
    {
      "status": "0x1",
      "cumulativeGasUsed": "0x16915c4",
      "logs": [
        {
          "address": "0x429ba70129df741b2ca2a85bc3a2a3328e5c09b4",
          "topics": [
            "0xddf252ad1be2c89b69c2b068fc378daa952ba7f163c4a11628f55a4df523b3ef",
            "0x0000000000000000000000000000000000000000000000000000000000000000",
            "0x0000000000000000000000008822f2965090ddc102f7de354dfd6e642c090269",
            "0x00000000000000000000000000000000000000000000000000000000000061d7"
          ],
          "data": "0x",
          "blockHash": "0x25fa31e2a867c5824ce7daf59f7f5f928360ffd1b074f446e1a4cae889682ea6",
          "blockNumber": "0xa06299",
          "blockTimestamp": "0x69c26010",
          "transactionHash": "0x409731e98b843edfafc2863c76b5850b587e51a7d6323af7e58940fae71154eb",
          "transactionIndex": "0x75",
          "logIndex": "0x366",
          "removed": false
        },
        {
          "address": "0xe03a1074c86cfedd5c142c4f04f1a1536e203543",
          "topics": [
            "0xf208f4912782fd25c7f114ca3723a2d5dd6f3bcc3ac8db5af63baa85f711d5ec",
            "0xf4e141b687622e80d56615bb46da03d686b822d1f82942817f709be814457bfa",
            "0x000000000000000000000000429ba70129df741b2ca2a85bc3a2a3328e5c09b4"
          ],
          "data": "0xfffffffffffffffffffffffffffffffffffffffffffffffffffffffffffffda80000000000000000000000000000000000000000000000000000000000000258000000000000000000000000000000000000000000000001d596f2cc56cdb16300000000000000000000000000000000000000000000000000000000000061d7",
          "blockHash": "0x25fa31e2a867c5824ce7daf59f7f5f928360ffd1b074f446e1a4cae889682ea6",
          "blockNumber": "0xa06299",
          "blockTimestamp": "0x69c26010",
          "transactionHash": "0x409731e98b843edfafc2863c76b5850b587e51a7d6323af7e58940fae71154eb",
          "transactionIndex": "0x75",
          "logIndex": "0x367",
          "removed": false
        },
        {
          "address": "0x2794a0b7187bfcd81d2b6d05e8a6e6cae3f97ffa",
          "topics": [
            "0xddf252ad1be2c89b69c2b068fc378daa952ba7f163c4a11628f55a4df523b3ef",
            "0x0000000000000000000000008822f2965090ddc102f7de354dfd6e642c090269",
            "0x000000000000000000000000e03a1074c86cfedd5c142c4f04f1a1536e203543"
          ],
          "data": "0x0000000000000000000000000000000000000000000000000de0b6b3a7640000",
          "blockHash": "0x25fa31e2a867c5824ce7daf59f7f5f928360ffd1b074f446e1a4cae889682ea6",
          "blockNumber": "0xa06299",
          "blockTimestamp": "0x69c26010",
          "transactionHash": "0x409731e98b843edfafc2863c76b5850b587e51a7d6323af7e58940fae71154eb",
          "transactionIndex": "0x75",
          "logIndex": "0x368",
          "removed": false
        },
        {
          "address": "0xea20820719c5ae04bce9a098e209f4d8c60daf06",
          "topics": [
            "0xddf252ad1be2c89b69c2b068fc378daa952ba7f163c4a11628f55a4df523b3ef",
            "0x0000000000000000000000008822f2965090ddc102f7de354dfd6e642c090269",
            "0x000000000000000000000000e03a1074c86cfedd5c142c4f04f1a1536e203543"
          ],
          "data": "0x0000000000000000000000000000000000000000000000000de0b6b3a7640000",
          "blockHash": "0x25fa31e2a867c5824ce7daf59f7f5f928360ffd1b074f446e1a4cae889682ea6",
          "blockNumber": "0xa06299",
          "blockTimestamp": "0x69c26010",
          "transactionHash": "0x409731e98b843edfafc2863c76b5850b587e51a7d6323af7e58940fae71154eb",
          "transactionIndex": "0x75",
          "logIndex": "0x369",
          "removed": false
        }
      ],
      "logsBloom": "0x00200000000000000000001000000000000000000000000000010000080000000000000000000040080000000000000000000100000000000000000000000008000000000000000000000008000000000000000000000000000000000000000000000000030000000000000080000800000000000000110000000810000000000000008001000040000210000000000808008000000000000000000000000000000004000000000004000000000000000800000000400000000000000000000400000002000000000000000000000000000000000000000000001000000020001000000000000800000000000000000004000000000000000000000000000000",
      "type": "0x2",
      "transactionHash": "0x409731e98b843edfafc2863c76b5850b587e51a7d6323af7e58940fae71154eb",
      "transactionIndex": "0x75",
      "blockHash": "0x25fa31e2a867c5824ce7daf59f7f5f928360ffd1b074f446e1a4cae889682ea6",
      "blockNumber": "0xa06299",
      "gasUsed": "0x5fd49",
      "effectiveGasPrice": "0xf437c",
      "from": "0x8822f2965090ddc102f7de354dfd6e642c090269",
      "to": "0x429ba70129df741b2ca2a85bc3a2a3328e5c09b4",
      "contractAddress": null
    }
  ],
  "libraries": [],
  "pending": [],
  "returns": {},
  "timestamp": 1774346257563,
  "chain": 11155111,
  "commit": "87e1a12"
}