{
  "transactions": [
    {
      "hash": "0x0e814cc86a8d2e1490b05b6bcb28d8bd4c02ced574b62da4b825bd26f0f0588b",
      "transactionType": "CALL",
      "contractName": null,
      "contractAddress": "0x2794a0b7187bfcd81d2b6d05e8a6e6cae3f97ffa",
      "function": "approve(address,uint256)",
      "arguments": [
        "0x000000000022D473030F116dDEE9F6B43aC78BA3",
        "115792089237316195423570985008687907853269984665640564039457584007913129639935"
      ],
      "transaction": {
        "from": "0x8822f2965090ddc102f7de354dfd6e642c090269",
        "to": "0x2794a0b7187bfcd81d2b6d05e8a6e6cae3f97ffa",
        "gas": "0x962f",
        "value": "0x0",
        "input": "0x095ea7b3000000000000000000000000000000000022d473030f116ddee9f6b43ac78ba3ffffffffffffffffffffffffffffffffffffffffffffffffffffffffffffffff",
        "nonce": "0x1e0",
        "chainId": "0xaa36a7"
      },
      "additionalContracts": [],
      "isFixedGasLimit": false
    },
    {
      "hash": "0xef31fa2bad25dce1d75b7de75dbd866db74350bc02cfede0559f1957d65e6668",
      "transactionType": "CALL",
      "contractName": null,
      "contractAddress": "0x000000000022d473030f116ddee9f6b43ac78ba3",
      "function": "approve(address,address,uint160,uint48)",
      "arguments": [
        "0x2794a0b7187BFCd81D2b6d05E8a6e6cAE3F97fFa",
        "0x429ba70129df741B2Ca2a85BC3A2a3328e5c09b4",
        "1461501637330902918203684832716283019655932542975",
        "281474976710655"
      ],
      "transaction": {
        "from": "0x8822f2965090ddc102f7de354dfd6e642c090269",
        "to": "0x000000000022d473030f116ddee9f6b43ac78ba3",
        "gas": "0x96a0",
        "value": "0x0",
        "input": "0x87517c450000000000000000000000002794a0b7187bfcd81d2b6d05e8a6e6cae3f97ffa000000000000000000000000429ba70129df741b2ca2a85bc3a2a3328e5c09b4000000000000000000000000ffffffffffffffffffffffffffffffffffffffff0000000000000000000000000000000000000000000000000000ffffffffffff",
        "nonce": "0x1e1",
        "chainId": "0xaa36a7"
      },
      "additionalContracts": [],
      "isFixedGasLimit": false
    },
    {
      "hash": "0xbdd2edd4ecc3a88fb38985829cc09c206e43eb2d71cf650bff65c35d9951cb12",
      "transactionType": "CALL",
      "contractName": null,
      "contractAddress": "0xea20820719c5ae04bce9a098e209f4d8c60daf06",
      "function": "approve(address,uint256)",
      "arguments": [
        "0x000000000022D473030F116dDEE9F6B43aC78BA3",
        "115792089237316195423570985008687907853269984665640564039457584007913129639935"
      ],
      "transaction": {
        "from": "0x8822f2965090ddc102f7de354dfd6e642c090269",
        "to": "0xea20820719c5ae04bce9a098e209f4d8c60daf06",
        "gas": "0x962f",
        "value": "0x0",
        "input": "0x095ea7b3000000000000000000000000000000000022d473030f116ddee9f6b43ac78ba3ffffffffffffffffffffffffffffffffffffffffffffffffffffffffffffffff",
        "nonce": "0x1e2",
        "chainId": "0xaa36a7"
      },
      "additionalContracts": [],
      "isFixedGasLimit": false
    },
    {
      "hash": "0x767ecdf3a03e263fa6ad2ee7594b58aa482b49a0d8bbe59f4c0dbd674333cce3",
      "transactionType": "CALL",
      "contractName": null,
      "contractAddress": "0x000000000022d473030f116ddee9f6b43ac78ba3",
      "function": "approve(address,address,uint160,uint48)",
      "arguments": [
        "0xEa20820719c5Ae04Bce9A098E209f4d8C60DAF06",
        "0x429ba70129df741B2Ca2a85BC3A2a3328e5c09b4",
        "1461501637330902918203684832716283019655932542975",
        "281474976710655"
      ],
      "transaction": {
        "from": "0x8822f2965090ddc102f7de354dfd6e642c090269",
        "to": "0x000000000022d473030f116ddee9f6b43ac78ba3",
        "gas": "0x96a0",
        "value": "0x0",
        "input": "0x87517c45000000000000000000000000ea20820719c5ae04bce9a098e209f4d8c60daf06000000000000000000000000429ba70129df741b2ca2a85bc3a2a3328e5c09b4000000000000000000000000ffffffffffffffffffffffffffffffffffffffff0000000000000000000000000000000000000000000000000000ffffffffffff",
        "nonce": "0x1e3",
        "chainId": "0xaa36a7"
      },
      "additionalContracts": [],
      "isFixedGasLimit": false
    },
    {
      "hash": "0x10ba051d28de640d14079e291beeeb8bca49d0c753612d57d965431539a5a948",
      "transactionType": "CALL",
      "contractName": null,
      "contractAddress": "0xe03a1074c86cfedd5c142c4f04f1a1536e203543",
      "function": "initialize((address,address,uint24,int24,address),uint160)",
      "arguments": [
        "(0x2794a0b7187BFCd81D2b6d05E8a6e6cAE3F97fFa, 0xEa20820719c5Ae04Bce9A098E209f4d8C60DAF06, 3000, 60, 0xC094D37f8d02b8F5Df70E862B9D161a84b9f8aC0)",
        "79228162514264337593543950336"
      ],
      "transaction": {
        "from": "0x8822f2965090ddc102f7de354dfd6e642c090269",
        "to": "0xe03a1074c86cfedd5c142c4f04f1a1536e203543",
        "gas": "0x11721",
        "value": "0x0",
        "input": "0x6276cbbe0000000000000000000000002794a0b7187bfcd81d2b6d05e8a6e6cae3f97ffa000000000000000000000000ea20820719c5ae04bce9a098e209f4d8c60daf060000000000000000000000000000000000000000000000000000000000000bb8000000000000000000000000000000000000000000000000000000000000003c000000000000000000000000c094d37f8d02b8f5df70e862b9d161a84b9f8ac00000000000000000000000000000000000000001000000000000000000000000",
        "nonce": "0x1e4",
        "chainId": "0xaa36a7"
      },
      "additionalContracts": [],
      "isFixedGasLimit": false
    },
    {
      "hash": "0x5bb6a4e2f05273e69b9cd968dd6a585b6ef09d910301ce5c9c3e0e9955aa0521",
      "transactionType": "CALL",
      "contractName": null,
      "contractAddress": "0x429ba70129df741b2ca2a85bc3a2a3328e5c09b4",
      "function": "modifyLiquidities(bytes,uint256)",
      "arguments": [
        "0x000000000000000000000000000000000000000000000000000000000000004000000000000000000000000000000000000000000000000000000000000000800000000000000000000000000000000000000000000000000000000000000002020d00000000000000000000000000000000000000000000000000000000000000000000000000000000000000000000000000000000000000000000000000020000000000000000000000000000000000000000000000000000000000000040000000000000000000000000000000000000000000000000000000000000020000000000000000000000000000000000000000000000000000000000000001a00000000000000000000000002794a0b7187bfcd81d2b6d05e8a6e6cae3f97ffa000000000000000000000000ea20820719c5ae04bce9a098e209f4d8c60daf060000000000000000000000000000000000000000000000000000000000000bb8000000000000000000000000000000000000000000000000000000000000003c000000000000000000000000c094d37f8d02b8f5df70e862b9d161a84b9f8ac0fffffffffffffffffffffffffffffffffffffffffffffffffffffffffffffda80000000000000000000000000000000000000000000000000000000000000258000000000000000000000000000000000000000000000001d596f2cc56cdb1630000000000000000000000000000000000000000000000000de0b6b3a76400010000000000000000000000000000000000000000000000000de0b6b3a76400010000000000000000000000008822f2965090ddc102f7de354dfd6e642c0902690000000000000000000000000000000000000000000000000000000000000180000000000000000000000000000000000000000000000000000000000000000000000000000000000000000000000000000000000000000000000000000000400000000000000000000000002794a0b7187bfcd81d2b6d05e8a6e6cae3f97ffa000000000000000000000000ea20820719c5ae04bce9a098e209f4d8c60daf06",
        "1771597848"
      ],
      "transaction": {
        "from": "0x8822f2965090ddc102f7de354dfd6e642c090269",
        "to": "0x429ba70129df741b2ca2a85bc3a2a3328e5c09b4",
        "gas": "0x8457d",
        "value": "0x0",
        "input": "0xdd46508f000000000000000000000000000000000000000000000000000000000000004000000000000000000000000000000000000000000000000000000000699870180000000000000000000000000000000000000000000000000000000000000300000000000000000000000000000000000000000000000000000000000000004000000000000000000000000000000000000000000000000000000000000000800000000000000000000000000000000000000000000000000000000000000002020d00000000000000000000000000000000000000000000000000000000000000000000000000000000000000000000000000000000000000000000000000020000000000000000000000000000000000000000000000000000000000000040000000000000000000000000000000000000000000000000000000000000020000000000000000000000000000000000000000000000000000000000000001a00000000000000000000000002794a0b7187bfcd81d2b6d05e8a6e6cae3f97ffa000000000000000000000000ea20820719c5ae04bce9a098e209f4d8c60daf060000000000000000000000000000000000000000000000000000000000000bb8000000000000000000000000000000000000000000000000000000000000003c000000000000000000000000c094d37f8d02b8f5df70e862b9d161a84b9f8ac0fffffffffffffffffffffffffffffffffffffffffffffffffffffffffffffda80000000000000000000000000000000000000000000000000000000000000258000000000000000000000000000000000000000000000001d596f2cc56cdb1630000000000000000000000000000000000000000000000000de0b6b3a76400010000000000000000000000000000000000000000000000000de0b6b3a76400010000000000000000000000008822f2965090ddc102f7de354dfd6e642c0902690000000000000000000000000000000000000000000000000000000000000180000000000000000000000000000000000000000000000000000000000000000000000000000000000000000000000000000000000000000000000000000000400000000000000000000000002794a0b7187bfcd81d2b6d05e8a6e6cae3f97ffa000000000000000000000000ea20820719c5ae04bce9a098e209f4d8c60daf06",
        "nonce": "0x1e5",
        "chainId": "0xaa36a7"
      },
      "additionalContracts": [],
      "isFixedGasLimit": false
    }
  ],
  "receipts": [
    {
      "status": "0x1",
      "cumulativeGasUsed": "0x18ad719",
      "logs": [
        {
          "address": "0x2794a0b7187bfcd81d2b6d05e8a6e6cae3f97ffa",
          "topics": [
            "0x8c5be1e5ebec7d5bd14f71427d1e84f3dd0314c0f7b2291e5b200ac8c7c3b925",
            "0x0000000000000000000000008822f2965090ddc102f7de354dfd6e642c090269",
            "0x000000000000000000000000000000000022d473030f116ddee9f6b43ac78ba3"
          ],
          "data": "0xffffffffffffffffffffffffffffffffffffffffffffffffffffffffffffffff",
          "blockHash": "0x2c6e587fe96fdca2e77c5bbb769a04cbd7e5e541a2300114fb52b788ee38b9d8",
          "blockNumber": "0x9d2a63",
          "blockTimestamp": "0x69987000",
          "transactionHash": "0x0e814cc86a8d2e1490b05b6bcb28d8bd4c02ced574b62da4b825bd26f0f0588b",
          "transactionIndex": "0x54",
          "logIndex": "0xe8",
          "removed": false
        }
      ],
      "logsBloom": "0x00200000000000000000000000000000000000000000000000000000000000000000000000000000000000000000000000000000800000000000000000200000000000000000000000004000000000000000000000000800000000000000000000000000000000000000000000000000000000000000000000000000000000000000008000000000000000000000000008000000000000000000000000000000020000000000000000000000000000000800000000000000000000000000000400000000000000000000000000000000000000000000000000000000000000000010000000000800000000000000000000000000000000000000000000000000",
      "type": "0x2",
      "transactionHash": "0x0e814cc86a8d2e1490b05b6bcb28d8bd4c02ced574b62da4b825bd26f0f0588b",
      "transactionIndex": "0x54",
      "blockHash": "0x2c6e587fe96fdca2e77c5bbb769a04cbd7e5e541a2300114fb52b788ee38b9d8",
      "blockNumber": "0x9d2a63",
      "gasUsed": "0x66b1",
      "effectiveGasPrice": "0x683fd71",
      "from": "0x8822f2965090ddc102f7de354dfd6e642c090269",
      "to": "0x2794a0b7187bfcd81d2b6d05e8a6e6cae3f97ffa",
      "contractAddress": null
    },
    {
      "status": "0x1",
      "cumulativeGasUsed": "0x18b4427",
      "logs": [
        {
          "address": "0x000000000022d473030f116ddee9f6b43ac78ba3",
          "topics": [
            "0xda9fa7c1b00402c17d0161b249b1ab8bbec047c5a52207b9c112deffd817036b",
            "0x0000000000000000000000008822f2965090ddc102f7de354dfd6e642c090269",
            "0x0000000000000000000000002794a0b7187bfcd81d2b6d05e8a6e6cae3f97ffa",
            "0x000000000000000000000000429ba70129df741b2ca2a85bc3a2a3328e5c09b4"
          ],
          "data": "0x000000000000000000000000ffffffffffffffffffffffffffffffffffffffff0000000000000000000000000000000000000000000000000000ffffffffffff",
          "blockHash": "0x2c6e587fe96fdca2e77c5bbb769a04cbd7e5e541a2300114fb52b788ee38b9d8",
          "blockNumber": "0x9d2a63",
          "blockTimestamp": "0x69987000",
          "transactionHash": "0xef31fa2bad25dce1d75b7de75dbd866db74350bc02cfede0559f1957d65e6668",
          "transactionIndex": "0x55",
          "logIndex": "0xe9",
          "removed": false
        }
      ],
      "logsBloom": "0x00210000000000000000000100000000000000000000000000000000000000000000800000000040080000000000000000000000000000000000000000080000000000000000000000000000000000000000001000000000000000000000000000000000000000000000000000000000000000000000000000000800000000000020008000000000000000000000000000000000000000000000000000000000000000000000000000000000000000000800000000000000000000080000000000000000000000000000000000000000000000000000000040000000000000000000000000000000000000000000000000000000000000000000000000000400",
      "type": "0x2",
      "transactionHash": "0xef31fa2bad25dce1d75b7de75dbd866db74350bc02cfede0559f1957d65e6668",
      "transactionIndex": "0x55",
      "blockHash": "0x2c6e587fe96fdca2e77c5bbb769a04cbd7e5e541a2300114fb52b788ee38b9d8",
      "blockNumber": "0x9d2a63",
      "gasUsed": "0x6d0e",
      "effectiveGasPrice": "0x683fd71",
      "from": "0x8822f2965090ddc102f7de354dfd6e642c090269",
      "to": "0x000000000022d473030f116ddee9f6b43ac78ba3",
      "contractAddress": null
    },
    {
      "status": "0x1",
      "cumulativeGasUsed": "0x18baad8",
      "logs": [
        {
          "address": "0xea20820719c5ae04bce9a098e209f4d8c60daf06",
          "topics": [
            "0x8c5be1e5ebec7d5bd14f71427d1e84f3dd0314c0f7b2291e5b200ac8c7c3b925",
            "0x0000000000000000000000008822f2965090ddc102f7de354dfd6e642c090269",
            "0x000000000000000000000000000000000022d473030f116ddee9f6b43ac78ba3"
          ],
          "data": "0xffffffffffffffffffffffffffffffffffffffffffffffffffffffffffffffff",
          "blockHash": "0x2c6e587fe96fdca2e77c5bbb769a04cbd7e5e541a2300114fb52b788ee38b9d8",
          "blockNumber": "0x9d2a63",
          "blockTimestamp": "0x69987000",
          "transactionHash": "0xbdd2edd4ecc3a88fb38985829cc09c206e43eb2d71cf650bff65c35d9951cb12",
          "transactionIndex": "0x56",
          "logIndex": "0xea",
          "removed": false
        }
      ],
      "logsBloom": "0x00200000000000000000000000000000000000000000000000000000000000000000000000000000000000000000000000000000800000000000000000200000000000000000000000004000000000000000000000000800000000000000000000000000000000000000000000000000000000000000000000000000000000000000008000000000000200000000000800008000000000000000000000000000020000000000000000000000000000000800000000000000000000000000000000000000000000000000000000000000000000000000000000000000000000000010000000000000000000000000000000000000000000000000000000000000",
      "type": "0x2",
      "transactionHash": "0xbdd2edd4ecc3a88fb38985829cc09c206e43eb2d71cf650bff65c35d9951cb12",
      "transactionIndex": "0x56",
      "blockHash": "0x2c6e587fe96fdca2e77c5bbb769a04cbd7e5e541a2300114fb52b788ee38b9d8",
      "blockNumber": "0x9d2a63",
      "gasUsed": "0x66b1",
      "effectiveGasPrice": "0x683fd71",
      "from": "0x8822f2965090ddc102f7de354dfd6e642c090269",
      "to": "0xea20820719c5ae04bce9a098e209f4d8c60daf06",
      "contractAddress": null
    },
    {
      "status": "0x1",
      "cumulativeGasUsed": "0x18c17e6",
      "logs": [
        {
          "address": "0x000000000022d473030f116ddee9f6b43ac78ba3",
          "topics": [
            "0xda9fa7c1b00402c17d0161b249b1ab8bbec047c5a52207b9c112deffd817036b",
            "0x0000000000000000000000008822f2965090ddc102f7de354dfd6e642c090269",
            "0x000000000000000000000000ea20820719c5ae04bce9a098e209f4d8c60daf06",
            "0x000000000000000000000000429ba70129df741b2ca2a85bc3a2a3328e5c09b4"
          ],
          "data": "0x000000000000000000000000ffffffffffffffffffffffffffffffffffffffff0000000000000000000000000000000000000000000000000000ffffffffffff",
          "blockHash": "0x2c6e587fe96fdca2e77c5bbb769a04cbd7e5e541a2300114fb52b788ee38b9d8",
          "blockNumber": "0x9d2a63",
          "blockTimestamp": "0x69987000",
          "transactionHash": "0x767ecdf3a03e263fa6ad2ee7594b58aa482b49a0d8bbe59f4c0dbd674333cce3",
          "transactionIndex": "0x57",
          "logIndex": "0xeb",
          "removed": false
        }
      ],
      "logsBloom": "0x00210000000000000000000000000000000000000000000000000000000000000000000000000040080000000000000000000000000000000000000000080000000000000000000000000000000000000000000000000000000000000000000000000000000000008000000000000000000000000000000000000800000000000020008000000000000000000000000000000000000000000000000000000000000000000000000000000000000000000800000000000200000000080000000000000000000000000000000000000000000000000000000040000000000000000000000000000000000000000000000000040000000000000000000000000400",
      "type": "0x2",
      "transactionHash": "0x767ecdf3a03e263fa6ad2ee7594b58aa482b49a0d8bbe59f4c0dbd674333cce3",
      "transactionIndex": "0x57",
      "blockHash": "0x2c6e587fe96fdca2e77c5bbb769a04cbd7e5e541a2300114fb52b788ee38b9d8",
      "blockNumber": "0x9d2a63",
      "gasUsed": "0x6d0e",
      "effectiveGasPrice": "0x683fd71",
      "from": "0x8822f2965090ddc102f7de354dfd6e642c090269",
      "to": "0x000000000022d473030f116ddee9f6b43ac78ba3",
      "contractAddress": null
    },
    {
      "status": "0x1",
      "cumulativeGasUsed": "0x18ce1fc",
      "logs": [
        {
          "address": "0xe03a1074c86cfedd5c142c4f04f1a1536e203543",
          "topics": [
            "0xdd466e674ea557f56295e2d0218a125ea4b4f0f6f3307b95f85e6110838d6438",
            "0xd349392ada0fa639d2ab2ee80e9701158334328b57b207b05ef6d7de19b8db94",
            "0x0000000000000000000000002794a0b7187bfcd81d2b6d05e8a6e6cae3f97ffa",
            "0x000000000000000000000000ea20820719c5ae04bce9a098e209f4d8c60daf06"
          ],
          "data": "0x0000000000000000000000000000000000000000000000000000000000000bb8000000000000000000000000000000000000000000000000000000000000003c000000000000000000000000c094d37f8d02b8f5df70e862b9d161a84b9f8ac000000000000000000000000000000000000000010000000000000000000000000000000000000000000000000000000000000000000000000000000000000000",
          "blockHash": "0x2c6e587fe96fdca2e77c5bbb769a04cbd7e5e541a2300114fb52b788ee38b9d8",
          "blockNumber": "0x9d2a63",
          "blockTimestamp": "0x69987000",
          "transactionHash": "0x10ba051d28de640d14079e291beeeb8bca49d0c753612d57d965431539a5a948",
          "transactionIndex": "0x58",
          "logIndex": "0xec",
          "removed": false
        }
      ],
      "logsBloom": "0x00000000000000000000000100000000000000000002000000000000000000000000800000000000000000000000000000000100000000000000000000000000000000000000400000000000000000000000001000000000000000000000000000000000000000008000000000000000000000000000100000000000000000000000000000000008000000000000000000000001000000000000000000200000000000000000000000000000000000000000000000000200000000000000000000000000000000000000000000000000000000000000000000000000000000001000000000000000000000000000000000040000000000000040000000000000",
      "type": "0x2",
      "transactionHash": "0x10ba051d28de640d14079e291beeeb8bca49d0c753612d57d965431539a5a948",
      "transactionIndex": "0x58",
      "blockHash": "0x2c6e587fe96fdca2e77c5bbb769a04cbd7e5e541a2300114fb52b788ee38b9d8",
      "blockNumber": "0x9d2a63",
      "gasUsed": "0xca16",
      "effectiveGasPrice": "0x683fd71",
      "from": "0x8822f2965090ddc102f7de354dfd6e642c090269",
      "to": "0xe03a1074c86cfedd5c142c4f04f1a1536e203543",
      "contractAddress": null
    },
    {
      "status": "0x1",
      "cumulativeGasUsed": "0x192df03",
      "logs": [
        {
          "address": "0x429ba70129df741b2ca2a85bc3a2a3328e5c09b4",
          "topics": [
            "0xddf252ad1be2c89b69c2b068fc378daa952ba7f163c4a11628f55a4df523b3ef",
            "0x0000000000000000000000000000000000000000000000000000000000000000",
            "0x0000000000000000000000008822f2965090ddc102f7de354dfd6e642c090269",
            "0x0000000000000000000000000000000000000000000000000000000000005c81"
          ],
          "data": "0x",
          "blockHash": "0x2c6e587fe96fdca2e77c5bbb769a04cbd7e5e541a2300114fb52b788ee38b9d8",
          "blockNumber": "0x9d2a63",
          "blockTimestamp": "0x69987000",
          "transactionHash": "0x5bb6a4e2f05273e69b9cd968dd6a585b6ef09d910301ce5c9c3e0e9955aa0521",
          "transactionIndex": "0x59",
          "logIndex": "0xed",
          "removed": false
        },
        {
          "address": "0xe03a1074c86cfedd5c142c4f04f1a1536e203543",
          "topics": [
            "0xf208f4912782fd25c7f114ca3723a2d5dd6f3bcc3ac8db5af63baa85f711d5ec",
            "0xd349392ada0fa639d2ab2ee80e9701158334328b57b207b05ef6d7de19b8db94",
            "0x000000000000000000000000429ba70129df741b2ca2a85bc3a2a3328e5c09b4"
          ],
          "data": "0xfffffffffffffffffffffffffffffffffffffffffffffffffffffffffffffda80000000000000000000000000000000000000000000000000000000000000258000000000000000000000000000000000000000000000001d596f2cc56cdb1630000000000000000000000000000000000000000000000000000000000005c81",
          "blockHash": "0x2c6e587fe96fdca2e77c5bbb769a04cbd7e5e541a2300114fb52b788ee38b9d8",
          "blockNumber": "0x9d2a63",
          "blockTimestamp": "0x69987000",
          "transactionHash": "0x5bb6a4e2f05273e69b9cd968dd6a585b6ef09d910301ce5c9c3e0e9955aa0521",
          "transactionIndex": "0x59",
          "logIndex": "0xee",
          "removed": false
        },
        {
          "address": "0x2794a0b7187bfcd81d2b6d05e8a6e6cae3f97ffa",
          "topics": [
            "0xddf252ad1be2c89b69c2b068fc378daa952ba7f163c4a11628f55a4df523b3ef",
            "0x0000000000000000000000008822f2965090ddc102f7de354dfd6e642c090269",
            "0x000000000000000000000000e03a1074c86cfedd5c142c4f04f1a1536e203543"
          ],
          "data": "0x0000000000000000000000000000000000000000000000000de0b6b3a7640000",
          "blockHash": "0x2c6e587fe96fdca2e77c5bbb769a04cbd7e5e541a2300114fb52b788ee38b9d8",
          "blockNumber": "0x9d2a63",
          "blockTimestamp": "0x69987000",
          "transactionHash": "0x5bb6a4e2f05273e69b9cd968dd6a585b6ef09d910301ce5c9c3e0e9955aa0521",
          "transactionIndex": "0x59",
          "logIndex": "0xef",
          "removed": false
        },
        {
          "address": "0xea20820719c5ae04bce9a098e209f4d8c60daf06",
          "topics": [
            "0xddf252ad1be2c89b69c2b068fc378daa952ba7f163c4a11628f55a4df523b3ef",
            "0x0000000000000000000000008822f2965090ddc102f7de354dfd6e642c090269",
            "0x000000000000000000000000e03a1074c86cfedd5c142c4f04f1a1536e203543"
          ],
          "data": "0x0000000000000000000000000000000000000000000000000de0b6b3a7640000",
          "blockHash": "0x2c6e587fe96fdca2e77c5bbb769a04cbd7e5e541a2300114fb52b788ee38b9d8",
          "blockNumber": "0x9d2a63",
          "blockTimestamp": "0x69987000",
          "transactionHash": "0x5bb6a4e2f05273e69b9cd968dd6a585b6ef09d910301ce5c9c3e0e9955aa0521",
          "transactionIndex": "0x59",
          "logIndex": "0xf0",
          "removed": false
        }
      ],
      "logsBloom": "0x00200000000000000000001000000000000000000002000000000000080000000000000000000040080000000000000000000100000000000000000000000000000000000000400000000008000000000000000000000000000000000000000000000000020000000000000080000800000000000000100000000810000000000000028001000000000210000000000808008000000000000000000000000000000004000000000000000000000000000800000000400040000000000000000400000002000000000000000000000000000000000000000000001000001020001000000000000800000000000000000004000000000000000040000000000000",
      "type": "0x2",
      "transactionHash": "0x5bb6a4e2f05273e69b9cd968dd6a585b6ef09d910301ce5c9c3e0e9955aa0521",
      "transactionIndex": "0x59",
      "blockHash": "0x2c6e587fe96fdca2e77c5bbb769a04cbd7e5e541a2300114fb52b788ee38b9d8",
      "blockNumber": "0x9d2a63",
      "gasUsed": "0x5fd07",
      "effectiveGasPrice": "0x683fd71",
      "from": "0x8822f2965090ddc102f7de354dfd6e642c090269",
      "to": "0x429ba70129df741b2ca2a85bc3a2a3328e5c09b4",
      "contractAddress": null
    }
  ],
  "libraries": [],
  "pending": [],
  "returns": {},
  "timestamp": 1771597826059,
  "chain": 11155111,
  "commit": "3bb16a5"
}