{
  "transactions": [
    {
      "hash": "0x58ae5b3062a8aa9f3740b3e02b11c12b0732e2e8bef9085a8fb6fca44d04b9db",
      "transactionType": "CALL",
      "contractName": null,
      "contractAddress": "0x2794a0b7187bfcd81d2b6d05e8a6e6cae3f97ffa",
      "function": "approve(address,uint256)",
      "arguments": [
        "0x000000000022D473030F116dDEE9F6B43aC78BA3",
        "115792089237316195423570985008687907853269984665640564039457584007913129639935"
      ],
      "transaction": {
        "from": "0x8822f2965090ddc102f7de354dfd6e642c090269",
        "to": "0x2794a0b7187bfcd81d2b6d05e8a6e6cae3f97ffa",
        "gas": "0x962f",
        "value": "0x0",
        "input": "0x095ea7b3000000000000000000000000000000000022d473030f116ddee9f6b43ac78ba3ffffffffffffffffffffffffffffffffffffffffffffffffffffffffffffffff",
        "nonce": "0x175",
        "chainId": "0xaa36a7"
      },
      "additionalContracts": [],
      "isFixedGasLimit": false
    },
    {
      "hash": "0x40b4520e9d70cb4dd4f3428e036f154c691e4cc6fff9c594e94254561fd36603",
      "transactionType": "CALL",
      "contractName": null,
      "contractAddress": "0x000000000022d473030f116ddee9f6b43ac78ba3",
      "function": "approve(address,address,uint160,uint48)",
      "arguments": [
        "0x2794a0b7187BFCd81D2b6d05E8a6e6cAE3F97fFa",
        "0x429ba70129df741B2Ca2a85BC3A2a3328e5c09b4",
        "1461501637330902918203684832716283019655932542975",
        "281474976710655"
      ],
      "transaction": {
        "from": "0x8822f2965090ddc102f7de354dfd6e642c090269",
        "to": "0x000000000022d473030f116ddee9f6b43ac78ba3",
        "gas": "0x96a0",
        "value": "0x0",
        "input": "0x87517c450000000000000000000000002794a0b7187bfcd81d2b6d05e8a6e6cae3f97ffa000000000000000000000000429ba70129df741b2ca2a85bc3a2a3328e5c09b4000000000000000000000000ffffffffffffffffffffffffffffffffffffffff0000000000000000000000000000000000000000000000000000ffffffffffff",
        "nonce": "0x176",
        "chainId": "0xaa36a7"
      },
      "additionalContracts": [],
      "isFixedGasLimit": false
    },
    {
      "hash": "0x876ba5be601acee4c90636c3adfab24f92e3275e8f8874f3deddf3121001a8b9",
      "transactionType": "CALL",
      "contractName": null,
      "contractAddress": "0xea20820719c5ae04bce9a098e209f4d8c60daf06",
      "function": "approve(address,uint256)",
      "arguments": [
        "0x000000000022D473030F116dDEE9F6B43aC78BA3",
        "115792089237316195423570985008687907853269984665640564039457584007913129639935"
      ],
      "transaction": {
        "from": "0x8822f2965090ddc102f7de354dfd6e642c090269",
        "to": "0xea20820719c5ae04bce9a098e209f4d8c60daf06",
        "gas": "0x962f",
        "value": "0x0",
        "input": "0x095ea7b3000000000000000000000000000000000022d473030f116ddee9f6b43ac78ba3ffffffffffffffffffffffffffffffffffffffffffffffffffffffffffffffff",
        "nonce": "0x177",
        "chainId": "0xaa36a7"
      },
      "additionalContracts": [],
      "isFixedGasLimit": false
    },
    {
      "hash": "0xf9fb41263860964071d8e865cd6752e8df930aa3b8124f61c7b3ab7f6a135214",
      "transactionType": "CALL",
      "contractName": null,
      "contractAddress": "0x000000000022d473030f116ddee9f6b43ac78ba3",
      "function": "approve(address,address,uint160,uint48)",
      "arguments": [
        "0xEa20820719c5Ae04Bce9A098E209f4d8C60DAF06",
        "0x429ba70129df741B2Ca2a85BC3A2a3328e5c09b4",
        "1461501637330902918203684832716283019655932542975",
        "281474976710655"
      ],
      "transaction": {
        "from": "0x8822f2965090ddc102f7de354dfd6e642c090269",
        "to": "0x000000000022d473030f116ddee9f6b43ac78ba3",
        "gas": "0x96a0",
        "value": "0x0",
        "input": "0x87517c45000000000000000000000000ea20820719c5ae04bce9a098e209f4d8c60daf06000000000000000000000000429ba70129df741b2ca2a85bc3a2a3328e5c09b4000000000000000000000000ffffffffffffffffffffffffffffffffffffffff0000000000000000000000000000000000000000000000000000ffffffffffff",
        "nonce": "0x178",
        "chainId": "0xaa36a7"
      },
      "additionalContracts": [],
      "isFixedGasLimit": false
    },
    {
      "hash": "0xd3ca7c9ae4a611a4910736f13591414810c5cc2a84926628a04f2fd39146b38b",
      "transactionType": "CALL",
      "contractName": null,
      "contractAddress": "0xe03a1074c86cfedd5c142c4f04f1a1536e203543",
      "function": "initialize((address,address,uint24,int24,address),uint160)",
      "arguments": [
        "(0x2794a0b7187BFCd81D2b6d05E8a6e6cAE3F97fFa, 0xEa20820719c5Ae04Bce9A098E209f4d8C60DAF06, 3000, 60, 0x2AD8cA4746EbA0D4dE02f7371b2d0A5CB49B8aC0)",
        "79228162514264337593543950336"
      ],
      "transaction": {
        "from": "0x8822f2965090ddc102f7de354dfd6e642c090269",
        "to": "0xe03a1074c86cfedd5c142c4f04f1a1536e203543",
        "gas": "0x11721",
        "value": "0x0",
        "input": "0x6276cbbe0000000000000000000000002794a0b7187bfcd81d2b6d05e8a6e6cae3f97ffa000000000000000000000000ea20820719c5ae04bce9a098e209f4d8c60daf060000000000000000000000000000000000000000000000000000000000000bb8000000000000000000000000000000000000000000000000000000000000003c0000000000000000000000002ad8ca4746eba0d4de02f7371b2d0a5cb49b8ac00000000000000000000000000000000000000001000000000000000000000000",
        "nonce": "0x179",
        "chainId": "0xaa36a7"
      },
      "additionalContracts": [],
      "isFixedGasLimit": false
    },
    {
      "hash": "0x0597006b2ce9022b0a7a53a800bc1ccfea74e651d47f7e9848e066674bbbbe1e",
      "transactionType": "CALL",
      "contractName": null,
      "contractAddress": "0x429ba70129df741b2ca2a85bc3a2a3328e5c09b4",
      "function": "modifyLiquidities(bytes,uint256)",
      "arguments": [
        "0x000000000000000000000000000000000000000000000000000000000000004000000000000000000000000000000000000000000000000000000000000000800000000000000000000000000000000000000000000000000000000000000002020d00000000000000000000000000000000000000000000000000000000000000000000000000000000000000000000000000000000000000000000000000020000000000000000000000000000000000000000000000000000000000000040000000000000000000000000000000000000000000000000000000000000020000000000000000000000000000000000000000000000000000000000000001a00000000000000000000000002794a0b7187bfcd81d2b6d05e8a6e6cae3f97ffa000000000000000000000000ea20820719c5ae04bce9a098e209f4d8c60daf060000000000000000000000000000000000000000000000000000000000000bb8000000000000000000000000000000000000000000000000000000000000003c0000000000000000000000002ad8ca4746eba0d4de02f7371b2d0a5cb49b8ac0fffffffffffffffffffffffffffffffffffffffffffffffffffffffffffffda80000000000000000000000000000000000000000000000000000000000000258000000000000000000000000000000000000000000000001d596f2cc56cdb1630000000000000000000000000000000000000000000000000de0b6b3a76400010000000000000000000000000000000000000000000000000de0b6b3a76400010000000000000000000000008822f2965090ddc102f7de354dfd6e642c0902690000000000000000000000000000000000000000000000000000000000000180000000000000000000000000000000000000000000000000000000000000000000000000000000000000000000000000000000000000000000000000000000400000000000000000000000002794a0b7187bfcd81d2b6d05e8a6e6cae3f97ffa000000000000000000000000ea20820719c5ae04bce9a098e209f4d8c60daf06",
        "1770067944"
      ],
      "transaction": {
        "from": "0x8822f2965090ddc102f7de354dfd6e642c090269",
        "to": "0x429ba70129df741b2ca2a85bc3a2a3328e5c09b4",
        "gas": "0x8457d",
        "value": "0x0",
        "input": "0xdd46508f000000000000000000000000000000000000000000000000000000000000004000000000000000000000000000000000000000000000000000000000698117e80000000000000000000000000000000000000000000000000000000000000300000000000000000000000000000000000000000000000000000000000000004000000000000000000000000000000000000000000000000000000000000000800000000000000000000000000000000000000000000000000000000000000002020d00000000000000000000000000000000000000000000000000000000000000000000000000000000000000000000000000000000000000000000000000020000000000000000000000000000000000000000000000000000000000000040000000000000000000000000000000000000000000000000000000000000020000000000000000000000000000000000000000000000000000000000000001a00000000000000000000000002794a0b7187bfcd81d2b6d05e8a6e6cae3f97ffa000000000000000000000000ea20820719c5ae04bce9a098e209f4d8c60daf060000000000000000000000000000000000000000000000000000000000000bb8000000000000000000000000000000000000000000000000000000000000003c0000000000000000000000002ad8ca4746eba0d4de02f7371b2d0a5cb49b8ac0fffffffffffffffffffffffffffffffffffffffffffffffffffffffffffffda80000000000000000000000000000000000000000000000000000000000000258000000000000000000000000000000000000000000000001d596f2cc56cdb1630000000000000000000000000000000000000000000000000de0b6b3a76400010000000000000000000000000000000000000000000000000de0b6b3a76400010000000000000000000000008822f2965090ddc102f7de354dfd6e642c0902690000000000000000000000000000000000000000000000000000000000000180000000000000000000000000000000000000000000000000000000000000000000000000000000000000000000000000000000000000000000000000000000400000000000000000000000002794a0b7187bfcd81d2b6d05e8a6e6cae3f97ffa000000000000000000000000ea20820719c5ae04bce9a098e209f4d8c60daf06",
        "nonce": "0x17a",
        "chainId": "0xaa36a7"
      },
      "additionalContracts": [],
      "isFixedGasLimit": false
    }
  ],
  "receipts": [
    {
      "status": "0x1",
      "cumulativeGasUsed": "0xa6b0aa",
      "logs": [
        {
          "address": "0x2794a0b7187bfcd81d2b6d05e8a6e6cae3f97ffa",
          "topics": [
            "0x8c5be1e5ebec7d5bd14f71427d1e84f3dd0314c0f7b2291e5b200ac8c7c3b925",
            "0x0000000000000000000000008822f2965090ddc102f7de354dfd6e642c090269",
            "0x000000000000000000000000000000000022d473030f116ddee9f6b43ac78ba3"
          ],
          "data": "0xffffffffffffffffffffffffffffffffffffffffffffffffffffffffffffffff",
          "blockHash": "0xd78f90c184233a8274f20bb011d1c37eb9e1d167cb0009e857efa9fa0c767805",
          "blockNumber": "0x9b4f99",
          "blockTimestamp": "0x698117d0",
          "transactionHash": "0x58ae5b3062a8aa9f3740b3e02b11c12b0732e2e8bef9085a8fb6fca44d04b9db",
          "transactionIndex": "0x30",
          "logIndex": "0x54",
          "removed": false
        }
      ],
      "logsBloom": "0x00200000000000000000000000000000000000000000000000000000000000000000000000000000000000000000000000000000800000000000000000200000000000000000000000004000000000000000000000000800000000000000000000000000000000000000000000000000000000000000000000000000000000000000008000000000000000000000000008000000000000000000000000000000020000000000000000000000000000000800000000000000000000000000000400000000000000000000000000000000000000000000000000000000000000000010000000000800000000000000000000000000000000000000000000000000",
      "type": "0x2",
      "transactionHash": "0x58ae5b3062a8aa9f3740b3e02b11c12b0732e2e8bef9085a8fb6fca44d04b9db",
      "transactionIndex": "0x30",
      "blockHash": "0xd78f90c184233a8274f20bb011d1c37eb9e1d167cb0009e857efa9fa0c767805",
      "blockNumber": "0x9b4f99",
      "gasUsed": "0x66b1",
      "effectiveGasPrice": "0x4165a654",
      "from": "0x8822f2965090ddc102f7de354dfd6e642c090269",
      "to": "0x2794a0b7187bfcd81d2b6d05e8a6e6cae3f97ffa",
      "contractAddress": null
    },
    {
      "status": "0x1",
      "cumulativeGasUsed": "0xa71db8",
      "logs": [
        {
          "address": "0x000000000022d473030f116ddee9f6b43ac78ba3",
          "topics": [
            "0xda9fa7c1b00402c17d0161b249b1ab8bbec047c5a52207b9c112deffd817036b",
            "0x0000000000000000000000008822f2965090ddc102f7de354dfd6e642c090269",
            "0x0000000000000000000000002794a0b7187bfcd81d2b6d05e8a6e6cae3f97ffa",
            "0x000000000000000000000000429ba70129df741b2ca2a85bc3a2a3328e5c09b4"
          ],
          "data": "0x000000000000000000000000ffffffffffffffffffffffffffffffffffffffff0000000000000000000000000000000000000000000000000000ffffffffffff",
          "blockHash": "0xd78f90c184233a8274f20bb011d1c37eb9e1d167cb0009e857efa9fa0c767805",
          "blockNumber": "0x9b4f99",
          "blockTimestamp": "0x698117d0",
          "transactionHash": "0x40b4520e9d70cb4dd4f3428e036f154c691e4cc6fff9c594e94254561fd36603",
          "transactionIndex": "0x31",
          "logIndex": "0x55",
          "removed": false
        }
      ],
      "logsBloom": "0x00210000000000000000000100000000000000000000000000000000000000000000800000000040080000000000000000000000000000000000000000080000000000000000000000000000000000000000001000000000000000000000000000000000000000000000000000000000000000000000000000000800000000000020008000000000000000000000000000000000000000000000000000000000000000000000000000000000000000000800000000000000000000080000000000000000000000000000000000000000000000000000000040000000000000000000000000000000000000000000000000000000000000000000000000000400",
      "type": "0x2",
      "transactionHash": "0x40b4520e9d70cb4dd4f3428e036f154c691e4cc6fff9c594e94254561fd36603",
      "transactionIndex": "0x31",
      "blockHash": "0xd78f90c184233a8274f20bb011d1c37eb9e1d167cb0009e857efa9fa0c767805",
      "blockNumber": "0x9b4f99",
      "gasUsed": "0x6d0e",
      "effectiveGasPrice": "0x4165a654",
      "from": "0x8822f2965090ddc102f7de354dfd6e642c090269",
      "to": "0x000000000022d473030f116ddee9f6b43ac78ba3",
      "contractAddress": null
    },
    {
      "status": "0x1",
      "cumulativeGasUsed": "0xa78469",
      "logs": [
        {
          "address": "0xea20820719c5ae04bce9a098e209f4d8c60daf06",
          "topics": [
            "0x8c5be1e5ebec7d5bd14f71427d1e84f3dd0314c0f7b2291e5b200ac8c7c3b925",
            "0x0000000000000000000000008822f2965090ddc102f7de354dfd6e642c090269",
            "0x000000000000000000000000000000000022d473030f116ddee9f6b43ac78ba3"
          ],
          "data": "0xffffffffffffffffffffffffffffffffffffffffffffffffffffffffffffffff",
          "blockHash": "0xd78f90c184233a8274f20bb011d1c37eb9e1d167cb0009e857efa9fa0c767805",
          "blockNumber": "0x9b4f99",
          "blockTimestamp": "0x698117d0",
          "transactionHash": "0x876ba5be601acee4c90636c3adfab24f92e3275e8f8874f3deddf3121001a8b9",
          "transactionIndex": "0x32",
          "logIndex": "0x56",
          "removed": false
        }
      ],
      "logsBloom": "0x00200000000000000000000000000000000000000000000000000000000000000000000000000000000000000000000000000000800000000000000000200000000000000000000000004000000000000000000000000800000000000000000000000000000000000000000000000000000000000000000000000000000000000000008000000000000200000000000800008000000000000000000000000000020000000000000000000000000000000800000000000000000000000000000000000000000000000000000000000000000000000000000000000000000000000010000000000000000000000000000000000000000000000000000000000000",
      "type": "0x2",
      "transactionHash": "0x876ba5be601acee4c90636c3adfab24f92e3275e8f8874f3deddf3121001a8b9",
      "transactionIndex": "0x32",
      "blockHash": "0xd78f90c184233a8274f20bb011d1c37eb9e1d167cb0009e857efa9fa0c767805",
      "blockNumber": "0x9b4f99",
      "gasUsed": "0x66b1",
      "effectiveGasPrice": "0x4165a654",
      "from": "0x8822f2965090ddc102f7de354dfd6e642c090269",
      "to": "0xea20820719c5ae04bce9a098e209f4d8c60daf06",
      "contractAddress": null
    },
    {
      "status": "0x1",
      "cumulativeGasUsed": "0xa7f177",
      "logs": [
        {
          "address": "0x000000000022d473030f116ddee9f6b43ac78ba3",
          "topics": [
            "0xda9fa7c1b00402c17d0161b249b1ab8bbec047c5a52207b9c112deffd817036b",
            "0x0000000000000000000000008822f2965090ddc102f7de354dfd6e642c090269",
            "0x000000000000000000000000ea20820719c5ae04bce9a098e209f4d8c60daf06",
            "0x000000000000000000000000429ba70129df741b2ca2a85bc3a2a3328e5c09b4"
          ],
          "data": "0x000000000000000000000000ffffffffffffffffffffffffffffffffffffffff0000000000000000000000000000000000000000000000000000ffffffffffff",
          "blockHash": "0xd78f90c184233a8274f20bb011d1c37eb9e1d167cb0009e857efa9fa0c767805",
          "blockNumber": "0x9b4f99",
          "blockTimestamp": "0x698117d0",
          "transactionHash": "0xf9fb41263860964071d8e865cd6752e8df930aa3b8124f61c7b3ab7f6a135214",
          "transactionIndex": "0x33",
          "logIndex": "0x57",
          "removed": false
        }
      ],
      "logsBloom": "0x00210000000000000000000000000000000000000000000000000000000000000000000000000040080000000000000000000000000000000000000000080000000000000000000000000000000000000000000000000000000000000000000000000000000000008000000000000000000000000000000000000800000000000020008000000000000000000000000000000000000000000000000000000000000000000000000000000000000000000800000000000200000000080000000000000000000000000000000000000000000000000000000040000000000000000000000000000000000000000000000000040000000000000000000000000400",
      "type": "0x2",
      "transactionHash": "0xf9fb41263860964071d8e865cd6752e8df930aa3b8124f61c7b3ab7f6a135214",
      "transactionIndex": "0x33",
      "blockHash": "0xd78f90c184233a8274f20bb011d1c37eb9e1d167cb0009e857efa9fa0c767805",
      "blockNumber": "0x9b4f99",
      "gasUsed": "0x6d0e",
      "effectiveGasPrice": "0x4165a654",
      "from": "0x8822f2965090ddc102f7de354dfd6e642c090269",
      "to": "0x000000000022d473030f116ddee9f6b43ac78ba3",
      "contractAddress": null
    },
    {
      "status": "0x1",
      "cumulativeGasUsed": "0xa8bb8d",
      "logs": [
        {
          "address": "0xe03a1074c86cfedd5c142c4f04f1a1536e203543",
          "topics": [
            "0xdd466e674ea557f56295e2d0218a125ea4b4f0f6f3307b95f85e6110838d6438",
            "0x153e59be5a04728d86c019f2ac3295c7673848c7f5cc666d0c8fff91536637f5",
            "0x0000000000000000000000002794a0b7187bfcd81d2b6d05e8a6e6cae3f97ffa",
            "0x000000000000000000000000ea20820719c5ae04bce9a098e209f4d8c60daf06"
          ],
          "data": "0x0000000000000000000000000000000000000000000000000000000000000bb8000000000000000000000000000000000000000000000000000000000000003c0000000000000000000000002ad8ca4746eba0d4de02f7371b2d0a5cb49b8ac000000000000000000000000000000000000000010000000000000000000000000000000000000000000000000000000000000000000000000000000000000000",
          "blockHash": "0xd78f90c184233a8274f20bb011d1c37eb9e1d167cb0009e857efa9fa0c767805",
          "blockNumber": "0x9b4f99",
          "blockTimestamp": "0x698117d0",
          "transactionHash": "0xd3ca7c9ae4a611a4910736f13591414810c5cc2a84926628a04f2fd39146b38b",
          "transactionIndex": "0x34",
          "logIndex": "0x58",
          "removed": false
        }
      ],
      "logsBloom": "0x00000000000000000000000100000000000000000000000000000000000000000000800002000000000000000000000000000100000000000000000000000000000000000000000000000000000000000000001000000000000000000000000000000000000000008000000000000000000000000000100000000000000000000000000000000008000000000000000000000001000000000000000000200000000000000020000000000000000000000000000000000200000000000000000000000800000000000000000000000000000000000000000000000000000000001000000000000000000000000000000000040000000000000000000000000000",
      "type": "0x2",
      "transactionHash": "0xd3ca7c9ae4a611a4910736f13591414810c5cc2a84926628a04f2fd39146b38b",
      "transactionIndex": "0x34",
      "blockHash": "0xd78f90c184233a8274f20bb011d1c37eb9e1d167cb0009e857efa9fa0c767805",
      "blockNumber": "0x9b4f99",
      "gasUsed": "0xca16",
      "effectiveGasPrice": "0x4165a654",
      "from": "0x8822f2965090ddc102f7de354dfd6e642c090269",
      "to": "0xe03a1074c86cfedd5c142c4f04f1a1536e203543",
      "contractAddress": null
    },
    {
      "status": "0x1",
      "cumulativeGasUsed": "0xaeb894",
      "logs": [
        {
          "address": "0x429ba70129df741b2ca2a85bc3a2a3328e5c09b4",
          "topics": [
            "0xddf252ad1be2c89b69c2b068fc378daa952ba7f163c4a11628f55a4df523b3ef",
            "0x0000000000000000000000000000000000000000000000000000000000000000",
            "0x0000000000000000000000008822f2965090ddc102f7de354dfd6e642c090269",
            "0x0000000000000000000000000000000000000000000000000000000000005926"
          ],
          "data": "0x",
          "blockHash": "0xd78f90c184233a8274f20bb011d1c37eb9e1d167cb0009e857efa9fa0c767805",
          "blockNumber": "0x9b4f99",
          "blockTimestamp": "0x698117d0",
          "transactionHash": "0x0597006b2ce9022b0a7a53a800bc1ccfea74e651d47f7e9848e066674bbbbe1e",
          "transactionIndex": "0x35",
          "logIndex": "0x59",
          "removed": false
        },
        {
          "address": "0xe03a1074c86cfedd5c142c4f04f1a1536e203543",
          "topics": [
            "0xf208f4912782fd25c7f114ca3723a2d5dd6f3bcc3ac8db5af63baa85f711d5ec",
            "0x153e59be5a04728d86c019f2ac3295c7673848c7f5cc666d0c8fff91536637f5",
            "0x000000000000000000000000429ba70129df741b2ca2a85bc3a2a3328e5c09b4"
          ],
          "data": "0xfffffffffffffffffffffffffffffffffffffffffffffffffffffffffffffda80000000000000000000000000000000000000000000000000000000000000258000000000000000000000000000000000000000000000001d596f2cc56cdb1630000000000000000000000000000000000000000000000000000000000005926",
          "blockHash": "0xd78f90c184233a8274f20bb011d1c37eb9e1d167cb0009e857efa9fa0c767805",
          "blockNumber": "0x9b4f99",
          "blockTimestamp": "0x698117d0",
          "transactionHash": "0x0597006b2ce9022b0a7a53a800bc1ccfea74e651d47f7e9848e066674bbbbe1e",
          "transactionIndex": "0x35",
          "logIndex": "0x5a",
          "removed": false
        },
        {
          "address": "0x2794a0b7187bfcd81d2b6d05e8a6e6cae3f97ffa",
          "topics": [
            "0xddf252ad1be2c89b69c2b068fc378daa952ba7f163c4a11628f55a4df523b3ef",
            "0x0000000000000000000000008822f2965090ddc102f7de354dfd6e642c090269",
            "0x000000000000000000000000e03a1074c86cfedd5c142c4f04f1a1536e203543"
          ],
          "data": "0x0000000000000000000000000000000000000000000000000de0b6b3a7640000",
          "blockHash": "0xd78f90c184233a8274f20bb011d1c37eb9e1d167cb0009e857efa9fa0c767805",
          "blockNumber": "0x9b4f99",
          "blockTimestamp": "0x698117d0",
          "transactionHash": "0x0597006b2ce9022b0a7a53a800bc1ccfea74e651d47f7e9848e066674bbbbe1e",
          "transactionIndex": "0x35",
          "logIndex": "0x5b",
          "removed": false
        },
        {
          "address": "0xea20820719c5ae04bce9a098e209f4d8c60daf06",
          "topics": [
            "0xddf252ad1be2c89b69c2b068fc378daa952ba7f163c4a11628f55a4df523b3ef",
            "0x0000000000000000000000008822f2965090ddc102f7de354dfd6e642c090269",
            "0x000000000000000000000000e03a1074c86cfedd5c142c4f04f1a1536e203543"
          ],
          "data": "0x0000000000000000000000000000000000000000000000000de0b6b3a7640000",
          "blockHash": "0xd78f90c184233a8274f20bb011d1c37eb9e1d167cb0009e857efa9fa0c767805",
          "blockNumber": "0x9b4f99",
          "blockTimestamp": "0x698117d0",
          "transactionHash": "0x0597006b2ce9022b0a7a53a800bc1ccfea74e651d47f7e9848e066674bbbbe1e",
          "transactionIndex": "0x35",
          "logIndex": "0x5c",
          "removed": false
        }
      ],
      "logsBloom": "0x00200010000000000000001000000000000000000000000000000100080000000000000002000040080000000000000000000100000000000000000000000000000000000000000000000008000000000000000000000000000000000000000000000000020000000000000080000800000000000000100000000810000000000000008001000000000210000000000808008000000000000000000000000000010004000020000000000000000000000800000000400000000000000000000400000802000000000000000000000000000000000000000000001000000020001000000000000800000000000000000004000000000000000000000000000000",
      "type": "0x2",
      "transactionHash": "0x0597006b2ce9022b0a7a53a800bc1ccfea74e651d47f7e9848e066674bbbbe1e",
      "transactionIndex": "0x35",
      "blockHash": "0xd78f90c184233a8274f20bb011d1c37eb9e1d167cb0009e857efa9fa0c767805",
      "blockNumber": "0x9b4f99",
      "gasUsed": "0x5fd07",
      "effectiveGasPrice": "0x4165a654",
      "from": "0x8822f2965090ddc102f7de354dfd6e642c090269",
      "to": "0x429ba70129df741b2ca2a85bc3a2a3328e5c09b4",
      "contractAddress": null
    }
  ],
  "libraries": [],
  "pending": [],
  "returns": {},
  "timestamp": 1770067921026,
  "chain": 11155111,
  "commit": "432d420"
}