{
  "transactions": [
    {
      "hash": "0xc742b059744a7d244654779cd7eab362bd0a3e9170b05ae980b5ea04747ad3e3",
      "transactionType": "CALL",
      "contractName": null,
      "contractAddress": "0x124ce391f7043c853c56b87054c9a4e842979b32",
      "function": "approve(address,uint256)",
      "arguments": [
        "0x000000000022D473030F116dDEE9F6B43aC78BA3",
        "115792089237316195423570985008687907853269984665640564039457584007913129639935"
      ],
      "transaction": {
        "from": "0x9dba18e9b96b905919cc828c399d313efd55d800",
        "to": "0x124ce391f7043c853c56b87054c9a4e842979b32",
        "gas": "0x962f",
        "value": "0x0",
        "input": "0x095ea7b3000000000000000000000000000000000022d473030f116ddee9f6b43ac78ba3ffffffffffffffffffffffffffffffffffffffffffffffffffffffffffffffff",
        "nonce": "0x13c",
        "chainId": "0xaa36a7"
      },
      "additionalContracts": [],
      "isFixedGasLimit": false
    },
    {
      "hash": "0xa7128d46fc12504d66c4039b08e067b7fc14ab0898abeb4b7a6a6bac61180418",
      "transactionType": "CALL",
      "contractName": null,
      "contractAddress": "0x000000000022d473030f116ddee9f6b43ac78ba3",
      "function": "approve(address,address,uint160,uint48)",
      "arguments": [
        "0x124ce391F7043C853C56b87054c9a4e842979b32",
        "0x429ba70129df741B2Ca2a85BC3A2a3328e5c09b4",
        "1461501637330902918203684832716283019655932542975",
        "281474976710655"
      ],
      "transaction": {
        "from": "0x9dba18e9b96b905919cc828c399d313efd55d800",
        "to": "0x000000000022d473030f116ddee9f6b43ac78ba3",
        "gas": "0x96a0",
        "value": "0x0",
        "input": "0x87517c45000000000000000000000000124ce391f7043c853c56b87054c9a4e842979b32000000000000000000000000429ba70129df741b2ca2a85bc3a2a3328e5c09b4000000000000000000000000ffffffffffffffffffffffffffffffffffffffff0000000000000000000000000000000000000000000000000000ffffffffffff",
        "nonce": "0x13d",
        "chainId": "0xaa36a7"
      },
      "additionalContracts": [],
      "isFixedGasLimit": false
    },
    {
      "hash": "0xefbcdafab6ceb1b417938d47c35ec5f93e6a5ff5ad0562992af04ac7b0de2490",
      "transactionType": "CALL",
      "contractName": null,
      "contractAddress": "0x721bf800ebed5df889e8815521dfb0b53d9cf71f",
      "function": "approve(address,uint256)",
      "arguments": [
        "0x000000000022D473030F116dDEE9F6B43aC78BA3",
        "115792089237316195423570985008687907853269984665640564039457584007913129639935"
      ],
      "transaction": {
        "from": "0x9dba18e9b96b905919cc828c399d313efd55d800",
        "to": "0x721bf800ebed5df889e8815521dfb0b53d9cf71f",
        "gas": "0x962f",
        "value": "0x0",
        "input": "0x095ea7b3000000000000000000000000000000000022d473030f116ddee9f6b43ac78ba3ffffffffffffffffffffffffffffffffffffffffffffffffffffffffffffffff",
        "nonce": "0x13e",
        "chainId": "0xaa36a7"
      },
      "additionalContracts": [],
      "isFixedGasLimit": false
    },
    {
      "hash": "0xe90a46061406b405e69008dad27cd8f923e75235b53ca065cbc995f458f90382",
      "transactionType": "CALL",
      "contractName": null,
      "contractAddress": "0x000000000022d473030f116ddee9f6b43ac78ba3",
      "function": "approve(address,address,uint160,uint48)",
      "arguments": [
        "0x721BF800Ebed5df889E8815521Dfb0b53d9CF71F",
        "0x429ba70129df741B2Ca2a85BC3A2a3328e5c09b4",
        "1461501637330902918203684832716283019655932542975",
        "281474976710655"
      ],
      "transaction": {
        "from": "0x9dba18e9b96b905919cc828c399d313efd55d800",
        "to": "0x000000000022d473030f116ddee9f6b43ac78ba3",
        "gas": "0x9f6c",
        "value": "0x0",
        "input": "0x87517c45000000000000000000000000721bf800ebed5df889e8815521dfb0b53d9cf71f000000000000000000000000429ba70129df741b2ca2a85bc3a2a3328e5c09b4000000000000000000000000ffffffffffffffffffffffffffffffffffffffff0000000000000000000000000000000000000000000000000000ffffffffffff",
        "nonce": "0x13f",
        "chainId": "0xaa36a7"
      },
      "additionalContracts": [],
      "isFixedGasLimit": false
    },
    {
      "hash": "0x81401180580903836d7358617033479a84150b208ce8740d02b73603f0509c9d",
      "transactionType": "CALL",
      "contractName": null,
      "contractAddress": "0x429ba70129df741b2ca2a85bc3a2a3328e5c09b4",
      "function": "multicall(bytes[])",
      "arguments": [
        "[0xf7020405000000000000000000000000124ce391f7043c853c56b87054c9a4e842979b32000000000000000000000000721bf800ebed5df889e8815521dfb0b53d9cf71f0000000000000000000000000000000000000000000000000000000000000bb8000000000000000000000000000000000000000000000000000000000000003c000000000000000000000000e78bd1b3b9a9ed4af954ac39a820cc903c87cac0000000000000000000000000000000000000000100000000000000000000000000000000000000000000000000000000000000000000000000000000000000e00000000000000000000000000000000000000000000000000000000000000000, 0xdd46508f000000000000000000000000000000000000000000000000000000000000004000000000000000000000000000000000000000000000000000000000690f27b40000000000000000000000000000000000000000000000000000000000000300000000000000000000000000000000000000000000000000000000000000004000000000000000000000000000000000000000000000000000000000000000800000000000000000000000000000000000000000000000000000000000000002020d00000000000000000000000000000000000000000000000000000000000000000000000000000000000000000000000000000000000000000000000000020000000000000000000000000000000000000000000000000000000000000040000000000000000000000000000000000000000000000000000000000000020000000000000000000000000000000000000000000000000000000000000001a0000000000000000000000000124ce391f7043c853c56b87054c9a4e842979b32000000000000000000000000721bf800ebed5df889e8815521dfb0b53d9cf71f0000000000000000000000000000000000000000000000000000000000000bb8000000000000000000000000000000000000000000000000000000000000003c000000000000000000000000e78bd1b3b9a9ed4af954ac39a820cc903c87cac0fffffffffffffffffffffffffffffffffffffffffffffffffffffffffffffda80000000000000000000000000000000000000000000000000000000000000258000000000000000000000000000000000000000000000001d596f2cc56cdb1630000000000000000000000000000000000000000000000000de0b6b3a76400010000000000000000000000000000000000000000000000000de0b6b3a76400010000000000000000000000009dba18e9b96b905919cc828c399d313efd55d800000000000000000000000000000000000000000000000000000000000000018000000000000000000000000000000000000000000000000000000000000000000000000000000000000000000000000000000000000000000000000000000040000000000000000000000000124ce391f7043c853c56b87054c9a4e842979b32000000000000000000000000721bf800ebed5df889e8815521dfb0b53d9cf71f]"
      ],
      "transaction": {
        "from": "0x9dba18e9b96b905919cc828c399d313efd55d800",
        "to": "0x429ba70129df741b2ca2a85bc3a2a3328e5c09b4",
        "gas": "0x9bfe7",
        "value": "0x0",
        "input": "0xac9650d800000000000000000000000000000000000000000000000000000000000000200000000000000000000000000000000000000000000000000000000000000002000000000000000000000000000000000000000000000000000000000000004000000000000000000000000000000000000000000000000000000000000001800000000000000000000000000000000000000000000000000000000000000104f7020405000000000000000000000000124ce391f7043c853c56b87054c9a4e842979b32000000000000000000000000721bf800ebed5df889e8815521dfb0b53d9cf71f0000000000000000000000000000000000000000000000000000000000000bb8000000000000000000000000000000000000000000000000000000000000003c000000000000000000000000e78bd1b3b9a9ed4af954ac39a820cc903c87cac0000000000000000000000000000000000000000100000000000000000000000000000000000000000000000000000000000000000000000000000000000000e00000000000000000000000000000000000000000000000000000000000000000000000000000000000000000000000000000000000000000000000000000000000000000000000000000000000000000000000000000000000000364dd46508f000000000000000000000000000000000000000000000000000000000000004000000000000000000000000000000000000000000000000000000000690f27b40000000000000000000000000000000000000000000000000000000000000300000000000000000000000000000000000000000000000000000000000000004000000000000000000000000000000000000000000000000000000000000000800000000000000000000000000000000000000000000000000000000000000002020d00000000000000000000000000000000000000000000000000000000000000000000000000000000000000000000000000000000000000000000000000020000000000000000000000000000000000000000000000000000000000000040000000000000000000000000000000000000000000000000000000000000020000000000000000000000000000000000000000000000000000000000000001a0000000000000000000000000124ce391f7043c853c56b87054c9a4e842979b32000000000000000000000000721bf800ebed5df889e8815521dfb0b53d9cf71f0000000000000000000000000000000000000000000000000000000000000bb8000000000000000000000000000000000000000000000000000000000000003c000000000000000000000000e78bd1b3b9a9ed4af954ac39a820cc903c87cac0fffffffffffffffffffffffffffffffffffffffffffffffffffffffffffffda80000000000000000000000000000000000000000000000000000000000000258000000000000000000000000000000000000000000000001d596f2cc56cdb1630000000000000000000000000000000000000000000000000de0b6b3a76400010000000000000000000000000000000000000000000000000de0b6b3a76400010000000000000000000000009dba18e9b96b905919cc828c399d313efd55d800000000000000000000000000000000000000000000000000000000000000018000000000000000000000000000000000000000000000000000000000000000000000000000000000000000000000000000000000000000000000000000000040000000000000000000000000124ce391f7043c853c56b87054c9a4e842979b32000000000000000000000000721bf800ebed5df889e8815521dfb0b53d9cf71f00000000000000000000000000000000000000000000000000000000",
        "nonce": "0x140",
        "chainId": "0xaa36a7"
      },
      "additionalContracts": [],
      "isFixedGasLimit": false
    }
  ],
  "receipts": [
    {
      "status": "0x1",
      "cumulativeGasUsed": "0x138311a",
      "logs": [
        {
          "address": "0x124ce391f7043c853c56b87054c9a4e842979b32",
          "topics": [
            "0x8c5be1e5ebec7d5bd14f71427d1e84f3dd0314c0f7b2291e5b200ac8c7c3b925",
            "0x0000000000000000000000009dba18e9b96b905919cc828c399d313efd55d800",
            "0x000000000000000000000000000000000022d473030f116ddee9f6b43ac78ba3"
          ],
          "data": "0xffffffffffffffffffffffffffffffffffffffffffffffffffffffffffffffff",
          "blockHash": "0xf7579ca0da0871ad27561ff75333784fc3dbafb8150946c37abf48228d2187b1",
          "blockNumber": "0x9244b5",
          "blockTimestamp": "0x690f27b4",
          "transactionHash": "0xc742b059744a7d244654779cd7eab362bd0a3e9170b05ae980b5ea04747ad3e3",
          "transactionIndex": "0x3b",
          "logIndex": "0x5a",
          "removed": false
        }
      ],
      "logsBloom": "0x00000000000000000000000000000000000000000000000000000000000000000008000000000000000000000000000000000000800000000000000000200800000000000000000000004000000000000000000000000800000000000000000000000000000000000000000000000000000000000000000000000000000000000000000000000000000000000000000008000000000000000000000000000000020000000000000000000000000000000400000000000000001000000000000000000008000000000000000000000000000000000000000000000000000000000010000000000000000000000000000000000000000000000000000000000000",
      "type": "0x2",
      "transactionHash": "0xc742b059744a7d244654779cd7eab362bd0a3e9170b05ae980b5ea04747ad3e3",
      "transactionIndex": "0x3b",
      "blockHash": "0xf7579ca0da0871ad27561ff75333784fc3dbafb8150946c37abf48228d2187b1",
      "blockNumber": "0x9244b5",
      "gasUsed": "0x66b1",
      "effectiveGasPrice": "0x72720f",
      "from": "0x9dba18e9b96b905919cc828c399d313efd55d800",
      "to": "0x124ce391f7043c853c56b87054c9a4e842979b32",
      "contractAddress": null
    },
    {
      "status": "0x1",
      "cumulativeGasUsed": "0x48fe7a",
      "logs": [
        {
          "address": "0x000000000022d473030f116ddee9f6b43ac78ba3",
          "topics": [
            "0xda9fa7c1b00402c17d0161b249b1ab8bbec047c5a52207b9c112deffd817036b",
            "0x0000000000000000000000009dba18e9b96b905919cc828c399d313efd55d800",
            "0x000000000000000000000000124ce391f7043c853c56b87054c9a4e842979b32",
            "0x000000000000000000000000429ba70129df741b2ca2a85bc3a2a3328e5c09b4"
          ],
          "data": "0x000000000000000000000000ffffffffffffffffffffffffffffffffffffffff0000000000000000000000000000000000000000000000000000ffffffffffff",
          "blockHash": "0x504b51d9b06ce09f14d77d0f5038eb409a355fdf856db95f4c07f0c4a0382cab",
          "blockNumber": "0x9244ba",
          "blockTimestamp": "0x690f2808",
          "transactionHash": "0xa7128d46fc12504d66c4039b08e067b7fc14ab0898abeb4b7a6a6bac61180418",
          "transactionIndex": "0x25",
          "logIndex": "0x28",
          "removed": false
        }
      ],
      "logsBloom": "0x00010000000000000000000000000000000000000000000000000000000000000000000000000040080000000000000000000000000000000000000000080800000000000000000000000000000000000000000000000000000000000000000000000000000000000000000000000000000000000000000000000800000000000020000000080000000000000000000000000000000000000000000000000000000000000000000000000000000000000400000000000000001000080000000000000000000000000000000000000000000000000000000040000000000000100000000000000000000000000000000000000000000000200000000000000400",
      "type": "0x2",
      "transactionHash": "0xa7128d46fc12504d66c4039b08e067b7fc14ab0898abeb4b7a6a6bac61180418",
      "transactionIndex": "0x25",
      "blockHash": "0x504b51d9b06ce09f14d77d0f5038eb409a355fdf856db95f4c07f0c4a0382cab",
      "blockNumber": "0x9244ba",
      "gasUsed": "0x6d0e",
      "effectiveGasPrice": "0x727211",
      "from": "0x9dba18e9b96b905919cc828c399d313efd55d800",
      "to": "0x000000000022d473030f116ddee9f6b43ac78ba3",
      "contractAddress": null
    },
    {
      "status": "0x1",
      "cumulativeGasUsed": "0x38f118",
      "logs": [
        {
          "address": "0x721bf800ebed5df889e8815521dfb0b53d9cf71f",
          "topics": [
            "0x8c5be1e5ebec7d5bd14f71427d1e84f3dd0314c0f7b2291e5b200ac8c7c3b925",
            "0x0000000000000000000000009dba18e9b96b905919cc828c399d313efd55d800",
            "0x000000000000000000000000000000000022d473030f116ddee9f6b43ac78ba3"
          ],
          "data": "0xffffffffffffffffffffffffffffffffffffffffffffffffffffffffffffffff",
          "blockHash": "0x7212982aede593d04a65c37577cae5edeeb0a13bae9602ed23e9d766e548be3f",
          "blockNumber": "0x9244c2",
          "blockTimestamp": "0x690f2868",
          "transactionHash": "0xefbcdafab6ceb1b417938d47c35ec5f93e6a5ff5ad0562992af04ac7b0de2490",
          "transactionIndex": "0x1d",
          "logIndex": "0x2b",
          "removed": false
        }
      ],
      "logsBloom": "0x00000000000000000040000000000000000000000000000000000000000000000000000000000000000000000000000000000000800000000000000000200800000000000000000000004000000000000000000000000800000800000000000000000000000000000000000000000000000000000000000000000000000000000000000000000000000000000000000000000000000000000000000000000000020000000000000000000000000000000400000000000000001000000000000000000000000000000000000000000000000000000000000000000000000000000010000000000000000000000100000000000000000000000000000000000000",
      "type": "0x2",
      "transactionHash": "0xefbcdafab6ceb1b417938d47c35ec5f93e6a5ff5ad0562992af04ac7b0de2490",
      "transactionIndex": "0x1d",
      "blockHash": "0x7212982aede593d04a65c37577cae5edeeb0a13bae9602ed23e9d766e548be3f",
      "blockNumber": "0x9244c2",
      "gasUsed": "0x66b1",
      "effectiveGasPrice": "0x727212",
      "from": "0x9dba18e9b96b905919cc828c399d313efd55d800",
      "to": "0x721bf800ebed5df889e8815521dfb0b53d9cf71f",
      "contractAddress": null
    },
    {
      "status": "0x1",
      "cumulativeGasUsed": "0x3b49d7",
      "logs": [
        {
          "address": "0x000000000022d473030f116ddee9f6b43ac78ba3",
          "topics": [
            "0xda9fa7c1b00402c17d0161b249b1ab8bbec047c5a52207b9c112deffd817036b",
            "0x0000000000000000000000009dba18e9b96b905919cc828c399d313efd55d800",
            "0x000000000000000000000000721bf800ebed5df889e8815521dfb0b53d9cf71f",
            "0x000000000000000000000000429ba70129df741b2ca2a85bc3a2a3328e5c09b4"
          ],
          "data": "0x000000000000000000000000ffffffffffffffffffffffffffffffffffffffff0000000000000000000000000000000000000000000000000000ffffffffffff",
          "blockHash": "0x270604e844f2f60892c3e4acd9ff6b615dbdea320881d1615fc2c754f435f082",
          "blockNumber": "0x9244c9",
          "blockTimestamp": "0x690f28c8",
          "transactionHash": "0xe90a46061406b405e69008dad27cd8f923e75235b53ca065cbc995f458f90382",
          "transactionIndex": "0x2a",
          "logIndex": "0x31",
          "removed": false
        }
      ],
      "logsBloom": "0x00010000000000000000000000000000000000000000000000000000000000000080000000000040080000000000000000000000000000000000000000080800000000000000000000000000000000000000000000000000000000000000000000000000000000000000000000000000000000000000000000000800000000000020000000000000000000000000000000000000000000000000000000000000000000000000000000000000000000000400000000000000001000080000000000000000000000004000000000000000000000000000000040000400000000000000000000000000000000000000000000000000000000000000000000000400",
      "type": "0x2",
      "transactionHash": "0xe90a46061406b405e69008dad27cd8f923e75235b53ca065cbc995f458f90382",
      "transactionIndex": "0x2a",
      "blockHash": "0x270604e844f2f60892c3e4acd9ff6b615dbdea320881d1615fc2c754f435f082",
      "blockNumber": "0x9244c9",
      "gasUsed": "0x6d02",
      "effectiveGasPrice": "0x727212",
      "from": "0x9dba18e9b96b905919cc828c399d313efd55d800",
      "to": "0x000000000022d473030f116ddee9f6b43ac78ba3",
      "contractAddress": null
    }
  ],
  "libraries": [],
  "pending": [],
  "returns": {},
  "timestamp": 1762603500503,
  "chain": 11155111,
  "commit": "5f4773e"
}