{
  "transactions": [
    {
      "hash": "0xeb589d8a55cbac927ad69a459e439cf90a5070b56910525eae8d751c0639e10a",
      "transactionType": "CALL",
      "contractName": null,
      "contractAddress": "0x124ce391f7043c853c56b87054c9a4e842979b32",
      "function": "approve(address,uint256)",
      "arguments": [
        "0x000000000022D473030F116dDEE9F6B43aC78BA3",
        "115792089237316195423570985008687907853269984665640564039457584007913129639935"
      ],
      "transaction": {
        "from": "0x9dba18e9b96b905919cc828c399d313efd55d800",
        "to": "0x124ce391f7043c853c56b87054c9a4e842979b32",
        "gas": "0xf935",
        "value": "0x0",
        "input": "0x095ea7b3000000000000000000000000000000000022d473030f116ddee9f6b43ac78ba3ffffffffffffffffffffffffffffffffffffffffffffffffffffffffffffffff",
        "nonce": "0x137",
        "chainId": "0xaa36a7"
      },
      "additionalContracts": [],
      "isFixedGasLimit": false
    },
    {
      "hash": "0xb976ade38e63697ef411f0fae53e5c11a77b534d4a80d2fb44bc3573d8c6c1ed",
      "transactionType": "CALL",
      "contractName": null,
      "contractAddress": "0x000000000022d473030f116ddee9f6b43ac78ba3",
      "function": "approve(address,address,uint160,uint48)",
      "arguments": [
        "0x124ce391F7043C853C56b87054c9a4e842979b32",
        "0x429ba70129df741B2Ca2a85BC3A2a3328e5c09b4",
        "1461501637330902918203684832716283019655932542975",
        "281474976710655"
      ],
      "transaction": {
        "from": "0x9dba18e9b96b905919cc828c399d313efd55d800",
        "to": "0x000000000022d473030f116ddee9f6b43ac78ba3",
        "gas": "0x1112d",
        "value": "0x0",
        "input": "0x87517c45000000000000000000000000124ce391f7043c853c56b87054c9a4e842979b32000000000000000000000000429ba70129df741b2ca2a85bc3a2a3328e5c09b4000000000000000000000000ffffffffffffffffffffffffffffffffffffffff0000000000000000000000000000000000000000000000000000ffffffffffff",
        "nonce": "0x138",
        "chainId": "0xaa36a7"
      },
      "additionalContracts": [],
      "isFixedGasLimit": false
    },
    {
      "hash": "0x14c45fe62f4034b7d649fce72a791831f4406fd7eab1a1f80c2e82e7ae779259",
      "transactionType": "CALL",
      "contractName": null,
      "contractAddress": "0x721bf800ebed5df889e8815521dfb0b53d9cf71f",
      "function": "approve(address,uint256)",
      "arguments": [
        "0x000000000022D473030F116dDEE9F6B43aC78BA3",
        "115792089237316195423570985008687907853269984665640564039457584007913129639935"
      ],
      "transaction": {
        "from": "0x9dba18e9b96b905919cc828c399d313efd55d800",
        "to": "0x721bf800ebed5df889e8815521dfb0b53d9cf71f",
        "gas": "0xf935",
        "value": "0x0",
        "input": "0x095ea7b3000000000000000000000000000000000022d473030f116ddee9f6b43ac78ba3ffffffffffffffffffffffffffffffffffffffffffffffffffffffffffffffff",
        "nonce": "0x139",
        "chainId": "0xaa36a7"
      },
      "additionalContracts": [],
      "isFixedGasLimit": false
    },
    {
      "hash": "0x75f02fc938dc749c2c41f4e86a42fa9e66073452b79fec29738be56757176472",
      "transactionType": "CALL",
      "contractName": null,
      "contractAddress": "0x000000000022d473030f116ddee9f6b43ac78ba3",
      "function": "approve(address,address,uint160,uint48)",
      "arguments": [
        "0x721BF800Ebed5df889E8815521Dfb0b53d9CF71F",
        "0x429ba70129df741B2Ca2a85BC3A2a3328e5c09b4",
        "1461501637330902918203684832716283019655932542975",
        "281474976710655"
      ],
      "transaction": {
        "from": "0x9dba18e9b96b905919cc828c399d313efd55d800",
        "to": "0x000000000022d473030f116ddee9f6b43ac78ba3",
        "gas": "0x101ee",
        "value": "0x0",
        "input": "0x87517c45000000000000000000000000721bf800ebed5df889e8815521dfb0b53d9cf71f000000000000000000000000429ba70129df741b2ca2a85bc3a2a3328e5c09b4000000000000000000000000ffffffffffffffffffffffffffffffffffffffff0000000000000000000000000000000000000000000000000000ffffffffffff",
        "nonce": "0x13a",
        "chainId": "0xaa36a7"
      },
      "additionalContracts": [],
      "isFixedGasLimit": false
    },
    {
      "hash": "0x68566f4294ef12ff607be94a25f4e3a268202eff981d00a086c54e0b81214afe",
      "transactionType": "CALL",
      "contractName": null,
      "contractAddress": "0x429ba70129df741b2ca2a85bc3a2a3328e5c09b4",
      "function": "multicall(bytes[])",
      "arguments": [
        "[0xf7020405000000000000000000000000124ce391f7043c853c56b87054c9a4e842979b32000000000000000000000000721bf800ebed5df889e8815521dfb0b53d9cf71f0000000000000000000000000000000000000000000000000000000000000bb8000000000000000000000000000000000000000000000000000000000000003c000000000000000000000000e78bd1b3b9a9ed4af954ac39a820cc903c87cac0000000000000000000000000000000000000000100000000000000000000000000000000000000000000000000000000000000000000000000000000000000e00000000000000000000000000000000000000000000000000000000000000000, 0xdd46508f000000000000000000000000000000000000000000000000000000000000004000000000000000000000000000000000000000000000000000000000690f1c080000000000000000000000000000000000000000000000000000000000000300000000000000000000000000000000000000000000000000000000000000004000000000000000000000000000000000000000000000000000000000000000800000000000000000000000000000000000000000000000000000000000000002020d00000000000000000000000000000000000000000000000000000000000000000000000000000000000000000000000000000000000000000000000000020000000000000000000000000000000000000000000000000000000000000040000000000000000000000000000000000000000000000000000000000000020000000000000000000000000000000000000000000000000000000000000001a0000000000000000000000000124ce391f7043c853c56b87054c9a4e842979b32000000000000000000000000721bf800ebed5df889e8815521dfb0b53d9cf71f0000000000000000000000000000000000000000000000000000000000000bb8000000000000000000000000000000000000000000000000000000000000003c000000000000000000000000e78bd1b3b9a9ed4af954ac39a820cc903c87cac0fffffffffffffffffffffffffffffffffffffffffffffffffffffffffffffda80000000000000000000000000000000000000000000000000000000000000258000000000000000000000000000000000000000000000001d596f2cc56cdb1630000000000000000000000000000000000000000000000000de0b6b3a76400010000000000000000000000000000000000000000000000000de0b6b3a76400010000000000000000000000009dba18e9b96b905919cc828c399d313efd55d800000000000000000000000000000000000000000000000000000000000000018000000000000000000000000000000000000000000000000000000000000000000000000000000000000000000000000000000000000000000000000000000040000000000000000000000000124ce391f7043c853c56b87054c9a4e842979b32000000000000000000000000721bf800ebed5df889e8815521dfb0b53d9cf71f]"
      ],
      "transaction": {
        "from": "0x9dba18e9b96b905919cc828c399d313efd55d800",
        "to": "0x429ba70129df741b2ca2a85bc3a2a3328e5c09b4",
        "gas": "0x9bfe7",
        "value": "0x0",
        "input": "0xac9650d800000000000000000000000000000000000000000000000000000000000000200000000000000000000000000000000000000000000000000000000000000002000000000000000000000000000000000000000000000000000000000000004000000000000000000000000000000000000000000000000000000000000001800000000000000000000000000000000000000000000000000000000000000104f7020405000000000000000000000000124ce391f7043c853c56b87054c9a4e842979b32000000000000000000000000721bf800ebed5df889e8815521dfb0b53d9cf71f0000000000000000000000000000000000000000000000000000000000000bb8000000000000000000000000000000000000000000000000000000000000003c000000000000000000000000e78bd1b3b9a9ed4af954ac39a820cc903c87cac0000000000000000000000000000000000000000100000000000000000000000000000000000000000000000000000000000000000000000000000000000000e00000000000000000000000000000000000000000000000000000000000000000000000000000000000000000000000000000000000000000000000000000000000000000000000000000000000000000000000000000000000000364dd46508f000000000000000000000000000000000000000000000000000000000000004000000000000000000000000000000000000000000000000000000000690f1c080000000000000000000000000000000000000000000000000000000000000300000000000000000000000000000000000000000000000000000000000000004000000000000000000000000000000000000000000000000000000000000000800000000000000000000000000000000000000000000000000000000000000002020d00000000000000000000000000000000000000000000000000000000000000000000000000000000000000000000000000000000000000000000000000020000000000000000000000000000000000000000000000000000000000000040000000000000000000000000000000000000000000000000000000000000020000000000000000000000000000000000000000000000000000000000000001a0000000000000000000000000124ce391f7043c853c56b87054c9a4e842979b32000000000000000000000000721bf800ebed5df889e8815521dfb0b53d9cf71f0000000000000000000000000000000000000000000000000000000000000bb8000000000000000000000000000000000000000000000000000000000000003c000000000000000000000000e78bd1b3b9a9ed4af954ac39a820cc903c87cac0fffffffffffffffffffffffffffffffffffffffffffffffffffffffffffffda80000000000000000000000000000000000000000000000000000000000000258000000000000000000000000000000000000000000000001d596f2cc56cdb1630000000000000000000000000000000000000000000000000de0b6b3a76400010000000000000000000000000000000000000000000000000de0b6b3a76400010000000000000000000000009dba18e9b96b905919cc828c399d313efd55d800000000000000000000000000000000000000000000000000000000000000018000000000000000000000000000000000000000000000000000000000000000000000000000000000000000000000000000000000000000000000000000000040000000000000000000000000124ce391f7043c853c56b87054c9a4e842979b32000000000000000000000000721bf800ebed5df889e8815521dfb0b53d9cf71f00000000000000000000000000000000000000000000000000000000",
        "nonce": "0x13b",
        "chainId": "0xaa36a7"
      },
      "additionalContracts": [],
      "isFixedGasLimit": false
    }
  ],
  "receipts": [
    {
      "status": "0x1",
      "cumulativeGasUsed": "0xac0acf",
      "logs": [
        {
          "address": "0x124ce391f7043c853c56b87054c9a4e842979b32",
          "topics": [
            "0x8c5be1e5ebec7d5bd14f71427d1e84f3dd0314c0f7b2291e5b200ac8c7c3b925",
            "0x0000000000000000000000009dba18e9b96b905919cc828c399d313efd55d800",
            "0x000000000000000000000000000000000022d473030f116ddee9f6b43ac78ba3"
          ],
          "data": "0xffffffffffffffffffffffffffffffffffffffffffffffffffffffffffffffff",
          "blockHash": "0xda484f15b13239c0de915e5a37cfc476bf0f46cef2a6f1885fb4e652b4ed525e",
          "blockNumber": "0x9243ca",
          "blockTimestamp": "0x690f1bf0",
          "transactionHash": "0xeb589d8a55cbac927ad69a459e439cf90a5070b56910525eae8d751c0639e10a",
          "transactionIndex": "0x57",
          "logIndex": "0x6b",
          "removed": false
        }
      ],
      "logsBloom": "0x00000000000000000000000000000000000000000000000000000000000000000008000000000000000000000000000000000000800000000000000000200800000000000000000000004000000000000000000000000800000000000000000000000000000000000000000000000000000000000000000000000000000000000000000000000000000000000000000008000000000000000000000000000000020000000000000000000000000000000400000000000000001000000000000000000008000000000000000000000000000000000000000000000000000000000010000000000000000000000000000000000000000000000000000000000000",
      "type": "0x2",
      "transactionHash": "0xeb589d8a55cbac927ad69a459e439cf90a5070b56910525eae8d751c0639e10a",
      "transactionIndex": "0x57",
      "blockHash": "0xda484f15b13239c0de915e5a37cfc476bf0f46cef2a6f1885fb4e652b4ed525e",
      "blockNumber": "0x9243ca",
      "gasUsed": "0xb46d",
      "effectiveGasPrice": "0xf4249",
      "from": "0x9dba18e9b96b905919cc828c399d313efd55d800",
      "to": "0x124ce391f7043c853c56b87054c9a4e842979b32",
      "contractAddress": null
    },
    {
      "status": "0x1",
      "cumulativeGasUsed": "0xc35668",
      "logs": [
        {
          "address": "0x000000000022d473030f116ddee9f6b43ac78ba3",
          "topics": [
            "0xda9fa7c1b00402c17d0161b249b1ab8bbec047c5a52207b9c112deffd817036b",
            "0x0000000000000000000000009dba18e9b96b905919cc828c399d313efd55d800",
            "0x000000000000000000000000124ce391f7043c853c56b87054c9a4e842979b32",
            "0x000000000000000000000000429ba70129df741b2ca2a85bc3a2a3328e5c09b4"
          ],
          "data": "0x000000000000000000000000ffffffffffffffffffffffffffffffffffffffff0000000000000000000000000000000000000000000000000000ffffffffffff",
          "blockHash": "0x012cec7a972fb995267983446c3037123d2a2089f8060d51140d4caa7ed61eaf",
          "blockNumber": "0x9243cc",
          "blockTimestamp": "0x690f1c08",
          "transactionHash": "0xb976ade38e63697ef411f0fae53e5c11a77b534d4a80d2fb44bc3573d8c6c1ed",
          "transactionIndex": "0x3a",
          "logIndex": "0x6f",
          "removed": false
        }
      ],
      "logsBloom": "0x00010000000000000000000000000000000000000000000000000000000000000000000000000040080000000000000000000000000000000000000000080800000000000000000000000000000000000000000000000000000000000000000000000000000000000000000000000000000000000000000000000800000000000020000000080000000000000000000000000000000000000000000000000000000000000000000000000000000000000400000000000000001000080000000000000000000000000000000000000000000000000000000040000000000000100000000000000000000000000000000000000000000000200000000000000400",
      "type": "0x2",
      "transactionHash": "0xb976ade38e63697ef411f0fae53e5c11a77b534d4a80d2fb44bc3573d8c6c1ed",
      "transactionIndex": "0x3a",
      "blockHash": "0x012cec7a972fb995267983446c3037123d2a2089f8060d51140d4caa7ed61eaf",
      "blockNumber": "0x9243cc",
      "gasUsed": "0xbaca",
      "effectiveGasPrice": "0xf4249",
      "from": "0x9dba18e9b96b905919cc828c399d313efd55d800",
      "to": "0x000000000022d473030f116ddee9f6b43ac78ba3",
      "contractAddress": null
    },
    {
      "status": "0x1",
      "cumulativeGasUsed": "0x110e20f",
      "logs": [
        {
          "address": "0x721bf800ebed5df889e8815521dfb0b53d9cf71f",
          "topics": [
            "0x8c5be1e5ebec7d5bd14f71427d1e84f3dd0314c0f7b2291e5b200ac8c7c3b925",
            "0x0000000000000000000000009dba18e9b96b905919cc828c399d313efd55d800",
            "0x000000000000000000000000000000000022d473030f116ddee9f6b43ac78ba3"
          ],
          "data": "0xffffffffffffffffffffffffffffffffffffffffffffffffffffffffffffffff",
          "blockHash": "0x765a24e686e8b043bcbeb34d8d7837208760e49fae12e5982bc14c5930409f59",
          "blockNumber": "0x9243ce",
          "blockTimestamp": "0x690f1c20",
          "transactionHash": "0x14c45fe62f4034b7d649fce72a791831f4406fd7eab1a1f80c2e82e7ae779259",
          "transactionIndex": "0x50",
          "logIndex": "0x8b",
          "removed": false
        }
      ],
      "logsBloom": "0x00000000000000000040000000000000000000000000000000000000000000000000000000000000000000000000000000000000800000000000000000200800000000000000000000004000000000000000000000000800000800000000000000000000000000000000000000000000000000000000000000000000000000000000000000000000000000000000000000000000000000000000000000000000020000000000000000000000000000000400000000000000001000000000000000000000000000000000000000000000000000000000000000000000000000000010000000000000000000000100000000000000000000000000000000000000",
      "type": "0x2",
      "transactionHash": "0x14c45fe62f4034b7d649fce72a791831f4406fd7eab1a1f80c2e82e7ae779259",
      "transactionIndex": "0x50",
      "blockHash": "0x765a24e686e8b043bcbeb34d8d7837208760e49fae12e5982bc14c5930409f59",
      "blockNumber": "0x9243ce",
      "gasUsed": "0xb46d",
      "effectiveGasPrice": "0xf4249",
      "from": "0x9dba18e9b96b905919cc828c399d313efd55d800",
      "to": "0x721bf800ebed5df889e8815521dfb0b53d9cf71f",
      "contractAddress": null
    },
    {
      "status": "0x1",
      "cumulativeGasUsed": "0x51eaa6",
      "logs": [
        {
          "address": "0x000000000022d473030f116ddee9f6b43ac78ba3",
          "topics": [
            "0xda9fa7c1b00402c17d0161b249b1ab8bbec047c5a52207b9c112deffd817036b",
            "0x0000000000000000000000009dba18e9b96b905919cc828c399d313efd55d800",
            "0x000000000000000000000000721bf800ebed5df889e8815521dfb0b53d9cf71f",
            "0x000000000000000000000000429ba70129df741b2ca2a85bc3a2a3328e5c09b4"
          ],
          "data": "0x000000000000000000000000ffffffffffffffffffffffffffffffffffffffff0000000000000000000000000000000000000000000000000000ffffffffffff",
          "blockHash": "0x98379f81f9f98ca407d77f64584032fd5d0d24a6fa8ef99784994634b03742fa",
          "blockNumber": "0x9243d4",
          "blockTimestamp": "0x690f1c68",
          "transactionHash": "0x75f02fc938dc749c2c41f4e86a42fa9e66073452b79fec29738be56757176472",
          "transactionIndex": "0x2d",
          "logIndex": "0x4d",
          "removed": false
        }
      ],
      "logsBloom": "0x00010000000000000000000000000000000000000000000000000000000000000080000000000040080000000000000000000000000000000000000000080800000000000000000000000000000000000000000000000000000000000000000000000000000000000000000000000000000000000000000000000800000000000020000000000000000000000000000000000000000000000000000000000000000000000000000000000000000000000400000000000000001000080000000000000000000000004000000000000000000000000000000040000400000000000000000000000000000000000000000000000000000000000000000000000400",
      "type": "0x2",
      "transactionHash": "0x75f02fc938dc749c2c41f4e86a42fa9e66073452b79fec29738be56757176472",
      "transactionIndex": "0x2d",
      "blockHash": "0x98379f81f9f98ca407d77f64584032fd5d0d24a6fa8ef99784994634b03742fa",
      "blockNumber": "0x9243d4",
      "gasUsed": "0xbabe",
      "effectiveGasPrice": "0xf4249",
      "from": "0x9dba18e9b96b905919cc828c399d313efd55d800",
      "to": "0x000000000022d473030f116ddee9f6b43ac78ba3",
      "contractAddress": null
    }
  ],
  "libraries": [],
  "pending": [],
  "returns": {},
  "timestamp": 1762598017448,
  "chain": 11155111,
  "commit": "5f4773e"
}