{
  "transactions": [
    {
      "hash": "0x39e5cad24517304d153e820cc386422590c9497504f1dae72061d67c9d92152f",
      "transactionType": "CALL",
      "contractName": null,
      "contractAddress": "0x2794a0b7187bfcd81d2b6d05e8a6e6cae3f97ffa",
      "function": "approve(address,uint256)",
      "arguments": [
        "0x000000000022D473030F116dDEE9F6B43aC78BA3",
        "115792089237316195423570985008687907853269984665640564039457584007913129639935"
      ],
      "transaction": {
        "from": "0x8822f2965090ddc102f7de354dfd6e642c090269",
        "to": "0x2794a0b7187bfcd81d2b6d05e8a6e6cae3f97ffa",
        "gas": "0x962f",
        "value": "0x0",
        "input": "0x095ea7b3000000000000000000000000000000000022d473030f116ddee9f6b43ac78ba3ffffffffffffffffffffffffffffffffffffffffffffffffffffffffffffffff",
        "nonce": "0x2c5",
        "chainId": "0xaa36a7"
      },
      "additionalContracts": [],
      "isFixedGasLimit": false
    },
    {
      "hash": "0x0f1ebda23bac75e829e3bcfd619f8e235e229dd1d069c29bbf1d9a59ca1565f5",
      "transactionType": "CALL",
      "contractName": null,
      "contractAddress": "0x000000000022d473030f116ddee9f6b43ac78ba3",
      "function": "approve(address,address,uint160,uint48)",
      "arguments": [
        "0x2794a0b7187BFCd81D2b6d05E8a6e6cAE3F97fFa",
        "0x429ba70129df741B2Ca2a85BC3A2a3328e5c09b4",
        "1461501637330902918203684832716283019655932542975",
        "281474976710655"
      ],
      "transaction": {
        "from": "0x8822f2965090ddc102f7de354dfd6e642c090269",
        "to": "0x000000000022d473030f116ddee9f6b43ac78ba3",
        "gas": "0x96a0",
        "value": "0x0",
        "input": "0x87517c450000000000000000000000002794a0b7187bfcd81d2b6d05e8a6e6cae3f97ffa000000000000000000000000429ba70129df741b2ca2a85bc3a2a3328e5c09b4000000000000000000000000ffffffffffffffffffffffffffffffffffffffff0000000000000000000000000000000000000000000000000000ffffffffffff",
        "nonce": "0x2c6",
        "chainId": "0xaa36a7"
      },
      "additionalContracts": [],
      "isFixedGasLimit": false
    },
    {
      "hash": "0x63872043cc291763784af6e1b88adbf3d69f7d929e35b1995ef2daafb64dc136",
      "transactionType": "CALL",
      "contractName": null,
      "contractAddress": "0xea20820719c5ae04bce9a098e209f4d8c60daf06",
      "function": "approve(address,uint256)",
      "arguments": [
        "0x000000000022D473030F116dDEE9F6B43aC78BA3",
        "115792089237316195423570985008687907853269984665640564039457584007913129639935"
      ],
      "transaction": {
        "from": "0x8822f2965090ddc102f7de354dfd6e642c090269",
        "to": "0xea20820719c5ae04bce9a098e209f4d8c60daf06",
        "gas": "0x962f",
        "value": "0x0",
        "input": "0x095ea7b3000000000000000000000000000000000022d473030f116ddee9f6b43ac78ba3ffffffffffffffffffffffffffffffffffffffffffffffffffffffffffffffff",
        "nonce": "0x2c7",
        "chainId": "0xaa36a7"
      },
      "additionalContracts": [],
      "isFixedGasLimit": false
    },
    {
      "hash": "0xccf78ccccc1e3a54b72da347b998e1acb7094f1157db45f2bd6cb98964c612b8",
      "transactionType": "CALL",
      "contractName": null,
      "contractAddress": "0x000000000022d473030f116ddee9f6b43ac78ba3",
      "function": "approve(address,address,uint160,uint48)",
      "arguments": [
        "0xEa20820719c5Ae04Bce9A098E209f4d8C60DAF06",
        "0x429ba70129df741B2Ca2a85BC3A2a3328e5c09b4",
        "1461501637330902918203684832716283019655932542975",
        "281474976710655"
      ],
      "transaction": {
        "from": "0x8822f2965090ddc102f7de354dfd6e642c090269",
        "to": "0x000000000022d473030f116ddee9f6b43ac78ba3",
        "gas": "0x96a0",
        "value": "0x0",
        "input": "0x87517c45000000000000000000000000ea20820719c5ae04bce9a098e209f4d8c60daf06000000000000000000000000429ba70129df741b2ca2a85bc3a2a3328e5c09b4000000000000000000000000ffffffffffffffffffffffffffffffffffffffff0000000000000000000000000000000000000000000000000000ffffffffffff",
        "nonce": "0x2c8",
        "chainId": "0xaa36a7"
      },
      "additionalContracts": [],
      "isFixedGasLimit": false
    },
    {
      "hash": "0xb657cb653fc634603b1dee00c3faf5078d1726354f1d7e0561182ba8dc25a74f",
      "transactionType": "CALL",
      "contractName": null,
      "contractAddress": "0xe03a1074c86cfedd5c142c4f04f1a1536e203543",
      "function": "initialize((address,address,uint24,int24,address),uint160)",
      "arguments": [
        "(0x2794a0b7187BFCd81D2b6d05E8a6e6cAE3F97fFa, 0xEa20820719c5Ae04Bce9A098E209f4d8C60DAF06, 3000, 60, 0xB6D5Be7F68a691Ca0B81eCBfBD38164808c2cac8)",
        "79228162514264337593543950336"
      ],
      "transaction": {
        "from": "0x8822f2965090ddc102f7de354dfd6e642c090269",
        "to": "0xe03a1074c86cfedd5c142c4f04f1a1536e203543",
        "gas": "0x11721",
        "value": "0x0",
        "input": "0x6276cbbe0000000000000000000000002794a0b7187bfcd81d2b6d05e8a6e6cae3f97ffa000000000000000000000000ea20820719c5ae04bce9a098e209f4d8c60daf060000000000000000000000000000000000000000000000000000000000000bb8000000000000000000000000000000000000000000000000000000000000003c000000000000000000000000b6d5be7f68a691ca0b81ecbfbd38164808c2cac80000000000000000000000000000000000000001000000000000000000000000",
        "nonce": "0x2c9",
        "chainId": "0xaa36a7"
      },
      "additionalContracts": [],
      "isFixedGasLimit": false
    },
    {
      "hash": "0x42963a9de47a93a72d9ec230ec717a3ad20e3680d14090e80452d91d6d89b4fd",
      "transactionType": "CALL",
      "contractName": null,
      "contractAddress": "0x429ba70129df741b2ca2a85bc3a2a3328e5c09b4",
      "function": "modifyLiquidities(bytes,uint256)",
      "arguments": [
        "0x000000000000000000000000000000000000000000000000000000000000004000000000000000000000000000000000000000000000000000000000000000800000000000000000000000000000000000000000000000000000000000000002020d00000000000000000000000000000000000000000000000000000000000000000000000000000000000000000000000000000000000000000000000000020000000000000000000000000000000000000000000000000000000000000040000000000000000000000000000000000000000000000000000000000000020000000000000000000000000000000000000000000000000000000000000001a00000000000000000000000002794a0b7187bfcd81d2b6d05e8a6e6cae3f97ffa000000000000000000000000ea20820719c5ae04bce9a098e209f4d8c60daf060000000000000000000000000000000000000000000000000000000000000bb8000000000000000000000000000000000000000000000000000000000000003c000000000000000000000000b6d5be7f68a691ca0b81ecbfbd38164808c2cac8fffffffffffffffffffffffffffffffffffffffffffffffffffffffffffffda80000000000000000000000000000000000000000000000000000000000000258000000000000000000000000000000000000000000000001d596f2cc56cdb1630000000000000000000000000000000000000000000000000de0b6b3a76400010000000000000000000000000000000000000000000000000de0b6b3a76400010000000000000000000000008822f2965090ddc102f7de354dfd6e642c0902690000000000000000000000000000000000000000000000000000000000000180000000000000000000000000000000000000000000000000000000000000000000000000000000000000000000000000000000000000000000000000000000400000000000000000000000002794a0b7187bfcd81d2b6d05e8a6e6cae3f97ffa000000000000000000000000ea20820719c5ae04bce9a098e209f4d8c60daf06",
        "1774357968"
      ],
      "transaction": {
        "from": "0x8822f2965090ddc102f7de354dfd6e642c090269",
        "to": "0x429ba70129df741b2ca2a85bc3a2a3328e5c09b4",
        "gas": "0x8c26d",
        "value": "0x0",
        "input": "0xdd46508f00000000000000000000000000000000000000000000000000000000000000400000000000000000000000000000000000000000000000000000000069c28dd00000000000000000000000000000000000000000000000000000000000000300000000000000000000000000000000000000000000000000000000000000004000000000000000000000000000000000000000000000000000000000000000800000000000000000000000000000000000000000000000000000000000000002020d00000000000000000000000000000000000000000000000000000000000000000000000000000000000000000000000000000000000000000000000000020000000000000000000000000000000000000000000000000000000000000040000000000000000000000000000000000000000000000000000000000000020000000000000000000000000000000000000000000000000000000000000001a00000000000000000000000002794a0b7187bfcd81d2b6d05e8a6e6cae3f97ffa000000000000000000000000ea20820719c5ae04bce9a098e209f4d8c60daf060000000000000000000000000000000000000000000000000000000000000bb8000000000000000000000000000000000000000000000000000000000000003c000000000000000000000000b6d5be7f68a691ca0b81ecbfbd38164808c2cac8fffffffffffffffffffffffffffffffffffffffffffffffffffffffffffffda80000000000000000000000000000000000000000000000000000000000000258000000000000000000000000000000000000000000000001d596f2cc56cdb1630000000000000000000000000000000000000000000000000de0b6b3a76400010000000000000000000000000000000000000000000000000de0b6b3a76400010000000000000000000000008822f2965090ddc102f7de354dfd6e642c0902690000000000000000000000000000000000000000000000000000000000000180000000000000000000000000000000000000000000000000000000000000000000000000000000000000000000000000000000000000000000000000000000400000000000000000000000002794a0b7187bfcd81d2b6d05e8a6e6cae3f97ffa000000000000000000000000ea20820719c5ae04bce9a098e209f4d8c60daf06",
        "nonce": "0x2ca",
        "chainId": "0xaa36a7"
      },
      "additionalContracts": [],
      "isFixedGasLimit": false
    }
  ],
  "receipts": [
    {
      "status": "0x1",
      "cumulativeGasUsed": "0x27c6680",
      "logs": [
        {
          "address": "0x2794a0b7187bfcd81d2b6d05e8a6e6cae3f97ffa",
          "topics": [
            "0x8c5be1e5ebec7d5bd14f71427d1e84f3dd0314c0f7b2291e5b200ac8c7c3b925",
            "0x0000000000000000000000008822f2965090ddc102f7de354dfd6e642c090269",
            "0x000000000000000000000000000000000022d473030f116ddee9f6b43ac78ba3"
          ],
          "data": "0xffffffffffffffffffffffffffffffffffffffffffffffffffffffffffffffff",
          "blockHash": "0x410e88a7573dd00847f0a92d52d2dd6e71dd21d367fb3740096a3ab2a868e1da",
          "blockNumber": "0xa0652a",
          "blockTimestamp": "0x69c27fe4",
          "transactionHash": "0x39e5cad24517304d153e820cc386422590c9497504f1dae72061d67c9d92152f",
          "transactionIndex": "0x114",
          "logIndex": "0x66f",
          "removed": false
        }
      ],
      "logsBloom": "0x00200000000000000000000000000000000000000000000000000000000000000000000000000000000000000000000000000000800000000000000000200000000000000000000000004000000000000000000000000800000000000000000000000000000000000000000000000000000000000000000000000000000000000000008000000000000000000000000008000000000000000000000000000000020000000000000000000000000000000800000000000000000000000000000400000000000000000000000000000000000000000000000000000000000000000010000000000800000000000000000000000000000000000000000000000000",
      "type": "0x2",
      "transactionHash": "0x39e5cad24517304d153e820cc386422590c9497504f1dae72061d67c9d92152f",
      "transactionIndex": "0x114",
      "blockHash": "0x410e88a7573dd00847f0a92d52d2dd6e71dd21d367fb3740096a3ab2a868e1da",
      "blockNumber": "0xa0652a",
      "gasUsed": "0x66b1",
      "effectiveGasPrice": "0xf432e",
      "from": "0x8822f2965090ddc102f7de354dfd6e642c090269",
      "to": "0x2794a0b7187bfcd81d2b6d05e8a6e6cae3f97ffa",
      "contractAddress": null
    },
    {
      "status": "0x1",
      "cumulativeGasUsed": "0x27cd38e",
      "logs": [
        {
          "address": "0x000000000022d473030f116ddee9f6b43ac78ba3",
          "topics": [
            "0xda9fa7c1b00402c17d0161b249b1ab8bbec047c5a52207b9c112deffd817036b",
            "0x0000000000000000000000008822f2965090ddc102f7de354dfd6e642c090269",
            "0x0000000000000000000000002794a0b7187bfcd81d2b6d05e8a6e6cae3f97ffa",
            "0x000000000000000000000000429ba70129df741b2ca2a85bc3a2a3328e5c09b4"
          ],
          "data": "0x000000000000000000000000ffffffffffffffffffffffffffffffffffffffff0000000000000000000000000000000000000000000000000000ffffffffffff",
          "blockHash": "0x410e88a7573dd00847f0a92d52d2dd6e71dd21d367fb3740096a3ab2a868e1da",
          "blockNumber": "0xa0652a",
          "blockTimestamp": "0x69c27fe4",
          "transactionHash": "0x0f1ebda23bac75e829e3bcfd619f8e235e229dd1d069c29bbf1d9a59ca1565f5",
          "transactionIndex": "0x115",
          "logIndex": "0x670",
          "removed": false
        }
      ],
      "logsBloom": "0x00210000000000000000000100000000000000000000000000000000000000000000800000000040080000000000000000000000000000000000000000080000000000000000000000000000000000000000001000000000000000000000000000000000000000000000000000000000000000000000000000000800000000000020008000000000000000000000000000000000000000000000000000000000000000000000000000000000000000000800000000000000000000080000000000000000000000000000000000000000000000000000000040000000000000000000000000000000000000000000000000000000000000000000000000000400",
      "type": "0x2",
      "transactionHash": "0x0f1ebda23bac75e829e3bcfd619f8e235e229dd1d069c29bbf1d9a59ca1565f5",
      "transactionIndex": "0x115",
      "blockHash": "0x410e88a7573dd00847f0a92d52d2dd6e71dd21d367fb3740096a3ab2a868e1da",
      "blockNumber": "0xa0652a",
      "gasUsed": "0x6d0e",
      "effectiveGasPrice": "0xf432e",
      "from": "0x8822f2965090ddc102f7de354dfd6e642c090269",
      "to": "0x000000000022d473030f116ddee9f6b43ac78ba3",
      "contractAddress": null
    },
    {
      "status": "0x1",
      "cumulativeGasUsed": "0x27d3a3f",
      "logs": [
        {
          "address": "0xea20820719c5ae04bce9a098e209f4d8c60daf06",
          "topics": [
            "0x8c5be1e5ebec7d5bd14f71427d1e84f3dd0314c0f7b2291e5b200ac8c7c3b925",
            "0x0000000000000000000000008822f2965090ddc102f7de354dfd6e642c090269",
            "0x000000000000000000000000000000000022d473030f116ddee9f6b43ac78ba3"
          ],
          "data": "0xffffffffffffffffffffffffffffffffffffffffffffffffffffffffffffffff",
          "blockHash": "0x410e88a7573dd00847f0a92d52d2dd6e71dd21d367fb3740096a3ab2a868e1da",
          "blockNumber": "0xa0652a",
          "blockTimestamp": "0x69c27fe4",
          "transactionHash": "0x63872043cc291763784af6e1b88adbf3d69f7d929e35b1995ef2daafb64dc136",
          "transactionIndex": "0x116",
          "logIndex": "0x671",
          "removed": false
        }
      ],
      "logsBloom": "0x00200000000000000000000000000000000000000000000000000000000000000000000000000000000000000000000000000000800000000000000000200000000000000000000000004000000000000000000000000800000000000000000000000000000000000000000000000000000000000000000000000000000000000000008000000000000200000000000800008000000000000000000000000000020000000000000000000000000000000800000000000000000000000000000000000000000000000000000000000000000000000000000000000000000000000010000000000000000000000000000000000000000000000000000000000000",
      "type": "0x2",
      "transactionHash": "0x63872043cc291763784af6e1b88adbf3d69f7d929e35b1995ef2daafb64dc136",
      "transactionIndex": "0x116",
      "blockHash": "0x410e88a7573dd00847f0a92d52d2dd6e71dd21d367fb3740096a3ab2a868e1da",
      "blockNumber": "0xa0652a",
      "gasUsed": "0x66b1",
      "effectiveGasPrice": "0xf432e",
      "from": "0x8822f2965090ddc102f7de354dfd6e642c090269",
      "to": "0xea20820719c5ae04bce9a098e209f4d8c60daf06",
      "contractAddress": null
    },
    {
      "status": "0x1",
      "cumulativeGasUsed": "0x27da74d",
      "logs": [
        {
          "address": "0x000000000022d473030f116ddee9f6b43ac78ba3",
          "topics": [
            "0xda9fa7c1b00402c17d0161b249b1ab8bbec047c5a52207b9c112deffd817036b",
            "0x0000000000000000000000008822f2965090ddc102f7de354dfd6e642c090269",
            "0x000000000000000000000000ea20820719c5ae04bce9a098e209f4d8c60daf06",
            "0x000000000000000000000000429ba70129df741b2ca2a85bc3a2a3328e5c09b4"
          ],
          "data": "0x000000000000000000000000ffffffffffffffffffffffffffffffffffffffff0000000000000000000000000000000000000000000000000000ffffffffffff",
          "blockHash": "0x410e88a7573dd00847f0a92d52d2dd6e71dd21d367fb3740096a3ab2a868e1da",
          "blockNumber": "0xa0652a",
          "blockTimestamp": "0x69c27fe4",
          "transactionHash": "0xccf78ccccc1e3a54b72da347b998e1acb7094f1157db45f2bd6cb98964c612b8",
          "transactionIndex": "0x117",
          "logIndex": "0x672",
          "removed": false
        }
      ],
      "logsBloom": "0x00210000000000000000000000000000000000000000000000000000000000000000000000000040080000000000000000000000000000000000000000080000000000000000000000000000000000000000000000000000000000000000000000000000000000008000000000000000000000000000000000000800000000000020008000000000000000000000000000000000000000000000000000000000000000000000000000000000000000000800000000000200000000080000000000000000000000000000000000000000000000000000000040000000000000000000000000000000000000000000000000040000000000000000000000000400",
      "type": "0x2",
      "transactionHash": "0xccf78ccccc1e3a54b72da347b998e1acb7094f1157db45f2bd6cb98964c612b8",
      "transactionIndex": "0x117",
      "blockHash": "0x410e88a7573dd00847f0a92d52d2dd6e71dd21d367fb3740096a3ab2a868e1da",
      "blockNumber": "0xa0652a",
      "gasUsed": "0x6d0e",
      "effectiveGasPrice": "0xf432e",
      "from": "0x8822f2965090ddc102f7de354dfd6e642c090269",
      "to": "0x000000000022d473030f116ddee9f6b43ac78ba3",
      "contractAddress": null
    },
    {
      "status": "0x1",
      "cumulativeGasUsed": "0x27e7163",
      "logs": [
        {
          "address": "0xe03a1074c86cfedd5c142c4f04f1a1536e203543",
          "topics": [
            "0xdd466e674ea557f56295e2d0218a125ea4b4f0f6f3307b95f85e6110838d6438",
            "0xafc0871a032cb59b9baed1192a2e085c4b009b825ed8753bb15dda7e9e65506a",
            "0x0000000000000000000000002794a0b7187bfcd81d2b6d05e8a6e6cae3f97ffa",
            "0x000000000000000000000000ea20820719c5ae04bce9a098e209f4d8c60daf06"
          ],
          "data": "0x0000000000000000000000000000000000000000000000000000000000000bb8000000000000000000000000000000000000000000000000000000000000003c000000000000000000000000b6d5be7f68a691ca0b81ecbfbd38164808c2cac800000000000000000000000000000000000000010000000000000000000000000000000000000000000000000000000000000000000000000000000000000000",
          "blockHash": "0x410e88a7573dd00847f0a92d52d2dd6e71dd21d367fb3740096a3ab2a868e1da",
          "blockNumber": "0xa0652a",
          "blockTimestamp": "0x69c27fe4",
          "transactionHash": "0xb657cb653fc634603b1dee00c3faf5078d1726354f1d7e0561182ba8dc25a74f",
          "transactionIndex": "0x118",
          "logIndex": "0x673",
          "removed": false
        }
      ],
      "logsBloom": "0x00000000000000000000000100000000000000000000000000000000000000000000800000000000000000000000000000000100000000000000000000000000000000000000000000000000000000000000001000000000000080000000000000000000000000008000000000000000000000000000100000000000000000000000000000000008000000000000000000000001000008000000000000200000000000000000000000000000000000000000000000000200000000000000000000000000000000000000000000000000000000000000000000000000000000001000000000000000000000000000000000040000000000000000000000008000",
      "type": "0x2",
      "transactionHash": "0xb657cb653fc634603b1dee00c3faf5078d1726354f1d7e0561182ba8dc25a74f",
      "transactionIndex": "0x118",
      "blockHash": "0x410e88a7573dd00847f0a92d52d2dd6e71dd21d367fb3740096a3ab2a868e1da",
      "blockNumber": "0xa0652a",
      "gasUsed": "0xca16",
      "effectiveGasPrice": "0xf432e",
      "from": "0x8822f2965090ddc102f7de354dfd6e642c090269",
      "to": "0xe03a1074c86cfedd5c142c4f04f1a1536e203543",
      "contractAddress": null
    },
    {
      "status": "0x1",
      "cumulativeGasUsed": "0x2846eac",
      "logs": [
        {
          "address": "0x429ba70129df741b2ca2a85bc3a2a3328e5c09b4",
          "topics": [
            "0xddf252ad1be2c89b69c2b068fc378daa952ba7f163c4a11628f55a4df523b3ef",
            "0x0000000000000000000000000000000000000000000000000000000000000000",
            "0x0000000000000000000000008822f2965090ddc102f7de354dfd6e642c090269",
            "0x00000000000000000000000000000000000000000000000000000000000061db"
          ],
          "data": "0x",
          "blockHash": "0x410e88a7573dd00847f0a92d52d2dd6e71dd21d367fb3740096a3ab2a868e1da",
          "blockNumber": "0xa0652a",
          "blockTimestamp": "0x69c27fe4",
          "transactionHash": "0x42963a9de47a93a72d9ec230ec717a3ad20e3680d14090e80452d91d6d89b4fd",
          "transactionIndex": "0x119",
          "logIndex": "0x674",
          "removed": false
        },
        {
          "address": "0xe03a1074c86cfedd5c142c4f04f1a1536e203543",
          "topics": [
            "0xf208f4912782fd25c7f114ca3723a2d5dd6f3bcc3ac8db5af63baa85f711d5ec",
            "0xafc0871a032cb59b9baed1192a2e085c4b009b825ed8753bb15dda7e9e65506a",
            "0x000000000000000000000000429ba70129df741b2ca2a85bc3a2a3328e5c09b4"
          ],
          "data": "0xfffffffffffffffffffffffffffffffffffffffffffffffffffffffffffffda80000000000000000000000000000000000000000000000000000000000000258000000000000000000000000000000000000000000000001d596f2cc56cdb16300000000000000000000000000000000000000000000000000000000000061db",
          "blockHash": "0x410e88a7573dd00847f0a92d52d2dd6e71dd21d367fb3740096a3ab2a868e1da",
          "blockNumber": "0xa0652a",
          "blockTimestamp": "0x69c27fe4",
          "transactionHash": "0x42963a9de47a93a72d9ec230ec717a3ad20e3680d14090e80452d91d6d89b4fd",
          "transactionIndex": "0x119",
          "logIndex": "0x675",
          "removed": false
        },
        {
          "address": "0x2794a0b7187bfcd81d2b6d05e8a6e6cae3f97ffa",
          "topics": [
            "0xddf252ad1be2c89b69c2b068fc378daa952ba7f163c4a11628f55a4df523b3ef",
            "0x0000000000000000000000008822f2965090ddc102f7de354dfd6e642c090269",
            "0x000000000000000000000000e03a1074c86cfedd5c142c4f04f1a1536e203543"
          ],
          "data": "0x0000000000000000000000000000000000000000000000000de0b6b3a7640000",
          "blockHash": "0x410e88a7573dd00847f0a92d52d2dd6e71dd21d367fb3740096a3ab2a868e1da",
          "blockNumber": "0xa0652a",
          "blockTimestamp": "0x69c27fe4",
          "transactionHash": "0x42963a9de47a93a72d9ec230ec717a3ad20e3680d14090e80452d91d6d89b4fd",
          "transactionIndex": "0x119",
          "logIndex": "0x676",
          "removed": false
        },
        {
          "address": "0xea20820719c5ae04bce9a098e209f4d8c60daf06",
          "topics": [
            "0xddf252ad1be2c89b69c2b068fc378daa952ba7f163c4a11628f55a4df523b3ef",
            "0x0000000000000000000000008822f2965090ddc102f7de354dfd6e642c090269",
            "0x000000000000000000000000e03a1074c86cfedd5c142c4f04f1a1536e203543"
          ],
          "data": "0x0000000000000000000000000000000000000000000000000de0b6b3a7640000",
          "blockHash": "0x410e88a7573dd00847f0a92d52d2dd6e71dd21d367fb3740096a3ab2a868e1da",
          "blockNumber": "0xa0652a",
          "blockTimestamp": "0x69c27fe4",
          "transactionHash": "0x42963a9de47a93a72d9ec230ec717a3ad20e3680d14090e80452d91d6d89b4fd",
          "transactionIndex": "0x119",
          "logIndex": "0x677",
          "removed": false
        }
      ],
      "logsBloom": "0x00200000000000000000001000000000000000000000000000000000080000000000000000000040080000000000000000000100000000000000000000000000000000000000000000000008000000000000000000000000000080000000000000000000020000000000000080000800000000000000300000000810000000000000008001000000000210000000000808008000000008000000000000000001000004000000000000000000000000000800000000400000000000000000000400000002000000000000000000000000000000000000000000001000000020001000000000000800000000000000080004000000000000000000000000008000",
      "type": "0x2",
      "transactionHash": "0x42963a9de47a93a72d9ec230ec717a3ad20e3680d14090e80452d91d6d89b4fd",
      "transactionIndex": "0x119",
      "blockHash": "0x410e88a7573dd00847f0a92d52d2dd6e71dd21d367fb3740096a3ab2a868e1da",
      "blockNumber": "0xa0652a",
      "gasUsed": "0x5fd49",
      "effectiveGasPrice": "0xf432e",
      "from": "0x8822f2965090ddc102f7de354dfd6e642c090269",
      "to": "0x429ba70129df741b2ca2a85bc3a2a3328e5c09b4",
      "contractAddress": null
    }
  ],
  "libraries": [],
  "pending": [],
  "returns": {},
  "timestamp": 1774354405057,
  "chain": 11155111,
  "commit": "87e1a12"
}